:1020000000800020CD530000B5530000B553000000
:1020100000000000000000000000000000000000C0
:10202000000000000000000000000000B5530000A8
:102030000000000000000000B55300002154000023
:10204000B5530000B5530000B5530000B553000070
:10205000B5530000B5530000B5530000B95300005C
:10206000B5530000B5530000B5530000E95200001D
:10207000D9520000B5530000C9520000B55300000A
:10208000B5530000B5530000B5530000B553000030
:1020900000000000B5530000B5530000B553000028
:1020A000B5530000B5530000B5530000B553000010
:1020B0000000000010B5064C2378002B07D1054B1B
:1020C000002B02D0044800E000BF0123237010BDA4
:1020D000740200200000000060D80000044B10B51E
:1020E000002B03D00349044800E000BF10BDC046E8
:1020F000000000007802002060D8000070B52A4C73
:102100002A49200000F020FFE1212000490200F0D0
:102110000DFF0121200000F005FF254D00280AD009
:102120002449280003F0F8FC20000A2100F0F5FE05
:10213000200000F0F9FE00212000012200F068FFDD
:102140000121200000F0EEFE002806D01A492800E8
:1021500003F0E2FC200000F0E7FEE1210022174B33
:10216000280049021A6004F04FFC2800144903F0CB
:10217000EFFC2800134903F0CFFC0A220D212800B0
:1021800003F05BFD104800F08FF828000F4903F0C2
:10219000DFFC0F4C0021200000F084FD21780D4869
:1021A00000F0FEFC70BDC046B8030020B80B000074
:1021B000D40B0020C8CC0000D9CC0000980200202D
:1021C000E0CC0000F9CC00009C0200200DCD000006
:1021D000B0020020A002002010B5034800F0E0FA91
:1021E000024800F021FD10BD9C020020A00200204A
:1021F00007B50021074800910B000A0003F00AFC14
:10220000054800F00FF8054800F046FD044800F0CE
:1022100041FB07BD900200209C020020B00200207C
:10222000A002002010B50400074801F0B3FD002211
:10223000FA20064B80001A60054B196805F004FD72
:10224000044B1860200010BDBC020020D402002006
:1022500014000020B802002010B502A800781B026C
:10226000034312041A4389B2014801F017FF10BD5D
:10227000BC020020F0B5050016001F00002485B048
:102280000391330021000097039A2800FFF7E4FF31
:10229000E8230134FF339C42F3D1024801F0CCFD26
:1022A00005B0F0BDBC02002070B5144C1449050007
:1022B000200003F031FC0A220D21200003F0BDFCB8
:1022C0000121052003F08CFA0E49200003F024FCC4
:1022D0000A220D21200003F0B0FC01210D2003F0A3
:1022E0007FFA00246210E3B2D2B200212800013448
:1022F000FFF7C0FFFF2CF5D170BDC046D40B002006
:102300005ECD00006ECD0000F7B50E001500134C39
:1023100013492000019303F0FFFB31000A22200043
:1023200003F07DFC0F4F2000390003F0F5FB29007E
:102330000A22200003F073FC3900200003F0ECFBBC
:102340000A220199200003F06AFC6A46064B1279C2
:102350001E70064B1D70064B1A70F7BDD40B002083
:1023600036CD000050D8000008000020B202002046
:10237000B1020020F7B50D001F00114C11492000DB
:10238000019203F0C9FB29000A22200003F047FC58
:102390000D4E2000310003F0BFFB0A2201992000FE
:1023A00003F03DFC3100200003F0B6FB39000A22A7
:1023B000200003F034FC054B1D70054B1F70F7BD6A
:1023C000D40B002047CD000050D80000B4020020FC
:1023D00009000020002370B50C001A001900FFF757
:1023E00049FF064D06492C60064C200003F094FB83
:1023F00029680A22200003F0FCFB70BD0C000020BD
:1024000022CD0000D40B002070470000014B196062
:102410007047C0461800002037B5050000240A495F
:102420000A4B09780A4A1B7812782800009121008B
:10243000FFF712FFE8230134FF339C42EFD1054838
:1024400001F0FAFC37BDC046B1020020B202002004
:1024500008000020BC02002010B50400081C0C4934
:1024600006F0C8F806F0BCFB0A2105F0D3FC0429ED
:1024700009DC084B084A09491B78127809782000C2
:10248000FFF7F8FE10BD00231A001900F7E7C04659
:102490000000C842B1020020B20200200800002063
:1024A0001D4BF0B51C680A2385B06A465C43A30047
:1024B0000833D31A02AF9D460025786002AEA542CC
:1024C00007DAE820FF3003F0FFFFAB00F0500135E2
:1024D000F5E70025A5420DDA1048114B0078114AA6
:1024E0001B781278A900009071587868FFF7B4FE45
:1024F0000135EFE70C4801F09FFC0025A54208DA02
:10250000AB00F158002289B2074801F0C7FD013540
:10251000F4E7BD46F7BDC04618000020B102002018
:10252000B202002008000020BC020020F7B507001E
:10253000E8200524FF3003F0C7FF134B64421B68FB
:102540000A255C43241826005D432D19AE420CDA9F
:102550000E490F4B09780F4A1B781278380000910A
:102560003100FFF779FE0136F0E70B4E300001F045
:1025700063FCAC4206DAA1B20022300001F08EFD0D
:102580000134F6E7F7BDC04618000020B102002074
:10259000B202002008000020BC020020F0B587B085
:1025A0000390081C434906F025F806F019FB0023A8
:1025B00007001A0019000398FFF75CFEFC1E3E4E50
:1025C000BC4228D0251E01DCE835FF350A2229004F
:1025D000300003F00AFB3949300003F09DFA384B14
:1025E0000A21187805F0A6FA364BC6B20A211878E7
:1025F00005F0A0FAC3B20493334B0A21187805F012
:1026000099FAC0B200903300049A29000398FFF7AA
:1026100023FE0134D3E72D49300003F07DFA0A226E
:102620002100300003F0E1FA264B21001A780398CC
:1026300013000092FFF710FE2549300003F06CFAFA
:10264000231D651C0493049B9D422BD0F3232C0077
:102650005B009D4201DDE83CFF3C0A222100300086
:1026600003F0C3FA1549300003F056FA144B0A215F
:10267000187805F05FFAC3B20593124B0A21187857
:1026800005F058FA104BC7B20A21187805F052FA33
:10269000C0B20090059B3A0021000398FFF7DCFDD3
:1026A0000135D0E7300003F041FA0A4801F0C4FBDD
:1026B00007B0F0BD0080F343D40B002058CD0000DC
:1026C000B202002008000020B10200205ACD000014
:1026D0005CCD0000BC02002070B5151C0400081A77
:1026E00006F09EFA291C05F085FF051C200006F067
:1026F00097FA011C281C05F00BFC06F071FA70BD5E
:10270000F0B50500081CFC2185B0890506F0A4F889
:102710000021041C05F0D4FB002802D080231B06F6
:10272000E418211C201C05F0F3FB164B041C19783F
:10273000154B221C1878FFF7CFFF144B221C197879
:10274000134B06001878FFF7C7FF124B221C1978AD
:10275000114B07001878FFF7BFFF0024039069466C
:10276000097BFBB20091F2B221002800FFF774FD53
:10277000E8230134FF339C42F1D1084801F05CFBAF
:1027800005B0F0BDB40200200800002009000020C0
:10279000B2020020B3020020B1020020BC020020DF
:1027A000F8B52C4E04003378002B0BD0FF256A10AF
:1027B000EBB2D2B200212000013DFFF75BFD002DFE
:1027C000F5D1357002F03AFE234A244913680968AE
:1027D0000600C31A8B423BD9214B224D1F682B6840
:1027E0001060002B02D12000FFF716FE30003900E8
:1027F00005F026FA080006F05DFA061C380006F01F
:1028000059FA011C301C05F01DFD2B68061C012B1C
:1028100003D1011C2000FFF773FF2B68022B03D1AB
:10282000311C2000FFF718FE2B68032B03D1311C4D
:102830002000FFF735FE2B68042B02D12000FFF7A4
:1028400075FE2B68052B03D1311C2000FFF7A6FE77
:10285000F8BDC04610000020D4020020B8020020BD
:10286000040000200C000020E82110B5064C522383
:102870000522FF31200001F0FBFB044A044920003F
:1028800005F03CF910BDC046BC020020000000204D
:10289000793D000010B50400083000F0FDF9002378
:1028A000E3602360FA239B002000636010BD0000FA
:1028B00070B50500084C0949200003F02DF92900E6
:1028C000200003F03BF9200003F030F9290000223A
:1028D000034801F0A0F870BDD40B002070CE0000BA
:1028E000E002002037B5002301220500074C0193C8
:1028F000009282680649200000F0B9FD29002000FE
:1029000003F003F9200001F0CAF937BDE00200200E
:1029100099CD00007FB5244C24490600200003F027
:10292000FBF8234D01A8290000F030FC01A920008C
:1029300003F0EBF801A803F0D2FD1E49200003F0DC
:10294000EBF8280000F032FC1B49002800D11B499D
:10295000200003F0E1F81A49200003F0DDF8280018
:1029600000F02DFC0A220100200003F03EF9154979
:10297000200003F0D1F8280000F02AFC0E490028BE
:1029800000D10E49200003F0C7F80F49200003F0E2
:10299000C3F831000A22200003F027F90B49200078
:1029A00003F0D6F87FBDC046D40B002092CE0000C5
:1029B000E0020020B2CE000087CE00008CCE0000E6
:1029C000C2CE0000CBCE0000D9CE0000E4CE000085
:1029D00070B5104C1049200003F09EF80F4D2000F8
:1029E000290003F0B5F80E4A29000E4801F08DFBCE
:1029F000032807D00C49200003F08EF80B4802F0A2
:102A000053FDF0E70A49200003F0A2F8200003F08C
:102A10008DF870BDD40B00202ACE00002C000020C1
:102A20001C000020080400204ECE00008813000087
:102A300050CE000037B500210A480B000A00009173
:102A400002F0E8FF084D280001F000FD074C2900C6
:102A5000200000F053FB064A0649200005F04EF81E
:102A600037BDC046D8020020A4030020E0020020A9
:102A70000000002089300000F0B589B000AF0400EC
:102A800008000D00FFF746FF08231B4EF818310021
:102A900000F07CFB6B460735ED08ED005B1B9D46A7
:102AA0006D467B60300000F0D6FA002805D030007B
:102AB00000F0D8FA28700135F4E7104D08261049C7
:102AC000280003F029F828000C25796803F040F865
:102AD000B919481903F07CFDBB1959197A68A01976
:102AE00000F0B8F9BB19581903F0F9FCB81903F054
:102AF000F6FCBD4609B0F0BDE0020020D40B00207A
:102B00008ECD0000F8B51E4C1E490500200003F0D4
:102B100003F81D4F2000390003F01AF81B4E300057
:102B200000F0C1FB002804D01949200003F010F880
:102B3000F8BD184B39001A68300092B201F080F8E5
:102B4000002814D11449200002F0E6FF300000F004
:102B500048FB0A220100200003F04BF8280008304F
:102B600000F0F4F8FA20800002F09EFCFEE70B492A
:102B7000200002F0EDFF200002F0D8FFD8E7C046A9
:102B8000D40B0020A0CD000081CD0000E002002089
:102B9000CBCD000028000020DFCD000005CE0000D6
:102BA0001FB50400FFF714FF2000FFF7ABFF194922
:102BB00001A803F0DEFC01A8FFF77AFE01A803F0EC
:102BC0008EFC154901A803F0D4FC01A8FFF770FEA4
:102BD00001A803F084FC114901A803F0CAFC01A874
:102BE000FFF766FE01A803F07AFC0D4901A803F087
:102BF000C0FC01A8FFF75CFE01A803F070FC0949C6
:102C000001A803F0B6FC01A8FFF752FE01A803F0EB
:102C100066FC1FBDF9CE000000CF000007CF00000A
:102C20000DCF000014CF000030B5040085B002F0D5
:102C300005FCE3686268C31A934225D3134DE06034
:102C4000280000F030FB002809D1114801F085FA76
:102C5000032801D0FFF7BCFE2000FFF753FF280038
:102C600000F064FE011E02D02000FFF705FF0949B5
:102C700001A803F07EFC01A8FFF734FE01A803F0D1
:102C80002EFC23680133236005B030BDE002002034
:102C900008040020ECCE000010B50400FFF7C2FAD3
:102CA000200010BD7047000070B50600080007F056
:102CB000C3FD0400074D0849280002F02DFF0A2239
:102CC0002100280002F095FF30002100FFF782FB71
:102CD00070BDC046D40B00201DCF000070B50500AC
:102CE000080007F0A9FD0400094E0A49300002F06F
:102CF00013FF21000A22300002F07BFF6421642CC4
:102D000002DCE143C91721402800FFF77DFB70BDBD
:102D1000D40B00201DCF000070B50600080007F09E
:102D20008BFD0400074D0849280002F0F5FE0A2239
:102D30002100280002F05DFF30002100FFF766FB54
:102D400070BDC046D40B002061CF000070470B005F
:102D5000303BDBB2402901D93739CBB210001B011F
:102D60003038D9B2C0B2402A01D9373AD0B240186F
:102D7000C0B27047F7B50C000600184D184928007E
:102D800002F0E6FE2100280002F0E2FEA27861785F
:102D90003000FFF7DCFF22790700E1783000FFF711
:102DA000D6FFA279617901903000FFF7D0FF0400CF
:102DB000390028000A2202F036FF019928000A2271
:102DC00002F031FF210028000A2202F02CFF390016
:102DD00030002300019AFFF797FAF7BDD40B0020CB
:102DE0002DCF0000F7B50C000600184D184928003B
:102DF00002F0AEFE2100280002F0AAFEA27861785F
:102E00003000FFF7A4FF22790700E1783000FFF7D8
:102E10009EFFA279617901903000FFF798FF0400CE
:102E2000390028000A2202F0FEFE019928000A2239
:102E300002F0F9FE210028000A2202F0F4FE390017
:102E400030002300019AFFF795FAF7BDD40B00205C
:102E500047CF0000F8B50C000500224920001600FD
:102E600003F0EEFB204F002807D031002800FFF7C9
:102E700081FF380002F05AFEF8BD1C49200003F023
:102E8000DFFB002804D031002800FFF7ABFFF0E79C
:102E90001749200003F0D4FB002804D0310028009B
:102EA000FFF702FFE5E71349200003F0C9FB002804
:102EB00004D031002800FFF711FFDAE70E492000A7
:102EC00003F0BEFB002804D031002800FFF724FFE8
:102ED000CFE70A49380002F01FFE2100380002F057
:102EE0002DFEC6E7F9CE0000D40B002000CF000075
:102EF0000DCF000007CF000014CF000072CF0000FC
:102F000070B50C0002F09AFA0500241802F096FA47
:102F1000854201D88442F9D270BD10B50122FFF775
:102F2000EFFF10BD0120704770470000FA2010B578
:102F30000C00800002F0B8FA2100024803F064FDA2
:102F400010BDC046D40B0020002310B5436443607D
:102F5000994201D0FFF7E1FF10BD000070B50E00EF
:102F60000500094C0949200002F0D6FD0A22310073
:102F7000200002F054FE0649200002F0E9FD28007E
:102F80003221FFF7CAFF70BDD40B002085CF0000AF
:102F90008CCF00000022034B9A60DA601A615A61FC
:102FA0007047C046B8030020F7B50191037E0500C5
:102FB0006320002B08D0154EFF27300003F092FC51
:102FC000C0B2002801D16520FEBD300003F08AFCAC
:102FD000C0B20028F7D0300003F0C0FC04003C4031
:102FE000682C08D009DC582C0DD0632CEDD1019948
:102FF0002800FFF7B3FF6320E6E7712CFBD0762CA7
:10300000E3D1C0B2E0E700232B76F4E7D40B002035
:1030100070B50400150000290CD0012303760021AF
:103020002000FFF7C1FF632804D001212000FFF733
:1030300074FFF4E7257670BD002070477047704735
:10304000704713B56B460268D9710733546819008D
:103050000122A04716BD026D0023062A00D1836D10
:103060001800704713B56B46DC1D036801225B6ACC
:1030700021009847012801D1207816BD0120404247
:10308000FBE770470120704770B50500154BB4355C
:103090000833036004002868002803D007F012FCFE
:1030A00000232B602500A8352868002803D007F0EE
:1030B00009FC00232B602000883003F010FA200068
:1030C000643003F00CFA2000303003F008FA2000DE
:1030D000243003F004FA2000183003F000FA200036
:1030E00070BDC046A8CF000010B50400FFF7CCFFAC
:1030F000200002F0DDFC200010BD0000FA2370B5B6
:10310000002504009B0083601C4B1D4E08330360A8
:103110004560456101613100183003F02AFA200052
:103120003100243003F025FA20003100303003F064
:1031300020FA144B2000E363134B656423642300DF
:1031400048331D703100E5642565643003F011FAE1
:1031500020003100883003F00CFA2300A0339D607A
:10316000DD605D611D83DD611D6008331D76290012
:10317000200002F03AFF200070BDC046A8CF00003A
:103180007ED3000060EA00003075000010B50B6DC2
:103190000400062B04D1643103F01AFA200010BD9C
:1031A000014903F0E6F9F9E77ED30000036D062B31
:1031B00002D174300078704701204042FBE7036D74
:1031C000062B02D175300078704701204042FBE7A2
:1031D000036D062B02D17630007870470120404203
:1031E000FBE7406C70470300A03070B50400150089
:1031F0009C3318682368C01807F080FB23682800F8
:103200005B19236070BD07B56B46D9710733012286
:103210001900FFF7E8FF0EBDF8B506001C00069B7D
:1032200005009C363360002309011143A0352B6053
:10323000C9B28027FFF7E7FF7F4223007F22E4091E
:103240001340002C01D03B43DBB22A683168501C8C
:1032500028608B54002CF0D12868F8BD07B50B000E
:103260006A465BBA911D02220B80FFF7BCFF0EBDC0
:10327000F8B50F00110005001600FFF7EFFF320050
:10328000040039002800FFF7AEFF2018F8BD10B584
:10329000006903685B69984710BD10B50069036851
:1032A000DB6A984710BD10B50400FFF7F6FF002356
:1032B000984201D048342378180010BD10B5006939
:1032C00003681B69984710BD70B5040002F0B6F89A
:1032D00005002000FFF7F2FF002803D02000FFF7D1
:1032E000D6FF70BD2000FFF7D8FF002807D002F0FE
:1032F000FFF802F0A3F8034B401B9842E9D90120E4
:103300004042EEE7E703000010B5006903689B69DF
:10331000984710BD10B5036D062B02D1FFF7F4FFDF
:1033200010BD01204042FBE710B5006903685B68EF
:10333000984710BD0300F7B5BC331B680F0014009D
:10334000002B04D0FFF74FFF04002000FEBD030058
:10335000A4331B78002B02D0FFF7E6FFF4E706004A
:10336000AC3633680193D318FF2B03D98024019B1B
:103370006400E41AA83003680500002B04D1802003
:10338000400007F095FA2860019B28682200C018C9
:10339000390007F0B3FA33681B193360D5E710B56D
:1033A000030004009C33A03419682268FFF7BCFFB7
:1033B0002368181A434258410023236010BDF0B51A
:1033C000060085B002AF796095363278040000209F
:1033D000022A44D8230090331D68AB1C82420BD0D4
:1033E00098208446A444604600882B1D013080B29A
:1033F000002836D061460880180069460C30C008A5
:10340000C000091A8D4694218C46A444614602A846
:103410000978002A27D10A0096218C46A4446146E7
:103420000978002901D008210A43796800905B18C7
:1034300020000321FFF7F0FE230088331968AAB2A9
:103440002000FFF715FF3378002B05D023009833B9
:1034500019882000FFF702FF2000FFF7A0FFBD46FC
:10346000FEBD0120C6E752000A43D2B2D4E7F7B549
:1034700004001F0008AB1E7809AB1B7888301500CC
:10348000019303F0AFF86A462300127994339A70DF
:1034900000221F705E7018331A606B1C5A1E934115
:1034A0002200A43213706B1C02D101252800FEBD3E
:1034B00029002000FFF783FF051EF6D123682000B6
:1034C0009B6A9847F2E730B504000D0085B003AB66
:1034D0000022009304210223FFF79EFE2900200012
:1034E000FFF7BCFE2000FFF75AFF05B030BD30B536
:1034F00004000D0085B003AB0022009305210223D8
:10350000FFF78AFE29002000FFF7A8FE2000FFF742
:1035100046FF05B030BD030010B575331B78012B95
:1035200005D1030078331988FFF7CDFF10BD022BBA
:10353000FCD1030078331988FFF7D9FFF6E7F8B517
:10354000036D05000F001400062B02D0002420009C
:10355000F8BD03681B6998470600A04200D9260001
:103560000024A64207D02800FFF7AEFE431C02D07D
:1035700038550134F5E7002CE8D0AB6D1E1BAE6565
:10358000E5D12800FFF7C7FF2E65E0E730B585B02D
:1035900003AB0093022304000D001A000621FFF77D
:1035A0003BFE29002000FFF759FE2000FFF7F7FE41
:1035B00005B030BD30B504000D0085B003AB00226E
:1035C000009307210223FFF727FE29002000FFF7C1
:1035D00045FE2000FFF7E3FE05B030BD1FB503AB8D
:1035E0000093002304001A000C21FFF715FE2000B1
:1035F000FFF7D5FE1FBD0000F8B50400FFF75EFE23
:10360000002808D12000FFF748FE002803D123003E
:1036100048332065187020002700FFF74FFE083759
:10362000002879D02000FFF732FE0500C6B201F075
:1036300005FFF867206D07286AD804F071FA0800C2
:1036400018009800EC0018013901610161010F2395
:103650002D111D401E402200230054325533157099
:103660001E700023A3650133E365236550E07F23CB
:10367000E26D2B405343A16DD2015B188021A365FD
:10368000E26589038A4204D9236820009B6A98472F
:1036900055E02A06BFD42200543212780B2A05D8EE
:1036A000A049D140C9070CD4032A14D0062A47D117
:1036B000220055321278022AE6D1022BE4D10223ED
:1036C00053E02100553109780029DDD1022BDBD1EF
:1036D000032A07D0F3E72300062255331B78134053
:1036E0009342D1D02300220055331B787432D9097C
:1036F0001170200003215A100A4075300270012217
:10370000134022007632137021650022231DDA67F0
:10371000236D062B00D07EE7230048331B78002B57
:103720000DD001F08BFE2100B0310A68E36B821AE4
:103730009A4200D2EEE008602000FFF74FFFF8BD8C
:10374000092A07D1220055321278002A9CD1032B76
:10375000B5D099E70D2A97D1220055321278002A68
:1037600000D091E7002B00D08EE72365CDE7211D27
:10377000CB6F5A1CE3187A33CA671E70A36D9A4246
:1037800000D048E700232365230054331B78022B25
:1037900003D123007B331B7814E01A1F012A03D9BD
:1037A000FB21DA1F0A420FD1230021007A331A7855
:1037B000983101331B78098812021343994200D0D3
:1037C00029E700232366A3E7062B11D12300A433A6
:1037D0001B78002B00D01EE7230022007A337B32B7
:1037E0001B7811781B0219432000FFF7E3FE8FE7D7
:1037F000092B00D00FE7230021007A331A78983183
:1038000001331B78098812021343994200D002E762
:1038100023007C33BFE7251DEB6F5A1CE3187A3376
:10382000EA671E70022A00D0F5E6230026007A33EC
:103830001B8864365BBA9BB22367A36D3A49023B8F
:10384000A365300002F0CEFE216F300002F068FE6A
:10385000230075331978A26D236F002900D002333D
:103860009A4200D210E70023EB670433FDE6200004
:103870003100643002F0DAFE206FE36E984200D02F
:1038800046E7A36D181A2300A06575331B78002B3B
:1038900001D00523E9E6062323656369002B00D1E7
:1038A0003AE79847A36D002B00D031E70023DCE610
:1038B000211DCB6F5A1CE3187A33CA671E70022A87
:1038C00000D0A8E6A36D981E2300A0657A331A786D
:1038D00001331B781202134322007832138006232F
:1038E00023656369002B00D09847A36D002B00D09F
:1038F0000EE72000FFF70FFE6369002BD6D107E724
:10390000A36D002B01D0013BA365A36D002BCDD08F
:103910000723AAE6FA6F5B00801A984200D20EE7EE
:10392000B2E6C046B40800007ED3000010B5036DB7
:103930000400062B01D1013303652000FFF75CFE74
:10394000236D0020062B00D1A06D10BDF0B585B011
:1039500002AF0400080079603A6007F08BFD3B6815
:1039600006000025022B2CD8250098352B88013322
:103970009BB2002B28D02B8033006A461133DB0822
:10398000DB00D31A9D4602AA731D00920821022271
:103990002000FFF741FC29882000FFF75FFCB2B24E
:1039A00079682000FFF764FC39682000FFF72BFCE2
:1039B0002000FFF7F4FC051E08D1236820009B6A55
:1039C0009847BD462800FEBD0123D4E701235B4292
:1039D00023668133E36401F031FD050001F02EFD23
:1039E000236C401B984210D22000FFF756FC0028A1
:1039F0000BD02000FFF700FE236E5A1CEED00025EE
:103A00000222E3649A426D41DBE7236820009B6A4F
:103A100098470025D5E710B50968FFF797FF10BD57
:103A2000F0B58FB002AF04000E001500FB60FFF789
:103A300034FC002803D0206903689B6A9847220061
:103A400000234832236513705032138020690368C5
:103A5000002D0DD029001B6AFA689847002813D161
:103A6000022300255B4263642800BD460DB0F0BD13
:103A700010250C21674ADB69FA6172687D19BA600A
:103A80003A626918FA68E8E701F0D8FC23000833C5
:103A9000D867210010231831F81802F099FDE36A65
:103AA000BE69FB60A36BBB60002E0FD101F0C6FCAA
:103AB0000C2510360300B8191121574A401907F098
:103AC00095FCBB195919180002F08CFD2300B8337E
:103AD0001D880023FA680C35AD199A4203D01300F3
:103AE0000233ED188023BA68002A04D04022134321
:103AF000BA680232AD182200C032117802220A439D
:103B000013437B6080231020DB00BB830E23381817
:103B100004224249C01806F0F1FE22220423BA18FA
:103B200013702322FA213B79BA181370E06B8900D5
:103B300004F000F80302000A18432B006A460C3315
:103B4000DB08DB00D31A9D4602ABB8840022009349
:103B500001212B002000FFF75FFB10210C237918B7
:103B6000C9180A222000FFF73EFBB2B239692000D3
:103B7000FFF77EFB2300B8331A88002A04D0043BE9
:103B800019682000FFF72FFBFB68002B04D0BA89CF
:103B9000616A2000FFF76CFBBB68002B04D03A89F8
:103BA000216B2000FFF764FB2000FFF7F8FB051EE8
:103BB0000AD1206903689B6A984703236364102332
:103BC000F81802F08CFC4FE701235B42236601F0FA
:103BD00035FC050001F032FC236C401B98420AD2F0
:103BE0002000FFF75AFB002805D02000FFF704FD56
:103BF000236E0133EED0236E6364002B03D10125C5
:103C000048342570DBE72069002503689B6A9847E4
:103C1000D5E7C04678D3000093CF0000A1CF0000C5
:103C20001FB51300054A02924A6802A90192039245
:103C30000022FFF7F5FE05B000BDC04678D30000B6
:103C400073B516000D0004000021684601F0F0FE77
:103C500033002A0069462000FFF7E2FE76BD1FB55B
:103C600003AB0093002304001A000E21FFF7D4FADF
:103C70002000FFF794FB1FBD10B503680400DB6A4A
:103C80009847002802D02000FFF7E9FF2300002218
:103C900048331A70206903689B6A984710BD70B555
:103CA0000600A43633780400002B16D10500AC358D
:103CB0002968FFF784FB002805D1236820009B6A50
:103CC0009847002070BD2300A83319682A68200097
:103CD000FFF72AFB2B689842EFD1002333702300B3
:103CE00095331B780120002BECD0022B10D1033B25
:103CF000236601F0A3FB050001F0A0FB236C401B31
:103D000098421FD32300983319882000FFF73EFC08
:103D100001235B42236601F091FB050001F08EFB5D
:103D2000236C401B9842CCD22000FFF7B6FA002843
:103D3000C7D02000FFF760FC206E431CEED043424A
:103D40005841BFE72000FFF7A8FA0028DAD020008A
:103D5000FFF752FC236E5A1CCED0002BD2D0B0E716
:103D600007B50021034800910B000A0001F052FE44
:103D700007BDC0460004002010B50400C06806F06E
:103D8000A1FD0623E05E002802DB002101F028FDF2
:103D9000200010BD10B504000623C05E002807DB1C
:103DA000012101F01DFD0623E05E002101F064FD0C
:103DB0000123637010BD70B50500C0680E0006F0E9
:103DC00081FD2B7CEC7CE41A631E9C41033474431C
:103DD000A4B2AC80200006F06BFDE860002805D09E
:103DE0002200002106F0A6FD6E8070BDA8806880CC
:103DF000FBE70322F8B58B110D118E10164013400E
:103E000015400A40467482740026FF228A42764199
:103E1000C268C47C077CC37405740670002A0AD08B
:103E2000E21B5B1B51424A4159424B419A4202D02C
:103E30004188FFF7C0FFF8BDF8B5C3680400002B48
:103E400000D1F3E0656901F0FFFA854202D901F083
:103E5000FBFA606101F0F8FA6369C01A2C23FF33A2
:103E60009842EFD972B60622A35E1822012053436E
:103E70006F4FA688FA185268DB5D9040E268DB015C
:103E80009619511C15786B4A9F186B4A9B1822781B
:103E9000002A00D058E0803294463860C046C046C0
:103EA000C046C046C046C046C046C046C046C046E2
:103EB000C0462A4200D192E0C046C046C046C04635
:103EC000C046C046C046C046C046C046C046C046C2
:103ED000C046C046C046C046C046C046C046C046B2
:103EE000C046C046C046C046C046C046C046186030
:103EF000C046C046C046C046C046C046C046C04692
:103F0000C046C046C046C046C046C046C046C04681
:103F1000C046C046C046C046C046C046C046C04671
:103F2000C046C046C046C046C046C046C046C04661
:103F3000521000D170E0D2B2C046C046C046C04662
:103F4000C046C046C046A8E7802294463860C046B6
:103F5000C046C046C046C046C046C046C0462A42CB
:103F600021D0C046C046C046C046C046C046C04636
:103F7000C046C046C046C046C046C046C046C04611
:103F8000C046C046C046C046C0461860521020D049
:103F9000D2B2C046C046C046C046C046C046C04673
:103FA000C046C046D2E71860C046C046C046C046BC
:103FB000C046C046C046C046C046C046C046C046D1
:103FC000C046C046C046C046C046C046C046C046C1
:103FD000DCE7B14226D20D7862460131B6E71860BF
:103FE000C046C046C046C046C046C046C046C046A1
:103FF000C046C046C046C046C046C046C046C04691
:10400000C046C046C046C046C046C046C046C04680
:10401000C046C046C0466BE7B14203D20D78624647
:1040200001313AE762B601F00FFA6061F8BDC046AF
:1040300058D00000184400411444004170B5437842
:1040400004000D00002B06D00623C05E002802DB12
:10405000002101F0C5FB6378E580002B07D001212A
:10406000280001F0BDFB0021280001F005FC70BD17
:1040700070B51500002204000E0042700272C2608A
:1040800042611900FFF7B5FE31002000FFF793FEF3
:1040900029002000FFF7D2FF200070BD4388F7B54C
:1040A0008B421AD9037A150C140A002B16D1E4B2EC
:1040B000EDB20194D6B2B446047CC67CC768B44263
:1040C00018D1032359437F186A46037C1279FD54A3
:1040D000437CFA546246837CFA54F7BDFF26344091
:1040E00035405C4316405D435E43240A2D0A01942B
:1040F000360AE0E789007F18120E002B02D1D3B2F6
:10410000BB55E1E753431B0AFAE7F8B50600080080
:104110000D00170007F0AEF90400380007F0AAF907
:10412000E1B2C3B23A00280000F0FAFE0424431CB6
:1041300011D001F083F90024050001F07FF9336804
:10414000401B984207D2642001F0AEF900F02AFF2C
:1041500004000228F1D92000F8BD10B500F022FFBC
:1041600010BD10B50800110000F0C0FF10BD000028
:1041700007B5002104480B000A00009101F04AFC39
:10418000024B034A1A6007BD0C04002008040020FB
:1041900050C3000013B56B460268D97107335468E9
:1041A00019000122A04716BD7047007CFF38431E4E
:1041B0009841C0B27047000070B50E0086B0040090
:1041C00002A8150001F01EFC02AA31000848FFF702
:1041D000C8FF00280AD0074A23680492039ADB69C3
:1041E0000192059204A92A002000984706B070BDEC
:1041F0000804002078D3000070B5037C04000D0093
:104200001600FF2B02D003689B6A984700F066FBFC
:1042100002002074FF281ED068680023310000F0DF
:10422000A9F901F00BF9050023682000DB6A984723
:10423000002809D101F002F90A4B401B984203D82B
:10424000012001F031F9EFE723682000DB6A98478D
:10425000431E984170BD0449044801F079FC0020D8
:10426000F8E7C0460F270000F8CF0000D40B00206D
:1042700070B5037C04000D001600FF2B02D003680C
:104280009B6A984700F02AFB02002074FF281ED08A
:1042900068680223310000F06DF901F0CFF80500E5
:1042A00023682000DB6A9847002809D101F0C6F88E
:1042B0000A4B401B984203D8012001F0F5F8EFE7C4
:1042C00023682000DB6A9847431E984170BD04496B
:1042D000044801F03DFC0020F8E7C0460F2700002D
:1042E000F8CF0000D40B0020F7B5037C04000E00CB
:1042F0001700FF2B02D003689B6A984700F0EEFA84
:1043000005002074FF2825D0300007F0B3F8022301
:10431000C1B2019300953B000022300000F06AF921
:1043200001F08CF8050023682000DB6A984700281C
:1043300009D101F083F80A4B401B984203D80120B1
:1043400001F0B2F8EFE723682000DB6A9847431ECC
:104350009841FEBD0349044801F0FAFB0020F8E74C
:104360000F270000F8CF0000D40B002070B5050027
:10437000007CFF2804D1012300246B60200070BD65
:10438000002AF8D092B200F01FFA041EF3D0287C65
:1043900000F05AFA0028EED0F0E7000010B5017CDA
:1043A0000020FF2902D0024800F00EFD10BDC046DB
:1043B00040040020036837B51B69040098470028B3
:1043C00009D06B46DD1D217C01232A00034800F043
:1043D00037FD28783EBD01204042FBE74004002025
:1043E00010B50C001300017C2200024800F028FDEB
:1043F00010BDC0464004002010B5017C014800F00B
:104400000FFD10BD4004002007B500236A4601934C
:104410001380007C01A900F041FD6B466A461B78C1
:1044200050781B02C01880B20EBD13B500236A4637
:10443000040001931380087C01A900F02FFD01A95D
:10444000200001F0FDFA200016BD000000234360AB
:10445000FA239B008360034B08330360FF2303743C
:104460007047C0460CD0000010B5037C0020FF2B25
:1044700002D0180000F03AF910BD000070B5040039
:10448000007CFF2814D000F0FFF832252000FFF751
:10449000EBFF002806D0013D002D03D0642001F081
:1044A00003F8F3E7217C034800F074FCFF23237436
:1044B00070BDC0464004002070B5037C0400002598
:1044C000FF2B05D003681B699847A84202D001253D
:1044D000280070BD2000FFF7C7FF0A28F7D8054B5A
:1044E000C340DB07F3D5217C034800F053FCFF23D6
:1044F0002374EDE7EF0400004004002007B500211D
:10450000034800910B000A0001F084FA07BDC04681
:104510001404002007B50021034800910B000A0095
:1045200001F078FA07BDC0461C04002007B5002141
:10453000034800910B000A0001F06CFA07BDC04669
:104540002404002007B50021034800910B000A0055
:1045500001F060FA07BDC0462C04002007B5002119
:10456000034800910B000A0001F054FA07BDC04651
:10457000340400207FB50E0069468C1C23701C4B50
:10458000CD1C1B7801902A70002B01D100F0CEF9D0
:1045900000F064FA00F022FA04212D2000F0D8FB8C
:1045A000002201A8042100F0DFFA3000002100F011
:1045B000BDFB28000022012100F0D6FA01222000D4
:1045C000110000F0D1FA00F02FFA00F047FA00F0E5
:1045D00005FA0E220F2300216A446B4411701970F2
:1045E0002D20013100F0E8FA00F01EFA7FBDC04630
:1045F0003D0400207FB51D00224B06001B780C00F7
:104600000192002B01D100F091F900F027FA00F09F
:10461000E5F905212D2000F09BFB30000022210050
:1046200000F0A2FA0022042101A800F09DFA002166
:10463000280000F07BFB0022012108A800F094FA7A
:10464000012209A8110000F08FFA03262500113578
:1046500035400134002D02D000F01CFAF6E700F0DE
:10466000E3F900F0FBF900F0B9F90E220F236A44D8
:104670006B4401212D2015701D7000F09DFA00F093
:10468000D3F97FBD3D0400201FB56B46DC1D164BE2
:1046900020701B78002B01D100F048F900F0DEF902
:1046A00000F09CF901212E2000F052FB0122200095
:1046B000110000F059FA00F0EDF900F0EBF900F00C
:1046C000B3F900F0CBF900F089F90E220F23002195
:1046D0006A446B44117019702E20013100F06CFA9D
:1046E00000F0A2F91FBDC0463D0400201FB56B4677
:1046F000DC1D174B20701B78002B01D100F016F940
:1047000000F0ACF900F06AF901212F2000F020FB45
:1047100001222000110000F027FA0E2400F0BAF95F
:1047200000F0B8F900F080F900F098F900F056F9BF
:104730000F2300226C446B441A7022700121220066
:104740002F2000F039FA00F06FF9207804B010BD86
:104750003D04002073B56B46DD1D0E00140028706B
:1047600000F009FB002801D1208076BD154B1B7895
:10477000002B01D100F0DAF800F070F900F02EF90A
:104780000221452000F0E4FA00220121280000F077
:10479000B8FA01220221200000F0B3FA00F07AF901
:1047A00000F042F900F05AF900F018F92200310047
:1047B000452000F074FA00F037F92088431E984134
:1047C000C0B2D2E73D0400207FB56B46DD1D1D4B16
:1047D0000E001B7814002870002B01D100F0A6F801
:1047E00000F03CF900F0FAF80221442000F0B0FAA1
:1047F00000220121280000F084FA3000012221006B
:1048000000F07FFA03262500093535400134002DDC
:1048100002D000F03FF9F6E70E2400F005F900F0B1
:104820001DF900F0DBF80D226C446A44210044209D
:104830001570258000F0F4F900F0F6F8208804B037
:1048400070BDC0463D040020F0B50E2585B06B4616
:10485000002401262A276D44D8712C70DC731E4B6E
:104860001B78002B01D100F061F800F0F7F800F0A0
:10487000B5F83100380000F06BFA6B4632003100B9
:10488000D81D00F071F900F005F900F003F900F00F
:10489000CBF800F0E3F800F0A1F80F232A006B44F6
:1048A0003100380000F088F900F0BEF82B78002BBA
:1048B0000FD101346420A4B200F0F6FD2B78002B58
:1048C00001D1182CCBD9193C601E8441E0B205B04F
:1048D000F0BD0024F2E7C0463D040020124B13B5A2
:1048E0001B78002B01D100F021F800F0B7F800F0A0
:1048F00075F800213F2000F02BFA00F095F800F049
:10490000ADF800F06BF86B469C1DFF2323706B46DF
:10491000002207331A70012122003F2000F04CF9D9
:1049200000F082F8207816BD3D040020F8B5182369
:10493000234E244F3370244C04333B70013B2370CF
:1049400000F0AEFC214D1A2804D801232B702378E7
:10495000DB4323701E4800F011FC3078012100F089
:104960003FFF3878002100F03BFF2078012100F064
:1049700037FF01211A2000F033FF01211A2000F037
:104980007BFF3078012100F077FF2978207800F054
:1049900073FF0A2000F088FD2978012520786940FE
:1049A00000F06AFF0B4800F07FFD00211A2000F0A4
:1049B00063FF00211A2000F013FF074B1D70F8BDA4
:1049C0003C0000203A0000203B0000203C04002076
:1049D000DC040020EE0200003D04002013B500249A
:1049E0006B465C711C71019A0B490C4800F0EEFBA0
:1049F0000B4B2100187800F03FFF00F01FFD040072
:104A0000084B187800F064FF012804D000F016FD70
:104A1000001B0428F4D913BD00127A00DC04002026
:104A20003C0000203A00002010B5044B012118780A
:104A300000F022FF024800F0E5FB10BD3C00002022
:104A4000DC04002007B56B46D871D9790248C9B299
:104A500000F0ECFB0EBDC046DC04002010B5034B9B
:104A6000187800F035FF0028F9D110BD3A00002079
:104A700010B50400FF20FFF7E5FF207010BD70B5F2
:104A80000C0005000800FFF7F3FF2078401B4342AD
:104A9000584170BD13B56B46DC1D00232000237008
:104AA000FFF7E6FF207816BD70B50500084CFFF74C
:104AB000F1FFEF2808D0013C002C01D0A842F6D12C
:104AC000401B4342584170BD01204042FBE7C046B5
:104AD000E9030000F0B587B004ABDE1D002305003C
:104AE000E020039114003370FFF7DEFF002802D1AD
:104AF000002007B0F0BD3000FFF7BAFF8022337806
:104B00001543AB42F4D1FFF7C5FF01900028EFD069
:104B100005234343E3180293029B9C421AD0FF20D3
:104B2000FFF790FF002720702378BB4210DDA378A9
:104B300065781B022B43E578FF202D042B43257954
:104B40002D061D43FFF77EFFED1928700137EBE7B7
:104B50000534E1E7019B039A9342C9D13100EE206D
:104B6000FFF78DFF0120C4E7F8B5050008000E002F
:104B700017002C00FFF766FF631B9E4204DD2078C0
:104B8000FFF760FF0134F7E7012F02D1EE20FFF7B6
:104B900059FFF8BD10B50400000AFFF753FFE0B25B
:104BA000FFF750FF10BD10B50400FF20FFF74AFFCC
:104BB000002C00D0207010BDF0B585B01F0002ABF6
:104BC000DC1D00230500E020019116002370FFF793
:104BD0006BFF002802D1002005B0F0BD2000FFF7D8
:104BE00047FF802223781543AB42F4D12000FFF722
:104BF0003FFF2378019A9342EDD13800FFF7D3FFAE
:104C000035003A78AB1B9A4204DD2800FFF730FFED
:104C10000135F6E72100EE20FFF731FF0120DBE749
:104C2000F7B56B46DC1D00230500E0200E001700E1
:104C30002370FFF739FF002801D10020FEBD2000BE
:104C4000FFF716FF802223781543AB42F5D1FFF71B
:104C500021FF00280DD03800FFF7A5FF35003A7876
:104C6000AB1B9A4205DDFF20FFF7ECFE28700135F3
:104C7000F5E72100EE20FFF702FF0120DEE770B527
:104C80000500FF20FFF7DEFE0400FF20FFF7DAFE3D
:104C90002402204380B2002D00D0288070BDF0B5E2
:104CA000002485B002AB0700DD1DE0200191160055
:104CB0002C70FFF7F9FEA04202D1002005B0F0BD34
:104CC0002800FFF7D5FE80222B781743BB42F4D192
:104CD000FFF7E0FE00280ED03000FFF7D0FF33884A
:104CE000A34208D9019BFF201F19FFF7ABFE013437
:104CF0003870A4B2F3E72900EE20FFF7C0FE0120D0
:104D0000DCE770B504000D0008001600FFF742FF55
:104D10006519AC4204D02078FFF794FE0134F8E71F
:104D2000012E02D1EE20FFF78DFE70BD70B504009C
:104D300002200D00FFF786FE200AFFF783FEE0B297
:104D4000FFF780FE012D02D1EE20FFF77BFE70BD44
:104D500070B50400E0200D00FFF774FE7F202040B6
:104D6000FFF770FE2800FFF76DFE002D02D1EE2048
:104D7000FFF768FE70BD10B51A2000F0A9FD431EB4
:104D8000984110BD10B504007822002105F0D2FD35
:104D9000200010BD10B50C244C43041920680028D5
:104DA00005D005F08FFD002363602360A36010BD74
:104DB00070B505000024210028000134FFF7EAFF48
:104DC0000A2CF8D1280070BDF7B50C244C43041907
:104DD000A36805000E00002B1AD12768002F05D10B
:104DE0000E4805F065FDA760606020606B469F1D62
:104DF0000A4BF0B23A0021683B80FFF7ABFC002879
:104E000006D023683A8863600C237343EB189A60DA
:104E10000C235E43AD19A868FEBDC046DC0500004A
:104E200070B504000D00FFF7CFFF002805D00C215E
:104E3000694364186368187870BD01204042FBE73D
:104E4000F8B506000C0017001D00FFF7BDFF002895
:104E500011D0854200DD05000C235C4334192A0083
:104E60006168380005F04AFD280063685B196360DB
:104E7000A3685B1BA360F8BD10B5054C2000FFF7CD
:104E800081FF044A0449200002F038FE10BDC046EC
:104E90004004002000000020B14D000070B586B035
:104EA0006B46DE1D0C00150030700622002103A8A1
:104EB00005F040FD0D23220A6B441C705A70220C31
:104EC000240E9A70DC7012236B441D802D0C5D80C3
:104ED000124B1B78002B01D1FFF728FDFFF7BEFD19
:104EE000FFF77CFD01213A20FFF732FF012230005D
:104EF0001100FFF739FEFFF7CDFDFFF7CBFDFFF700
:104F000093FDFFF7ABFDFFF769FD03AA02213A20ED
:104F1000FFF7E0FDFFF788FD06B070BD3D040020FF
:104F2000F7B51D001E4B07001B780C001600002B68
:104F300001D1FFF7FBFCFFF791FDFFF74FFD0221C9
:104F40001120FFF705FF210000223800FFF70CFEBB
:104F5000300001222900FFF707FE032606346419FA
:104F60002500354003D0FFF795FD0134F8E7FFF742
:104F70005BFDFFF773FDFFF731FD6B469C1D2200C3
:104F800007330121112025701D70FFF715FE002841
:104F900001D1FF232370FFF747FD00202056FEBDFF
:104FA0003D040020124B13B51B78002B01D1FFF7F5
:104FB000BDFCFFF753FDFFF711FD00212020FFF797
:104FC000C7FEFFF731FDFFF749FDFFF707FD6B4611
:104FD0009C1DFF2323706B46002207331A700121AA
:104FE00022002020FFF7E8FDFFF71EFD207816BD08
:104FF0003D0400201F4B73B51B780400002B01D12A
:10500000FFF794FCFFF72AFDFFF7E8FC01213420AD
:10501000FFF79EFE200006F02DFA0122C1B220000B
:10502000FFF7A2FD200006F025FA0325441D260007
:105030002E4003D0FFF72EFD0134F8E7FFF7F4FC14
:10504000FFF70CFDFFF7CAFC6B469D1D9E712A0001
:105050000733012134201E70FFF7AEFDC4B2FFF705
:10506000E3FC002C04D02C78013C60424441E4B2C3
:10507000200076BD3D040020FF2130B587B00B0035
:10508000050000910A0004A800F0C4FC164B1B7830
:10509000002B01D1FFF74AFCFFF7E0FCFFF79EFC75
:1050A00000213520FFF754FEFFF7BEFCFFF7D6FCCA
:1050B000FFF794FC0B2300226B441A70012103AA12
:1050C0003520FFF779FD041E08D003A9280000F061
:1050D000C3FC059B6C68E41A631E9C41FFF7A4FCAB
:1050E000200007B030BDC0463D04002010B50C00C4
:1050F000FFF780FF03000020834202D02000FFF76B
:10510000BBFF10BD07B50021034800910B000A004A
:1051100000F080FC07BDC046B8040020037D002BD2
:1051200004D14375837583610133037570477FB57F
:10513000C36802AD04000E0002916A608B4203D185
:10514000028AAB889A4218D02000062229000C302F
:1051500005F0D4FB206800F082FE6B79227AE179B9
:1051600000932068002300F01BFF2068297932009B
:1051700000F046FE206800F068FE7FBD70B518267E
:105180000400FFF7CBFF3300082120790D4D434386
:10519000EB18595600F0B4FB33000821A0794343C3
:1051A000EB18595600F0ACFB082160794643AD1965
:1051B000695600F0A5FB044B200006CBFFF7B7FFB4
:1051C00070BDC04658D00000F804002007B5437DEC
:1051D00000910192002B07D09A070AD5EFF31083B4
:1051E0005A425341837572B60099019AFFF79FFFA7
:1051F00007BDDB07F8D58369014A9BB29360F3E7EB
:1052000000180040437D002B05D09A0704D5837D0C
:10521000002B00D062B67047DB07FCD58369024AD9
:105220009BB2D360F7E7C0460018004010B5006895
:1052300000F01EFE10BD0000114A124B124913600F
:10524000002353711371114A11601149D360918089
:105250000D2191710A39537413741375D37111723E
:105260000C4AD3605374137413750B4BD1711360D4
:105270000A4B938019239371183B13727047C046F1
:10528000F804002000093D00B80B0020C0040020F5
:105290000C0B0000DC040020BC0B002017160000E3
:1052A0002120704710B501211A2000F099FA012140
:1052B0001A2000F0E1FA01211B2000F091FA0021F0
:1052C0001B2000F0D9FA10BD10B5024801F015F806
:1052D00010BDC0460005002010B5024801F00DF8D1
:1052E00010BDC0463C07002010B5024801F005F88B
:1052F00010BDC04678090020F0B51F4985B01F4891
:1053000000F0F4FC1E491F4800F0F0FC1E4D1F4940
:10531000280000F0EBFC1E4E1E49300000F0E6FCB9
:105320001D491E4800F0E2FC1D4F1E49380000F0E8
:10533000DDFC0124032339000093019423000022A3
:10534000194800F06FFF00233100019300941D33D2
:105350001E22164800F066FF19230393013B0293B7
:10536000163B01930094143317222900104800F0D3
:1053700015FF05B0F0BDC04600080042B40B002088
:10538000000C0042B80B0020BC0B002000100042B3
:10539000C00B00200014004200180042C40B002083
:1053A000C80B0020001C0042000500203C07002024
:1053B00078090020FEE70000034B10B51B68002BA6
:1053C00000D0984710BDC046CC0B002070B50F49E7
:1053D0000F4CA14204D100F08FF800F045FBFEE72E
:1053E0000C4D00238D42F6D0CA18E818A24205D30E
:1053F000094B8242EFD00949002204E000680433DF
:105400001060F1E704C38B42FCD3E4E70000002006
:105410007402002064D800007402002008120020EA
:1054200010B500F066F8002801D100F057F810BD63
:10543000014B18607047C046CC0B0020014B186828
:105440007047C046D00B0020F7B5134801228446B0
:105450001249134C8E68636805689B0E13400192D5
:1054600088686268019F920E3A4067463F6893429F
:105470000ED1BD420CD186420AD35B19FA25486889
:10548000AD00861B07486B437043000DC018FEBD7E
:105490003D0013000600E3E7D00B002010E000E021
:1054A00000ED00E05555000070B5041E10D0FFF768
:1054B000CBFF050000F01CF8FFF7C6FF054B401BB3
:1054C0009842F7D9FA23013C9B00ED18002CF3D148
:1054D00070BDC046E70300007047000010B5034AE6
:1054E00013680133136000F0C5FB10BDD00B002022
:1054F00070470020704700001E22F0B55048514907
:105500004368514D93431A00022313434360082319
:105510008A691343FE228B612B68D2039B021340DE
:105520004A4A13434A4A936113000422DC68144236
:10553000FCD00124474A14701678264203D05678CE
:1055400076B2002EF8DB01249460547864B2002C0B
:10555000FBDB414C5460547864B2002CFBDB8224AA
:10556000E4015480547864B2002CFBDB02249C8458
:105570000E34DE682642FCD0384CDC621024DE6833
:105580002642FCD02C68A40E3F2C00D1203C9E6A01
:10559000334FA4023E4034439C629C6A314EA40ABD
:1055A000A40234439C62304CDC6200249C8410349E
:1055B000DE682642FCD02D4C9C841024DE682642F6
:1055C000FCD002249E8C34439C841024DE68264246
:1055D000FCD000249460547864B2002CFBDB244C93
:1055E0005460547864B2002CFBDB1C6A214E3440BA
:1055F00080261C621C6AB4431C62032393601E4B0A
:10560000536053785BB2002BFBDB0023FF240B724B
:105610001A4A4B728B72CB72194B1A60194A2B685B
:1056200011689A065B01C90E2340520F12020B4308
:105630001343154A13858023426813434360F0BD2A
:105640000040004100040040246080000606000085
:1056500000080040000C004001040100B905FF7D76
:10566000FF03FFFFFF01000080BB0A1C24050000B0
:1056700000070300FFFCFFFF03060100006CDC02D3
:10568000400000202060800000400042FA21314BA1
:1056900010B51868890002F04DFA2F4B0138984276
:1056A00056D82E492E4A4860C020136A00061B02B5
:1056B0001B0A03431362002407238C600B608021C4
:1056C000136A09061B021B0A0B431362FC22254BBB
:1056D000196A0A431A62FC22196A92010A431A6281
:1056E000A022196AD2020A431A6220000021013462
:1056F00000F076F81F2CF8D11B4B1C005A7852B2E0
:10570000002AFBDB194A5A80194B1A00597EC90935
:105710000129FBD0E421C90099803F21D970537E33
:10572000DB09012BFBD0C02300205B0113619070CB
:1057300000F024F863785BB2002BFBDB0D4B0E4AC4
:105740006380D379DB09012BFBD04123537010BD5B
:10575000FEE7C04640000020FFFFFF0010E000E031
:1057600000ED00E000040040000C00401E4000007E
:10577000004000422140000000480042164A00B5A7
:105780001300517EC9090129FBD00138042816D81D
:105790001969124A0A400F211A615A788A4302F0A5
:1057A000B5F90308060B0300110001220A435A70E1
:1057B00000BD11000322F9E711000222F6E7F023F1
:1057C00011691B050B430F21136153788B4319009B
:1057D00002230B435370EBE700400042FFFFFFF052
:1057E000182330B51D00040045430820204A5519F0
:1057F0002856013014D0032912D808006343D1562B
:10580000D31802F083F902280E1B5868CB0102213D
:10581000184A9B181A1840321170012282405A60AF
:1058200030BD5868CB010621124A9B181A18403225
:105830001170012282405A609A61F1E75868CB01E9
:1058400006210C4A9B181A1840321170012282401E
:105850005A605A61E4E75868CB010221054A9B1857
:105860001A1840321170012282409A60D8E7C0466F
:1058700058D00000004400411823F0B508245843D4
:10588000114A13181C5701341BD0012635005F68DC
:105890008356BD400D4ADB019A18906805420BD132
:1058A0000C00601E8441D219403210783440033617
:1058B000A400B04320431070044A9B18002901D172
:1058C0005D61F0BD9D61FCE758D0000000440041DF
:1058D000182310B50824434307490020CA18145759
:1058E000013408D05B560549DB015B18186A536820
:1058F000D8400123184010BD58D00000004400419A
:1059000018224243F8B52C4E0300B218127A52B254
:10591000140001320ED0481C00240C280AD802F0D2
:10592000F5F8071F1F1F1F1F1F1F1F0B0B0B0B005F
:10593000012464422000F8BD092905D10021180086
:10594000FFF74EFF0024F5E70A2901D10839F6E7F1
:1059500000240B29EED10A391800FFF741FFE9E7CF
:1059600018225343F218556801202C00F356134AAD
:10597000DB016E089B18C9B204409E19002C0DD0A3
:105980000F2430363278090122401143C9B25B1925
:10599000317040331A7810431870D3E732000F2764
:1059A000303216785B19BE433143117040331A7898
:1059B00010431870BEE7C04658D0000000440041B4
:1059C000F7B5C31D0193002306000D00041D0093CD
:1059D00021780A22280000F022F92E210700280051
:1059E00000F09EF8009B3F18DB190093019B0134E7
:1059F0009C42EDD1F17928000A2200F010F9009BB9
:105A00001818FEBD024B0833036000234360704743
:105A100070D3000030B503AC2578044CC571083450
:105A2000046001714271837130BDC04670D30000C3
:105A3000024B4160083303607047C04670D30000DA
:105A400010B50400034B0422083308C004F056FFCD
:105A5000200010BD70D3000010B5040004220430F3
:105A600004F04CFF200010BD10B5FFF70FFE04F04E
:105A7000F7FEFFF717FC0120FFF716FD084C20008A
:105A800001F0D6FA200001F081FBFCF737FBFCF7B0
:105A9000A3FB044B002BFAD000E000BFF7E7C046A1
:105AA0003C0C00200000000010B504F001FF10BD08
:105AB00010B504F007FF10BDF7B506000D000C008F
:105AC0008B180193019B671B9C4207D03368217898
:105AD0001B683000984701340028F3D13800FEBD20
:105AE00070B5040008000D0005F0C4FC2368020036
:105AF00029005B682000984770BD10B50B1E02D0CE
:105B0000FFF7EEFF0300180010BD10B503688A68A8
:105B10005B680968984710BD10B5FFF7EEFF10BD30
:105B200010B503681B68984710BD000010B5024906
:105B3000FFF7D6FF10BDC0467CD3000070B505004E
:105B4000FFF7E3FF04002800FFF7F0FF201870BD07
:105B500070B50400FFF7D1FF05002000FFF7E6FF56
:105B6000401970BDF0B58BB06B46150000220533AF
:105B70000600DA770800012D00D80A2509AC2900B3
:105B800002F05EF8CAB2130037330700DBB209290E
:105B900002D813003033DBB2013C2370002FEED16A
:105BA00021003000FFF7A9FF0BB0F0BDF8B50600EB
:105BB0000C00151E04D10368C9B21B689847F8BDD4
:105BC0000A2A0CD100290BDA2D21FFF7A9FF614227
:105BD00007002A003000FFF7C5FF3818EFE7D2B200
:105BE00021003000FFF7BEFFE9E710B5FFF7DEFF49
:105BF00010BD70B50400FFF7D9FF05002000FFF7C6
:105C000095FF401970BD10B5002A04D10368C9B2D0
:105C10001B68984710BDD2B2FFF7A4FFFAE710B592
:105C2000FFF7F1FF10BD70B50400FFF7ECFF0500B2
:105C30002000FFF77BFF401970BD70B50400FFF72F
:105C4000E2FF05002000FFF771FF401970BD000062
:105C500010B50400FFF740FC014B1C6010BDC046AE
:105C6000440000200122024B52421A607047C04695
:105C700044000020164A10B51368591C26D0013B79
:105C80001360002B22D172B6124B134A0433934295
:105C900013D9124A01211000147D0C42FCD020219E
:105CA000148BFF319B085B0021431183D3610C4BA4
:105CB00013800123027D1A42FCD0BFF34F8F094BA2
:105CC000094ADA60BFF34F8FC046FDE710BDC046FA
:105CD00044000020002000000302000000400041BA
:105CE00002A5FFFF00ED00E00400FA050160704727
:105CF0009446F0B59E1E721E964162460568920754
:105D00002F6836063A4332432A60072505AC2478CB
:105D10000068A4012940214342680024022B00D0DE
:105D20005C03114321434160F0BD30B5C0250368D9
:105D3000AD031C6812052A402243C0240904A402B2
:105D400021401143196003685A6814435C6030BDF8
:105D50000123026811680B43136003681A68D207B5
:105D6000FCD4DA69D207F9D47047022302681168BB
:105D70000B4313600268D3699B07FCD47047036828
:105D80001A7ED20702D41A7E9207FCD570470022F1
:105D900003685A8370470368187E4007C00F704736
:105DA0000368187EC0097047802302685B42117E39
:105DB0000B43137670470368588B8007C00F7047FA
:105DC00002230268518B0B43538370470368187E8C
:105DD000C007C00F70470368188DC0B270470368D2
:105DE0001A7ED207FCD589B201201985704701229D
:105DF00003689A757047012203681A75704700009E
:105E000070B5012604684B08334031402568090706
:105E10005B070B432B43236004685100034801F0E8
:105E200089FE0138C0B2207370BDC046006CDC0230
:105E30000123026811680B43136003681A68D207D4
:105E4000FCD4DA69D207F9D47047022302681168DA
:105E50000B4313600268D3699B07FCD47047036847
:105E6000DA699207FCD402211A688A431A607047E3
:105E70000268936A5B0A5B021943916203681A7EA7
:105E80005207FCD5986AC0B2704700000368214AE7
:105E900030B593422FD0204A93422FD01F4A9342CD
:105EA0002FD01F4A93422FD01E4A93422FD01E4A12
:105EB00093421FD10E2319220121032599401B482B
:105EC000C024016099082B40AB40FC359D408900FF
:105ED0000918A4000859A843C0259D402B0003437E
:105EE0000B518023DB011A43114B5A805A7852B26E
:105EF000002AFBDB30BD09231422DDE70A2315222B
:105F0000DAE70B231622D7E70C231722D4E70D2359
:105F10001822D1E700080042000C004200100042A5
:105F20000014004200180042001C004200E100E0A2
:105F3000000C0040F8B504000F0016001D00FFF72C
:105F4000A5FF2000FFF704FF1C21BB000B407107D9
:105F50002268090C0B431360842322689375012F78
:105F60001AD11021012E00D008390C4B6943186852
:105F7000C00001F0DFFD0722216802408B89520337
:105F8000DB04DB0C13438B81226803049089DB0C58
:105F9000400B400318439081F8BDC04640000020EC
:105FA000F7B50600019308AB1F780D001400FFF74A
:105FB0003FFF3000FFF76AFFC02224059203144020
:105FC000BA070C2717433C43C0270722BF022D0402
:105FD00033683D4025431D60019B316813401A0022
:105FE00080239B0213434B60F7BD81607047012003
:105FF0007047000010B50368014A1B6A984710BD3E
:10600000130400000300FC33D9699A69914203D05C
:10601000DB69C018007D704701204042FBE710B5E6
:1060200004000069FFF794FE22000023FC32936114
:10603000D36186229200A4186360A36010BDF02093
:1060400001403039484248417047F0231B01194054
:10605000802306209B0099420AD00133FF33013090
:10606000994205D0802302385B00994200D000207D
:1060700070470F2001400020012903D00239481E3B
:106080008141481C704700008923F0B5182685B06F
:1060900002919B000400C05C330008214343324D51
:1060A0001700EB185956FFF72BFC304B0821E05C2A
:1060B00033004343EB185956FFF722FC2C4BE25CAC
:1060C0000393022A09D11133E05CFF2805D008218F
:1060D0004643AE197156FFF713FC8A26B600A05D41
:1060E000FF2819D00121FFF77BFB1822A35D21496E
:1060F0005A43AB56AD18DB0158188B21890060500C
:106100001D4901225B188C218900635069688A400F
:106110008D21890062501A600122029B11002069C2
:10612000FFF708FF39002000FFF78FFF3900050057
:106130002000FFF79EFF390006002000FFF77FFFD9
:1061400033000090290020690122FFF7D1FD0B4B9D
:106150002069E25C039BE15CFFF7E7FD2069FFF744
:1061600004FE05B0F0BDC04658D000002502000076
:106170002702000018440041144400412602000098
:10618000802210B504005200002104F0D3FB23004C
:106190000022FC335A6020009A6010BDF0B585B033
:1061A0001D000AAB1B78040000930BAB1B78160094
:1061B00001930CAB1B780F0002930DAB1B7803937C
:1061C00000234360FA239B008360124B0833036073
:1061D0001430FFF7D5FF20001D30FF30FFF7D0FF50
:1061E00089236A469B002761E6540B4B1278E554DD
:1061F0000A4B2000E2546A46094B1279E2546A467F
:10620000127A0133E2546A46127B1033E25405B02D
:10621000F0BDC04680D30000250200002602000029
:1062200027020000F7B51D0008AB1B78040000939F
:1062300009AB1B781600019300234360FA239B00EF
:106240008360114B0F00083303601430FFF798FF91
:1062500020001D30FF30FFF793FF89236A469B0023
:106260002761E654094B1278E554094B2000E254AB
:106270006A46084B1279E2548A22293BFF3B92007E
:10628000A3541032A354FEBD80D3000025020000A9
:1062900026020000270200000300FC3358689B68B8
:1062A000C01A01D50130FF30704710B5040020003E
:1062B0001D30FF30FFF7F0FF0028F8D12069FFF70D
:1062C0005EFD10BD10B51430FFF7E6FF10BD0300F2
:1062D000FC3359689A68914204DB5A689868801ABE
:1062E000FF30704798685B68C01A0138F9E710B54D
:1062F0001D30FF30FFF7EBFF10BD10B50400006943
:10630000FFF759FD002805D02069FFF764FD2069DB
:10631000FFF756FD2069FFF73EFD002820D02069D9
:10632000FFF759FD2200FC329369D1690133DBB2DA
:106330008B4203D091696118087593618A239B0091
:10634000E35CFF2B0CD020001430FFF7C0FF0928BE
:1063500006DC8B238D229B009200E358A2581A6022
:106360002069FFF733FD00281AD020001D30FF30D0
:10637000FFF792FF002822D086239B00E31899683C
:106380005A68914218D08E219A684900A218515C2F
:106390009A680132D2B29A60C9B22069FFF71FFD34
:1063A0002069FFF7FDFC002805D02069FFF7FCFC01
:1063B0002069FFF7ECFC10BD01214942ECE72069A0
:1063C000FFF719FDECE7000070B5040000690D004F
:1063D000FFF7FCFC00283ED1FF2686239B00E31834
:1063E0005A689968013232408A4223D1EFF3108310
:1063F000DB0710D41E4B5B68DB05DB0DEDD0103BDB
:106400005BB2002B10DA0F221340083B9B08194A9D
:106410009B009B181B682069FFF7D8FC0028DCD084
:106420002000FFF76AFFD8E79B08C033124A9B00A1
:106430009B58F0E75A68013216409A68964205D098
:106440008E215A684900A21855545E602069FFF7F2
:10645000CEFC012070BD20001D30FF30FFF71CFF77
:106460000028B9D129002069FFF7B9FCF1E7C0463F
:1064700000ED00E01CED00E000E100E0030070B57D
:10648000FC33D9699A69040091421AD0DA698218FA
:10649000157DDA690132D2B2DA618A239B00E35CAE
:1064A000FF2B0CD020001430FFF711FF0A2806DD67
:1064B0008C238D229B009200E358A2581A6028007A
:1064C00070BD01256D42E8E710B5041E05D004F04B
:1064D0003FFF210001F09EFC0C00200010BD10B514
:1064E00004000068002801D004F0ECF9200010BD81
:1064F00010B504000068002801D004F0E3F900237F
:106500002360A360636010BD70B504000D000068D7
:10651000013104F04FFF031E01D0012028C470BDDB
:10652000036810B50400002B04D043688B4201D3EC
:10653000012010BD2000FFF7E7FF0028F9D0A36875
:10654000002BF5D122681370F2E770B50E00110030
:1065500004001500FFF7E4FF002804D12000FFF736
:10656000C7FF200070BDA5603100206804F07AFFED
:10657000F7E7002370B504000D00036043608360FB
:10658000994207D0080004F075FF2900020020009E
:10659000FFF7DBFF200070BD70B5050008000C00A0
:1065A00004F068FF210002002800FFF7CEFF70BD55
:1065B00010B50B000400884205D00968002904D0FA
:1065C0009A68FFF7C2FF200010BDFFF791FFFAE7BE
:1065D000002310B50400036043608360FFF7E8FF09
:1065E000200010BD10B50400002903D0FFF7D4FF30
:1065F000200010BDFFF77CFFFAE7F8B504000F1E7E
:1066000002D100263000F8BD0126002AFAD08368A6
:10661000D5182900FFF784FF0028F2D02368A2686C
:106620003900981804F01EFFA560EBE707B50022BB
:1066300001AB19705A7019000132FFF7DEFF0EBD71
:10664000836810B5002B07D10120002903D00878FA
:1066500043425841C0B210BD0068002901D1007802
:10666000F6E704F0F5FEF3E70020704770B50F265B
:10667000CB1D013902003240D5B22C000009303464
:10668000092A00DD07341C70013B8B42F2D170BD3A
:1066900010B50C000B4B1868FFF7E8FF21000A4B00
:1066A00008311868FFF7E2FF2100084B1031186825
:1066B000FFF7DCFF2100064B18311868FFF7D6FF03
:1066C000202010BD0CA0800040A0800044A08000CD
:1066D00048A0800008B4024B9C46103808BC6047B4
:1066E0009166000070473F20704713B56B46026803
:1066F000D9710733546819000122A04716BD000064
:1067000070B50A260B7892B06E44023305000B7008
:106710003C220021300004F00DF9394801AC06900C
:10672000384824210790062020776846364AA1740D
:106730002281364A364BA281FD3AFF3A8018C17752
:10674000684623390630C17768460730C17702A80A
:10675000C1770720F277032608316944C87703A977
:10676000CE7710212B366E443170092621851F31DA
:1067700069440E700CA9053E0E703321238002235C
:1067800069440B7006360DA90E7022493536A18674
:106790003B216E44307010A86274E27702703D3283
:1067A00069446A440B70137040210022E370237126
:1067B0006371A37341336B44218719705A702B7D29
:1067C000C039A370A37263770133DBB2A3776A7D0C
:1067D0000B200D0068441543C577312068440370D1
:1067E0003A23501C6B441870412302320A436B4415
:1067F0001A7021004222084800F05CFF12B070BD00
:10680000100104240206052409040000010200000E
:10681000080B0000070500003C0C002008B4024BE8
:106820009C46103808BC60470167000070B5027DC7
:106830000B790C0000259A420BD10B784E78A12BD6
:1068400009D1212E05D107221F49204800F032FF2F
:106850000135280070BD212BFBD1202E2BD1072222
:1068600019491A4800F068FE174B1A78597809023E
:1068700011439A7812041143DA7812060A439621DA
:10688000C9008A421DD1DB79DB071AD4FA20FFF751
:10689000DFF900210D4801F019F80125232ED8D188
:1068A000E378A2781B021343094A002107481360CA
:1068B00001F00CF8CDE7222EEFD18A78024BDA7185
:1068C000D2E7FFF7CFF9E4E74C0000203C0C0020B2
:1068D0004800002008B4024B9C46103808BC6047B2
:1068E0002D68000010B5417D006A013100F05CFDAB
:1068F000034B1B6801335A1E9341181810BDC04644
:106900005400002010B5417D006A023100F062FDA4
:1069100010BD10B5417D006A023100F029FD10BDA7
:1069200070B50D00417D0400130002312A00006A99
:1069300000F016FE002801D10123636070BD000045
:1069400010B5054C23685A1C04D103685B6998474D
:1069500003002060180010BD54000020074A030007
:10696000106810B5411C03D001235B42136010BDB9
:10697000597D186A013100F0A3FDF8E754000020AA
:106980007047002070470000FA239B0010B5836019
:106990000F4B0022C3820300283383610D4B040098
:1069A0004260C2611800443323610830631D2162D4
:1069B0002060DA778323A362813BE3628033236321
:1069C00000F0AEF82100103100F07EF8200010BD7C
:1069D00003020000B4D30000022110B5094B1A686D
:1069E000437D5B01D318FF339C7A21439972437D29
:1069F0000133DBB25B01D3180122FF33997A0A43DA
:106A00009A7210BDF41000207047000010B50249C2
:106A10000248FFF7B9FF10BD3C0C0020D40B00204A
:106A200070B50E0000254468002C0BD0236831009F
:106A30005B6820009847002802DB2D18E468F3E724
:106A400001256D42280070BD70B50D004468002C12
:106A500008D0236829009B6820009847002802D1AD
:106A6000E468F4E7200070BD70B50D0000264468AE
:106A7000002C09D02368290020001B69984736188C
:106A80002D18F6B2E468F3E730002C7070BD70B5D5
:106A90000D004468002C08D0236829001B682000E2
:106AA0009847002802D1E468F4E7200070BD70B573
:106AB0000D004468002C06D023682000DB68290004
:106AC0009847E468F6E770BDF0B58C794578030027
:106AD0002A190020072A1FDC5A68824216D1596001
:106AE0001A78C8790A7112184D711A7000220B4D6C
:106AF000D0B284420FD98F6858789600F759860033
:106B00000130775101325870F2E70200D068002856
:106B1000FBD1D160E4E70120F0BDC046140C002099
:106B20000121064A10B5136805480B4004D18024A2
:106B3000640004804360116010BDC046080C002052
:106B40000C0C0020704710B50400FEF7B1FF2000C8
:106B500010BD0000F0B5822919D1C3B2294D5A01E8
:106B6000AA189169284C80010C40C0218905214355
:106B700091612649083340187021506128685B01F3
:106B80001A5C8A43110030220A431A54F0BD0029CE
:106B9000FCD1C026C1B21B4C4B01E3189A681A4DB8
:106BA000B6052A4032439A60194A800182185A6019
:106BB0000A000727246808325201115DB9430F000B
:106BC0000121394311559F6910493D4040182E431A
:106BD0009E6158617020115D8143080010210143BE
:106BE000115599680B48A2180840802149030143B8
:106BF00099609968890B89039960402311790B4347
:106C00001371C3E7F4100020FFFFFF8F680C002012
:106C1000280E0020FF3F00F0EFF3108303600123F4
:106C2000436072B670470368002B02D162B6BFF3AF
:106C30006F8F7047F7B50600FC36B3690400002B70
:106C400018D1B2277F00C55D6846FFF7E5FF019BBD
:106C5000EDB2013B02D3E55DEDB2FAE76846019380
:106C6000FFF7E1FF002D01D10020FEBD706E336EF5
:106C7000C01AFAE76846FFF7CFFFD8220025019B2C
:106C80005200013B02D3A55CEDB2FAE768460193DE
:106C9000FFF7C9FF002DE7D0D6235B00E058043B87
:106CA000E358E5E710B54468FC3043690B48DBB2B4
:106CB0005A01A21891680833084080214903014312
:106CC000916091685B01890B890391602268D318F8
:106CD000402219790A431A7110BDC046FF3F00F0E7
:106CE000F7B50500FC356B694268DBB2190004009A
:106CF0000831106849014118C979C90711D55B01EC
:106D0000D21893689B049B0C0CD12000FFF7CAFF9C
:106D100063681A686B69DBB208335B01D3187F22A2
:106D2000DA71F7BDE969002923D16B6623000126DA
:106D30006933FF33EE6168465360B227FFF76CFF9B
:106D40007F00B221019BFF31013B5A1C38D0D82271
:106D5000E6555200A25C581ED2B26254625C844670
:106D6000002A04D120000193FFF79CFFE9E7634666
:106D7000EBE7D621490063500023EB6123001D336C
:106D8000FF3353606846D826FFF746FF0127760099
:106D9000B221019BFF31013B5A1C11D0B222A755F1
:106DA0005200A25C581ED2B26254625C8446002A31
:106DB00004D120000193FFF775FFE9E76346EBE795
:106DC00068460193FFF72FFFA2E7F7B50600684674
:106DD0003400FFF721FF0027FF22019BFC34013B19
:106DE0000DD3E0682169884204DBE7682069D71B7E
:106DF0003F18F4E72769E1687F1A013FEFE768462B
:106E00000193FFF710FFA3696846002B52D1FFF7EB
:106E100003FFB221019B4900013B5A1C0CD0755C59
:106E20005A1EEDB2002D05D168460193FFF7FBFE17
:106E30002800FEBD1300F0E7684601930025FFF728
:106E4000F2FEFF22236EBD4214D0616E994211D929
:106E5000591CF3182166FF33587FE3682169013319
:106E6000C0B213408B4203D0E16871180872E3602E
:106E70000135E7E7626E9A42DAD1002323660133D7
:106E8000A3616846B224FFF7C7FE6400B222002166
:106E9000019BFF32013B581CC6D03155B05C5F1ED0
:106EA000002805D0B15430000193FFF7FBFEEDE759
:106EB0003B00F0E7FFF7B0FED821019B4900013B02
:106EC0005A1C06D0755C5A1EEDB2002DACD01300D2
:106ED000F6E768460193FFF7A6FED623D4225B00AF
:106EE00000259C465200B358BD4203D061467158FC
:106EF000994220D86246B2589A4299D1D4220023AE
:106F00005200B3506846A361D824FFF785FE6400A1
:106F1000B2220021019BFF32013B581C00D183E7C4
:106F20003155B05C5F1E002819D0B1543000019378
:106F3000FFF7B8FEECE7591CB150FF21F318693395
:106F4000FF331878E368C0B201330B4021698B42EC
:106F500003D0E16871180872E3600135C3E73B00B4
:106F6000DBE710B50400FFF730FF2300FC3319699D
:106F7000DA68914203D01B69E418207A10BD012021
:106F80004042FBE710B50400FC34FFF71EFFE06849
:106F90002369C01A01D50130FF3010BDF0B585B0AE
:106FA000019200910500FFF710FF02A8FFF734FEE1
:106FB00001200024FF26039B40425A1E531C1FD071
:106FC0002B00FC3301998C4218D2D9681F69C91B68
:106FD00001D50131FF31002910D01969DF688C46D5
:106FE0000100BC4506D019691F696918013737408F
:106FF000097A1F61009F39550134E3E7013ADDE763
:1070000002A80392FFF70FFE200005B0F0BD37B5D0
:107010006B46DC1D00230D002370FFF781FD21006E
:10702000FFF7FEFC2B681818286020783EBD000092
:107030002023F7B5474A0500D1690F200B43D361E0
:10704000012245490B7813430B70444B1978814357
:10705000197006211C782143197041490C7822438C
:107060000A701A7802401A70602219780A431A705E
:107070003C4B3D4A5A805F78FF09FCD13B48FEF704
:10708000D7F901233A4C3B4E2268300011780B436C
:10709000137080223900520003F04CFC2268937870
:1070A000DB07FCD456621F26334B1B68590B980C28
:1070B0009B01314030405B0FB14200D105211F28B8
:1070C00000D10238072B00D1043B31408901178DD4
:1070D00001912A4930400F40019939431185118DA2
:1070E0000700B143080038431085118D1803244B65
:1070F0007F260B4003430C2013850823D17881435E
:107100000B430321D3702268D3788B4301390B439F
:10711000D3702268137833401370042322681678E2
:10712000334313702268C1241389A4008343154894
:10713000138103591B021B0A035180230360137838
:1071400011481943012311702B700021FFF75CFCDB
:10715000F7BDC04600040040584400413C44004193
:1071600059440041000C004006400000DD7A000058
:10717000F4100020F8100020246080003FF8FFFF8A
:10718000FF8FFFFF00E100E0D40B00200078002813
:1071900010D00121084B1B681A898A431A810822E2
:1071A000198B0A431A830422198B0A431A8300227B
:1071B000024B1A607047C046F4100020EC1000200B
:1071C00010B50F4A93699B0B9B03936113680222CE
:1071D000FF331A729879823A02439A711A7A9207A7
:1071E000FCD57F24074A2140937A0800A343190065
:1071F000802301439172917A5B420B43937210BDDD
:10720000F41000200050004110B50C00FFF788FC7E
:107210002100FFF73CFC002804D1034A93699B0B33
:107220009B03936110BDC046F4100020F7B50D001C
:10723000832A19D1CBB2404C5A01A21891693F4818
:10724000AD010840C0218905014391613C49206896
:107250006D187021083355615B011A5C8A43110077
:1072600040220A431A54F7BD022A5FD1354B8A00E7
:10727000D058002802D003685B699847DA204000A4
:10728000FEF712FC802204002B4E2F4B4660036059
:1072900052000021083003F04DFB2200B2210023F0
:1072A000FC324900D3605561136113669361D36169
:1072B0005366635444316350043163500431635462
:1072C000B221FF316354FF202B0003405901019389
:1072D00071188F68194BAD003B40C027BF051F4395
:1072E0008F600727019B366808335B01995DB943BE
:1072F0000F00032139439955230051696668014005
:107300001D334901FF3371184B60636852691B6874
:10731000024052019B1801221B18997A20000A434F
:107320009A72FFF7BFFC074BEC509CE71100280056
:10733000FFF710FC97E7C046F4100020FFFFFF8F17
:10734000680C0020400C002014D4000070B505002B
:107350000124064BA200D258002A06D021002800A2
:107360000134FFF763FF0A2CF3D170BD140C002029
:107370000B4BCAB20B488901C9185301C318596194
:1073800099690832890B89039961036852019A1837
:107390000223D3715179823B0B4353717047C0462E
:1073A000680C0020F4100020084B8A00D05810B55B
:1073B000002803D003689B68984710BDC9B2044BEE
:1073C0004901591888688004800CF6E7400C0020B9
:1073D000F410002010B50C00FFF7E6FF00280CD0D9
:1073E000064BE4B21B68083464011C1980236279DF
:1073F0005B42134363710223E37110BDF41000205C
:10740000F0B51C002A4B85B01B6807000D000292E6
:10741000002B4AD0274B8A00D058002808D0036898
:1074200022005B68029998470400200005B0F0BD77
:107430003800FFF7B9FF844204D929003800FFF76C
:10744000B3FF04000121EBB21B4E03935B010193D8
:10745000F21893689B0B9B039360019A3368029820
:107460009B18FF335A7A0A435A72144BA901C91860
:10747000220003F043FA002CD7D029003800FFF790
:1074800093FF0028D1D14021039B326808335B0170
:10749000D3181879014319710121D971019BD318AF
:1074A000FF339A7A0A439A72BFE701246442BCE729
:1074B000EC100020400C0020F4100020280E0020CA
:1074C00013B56B46DC1D22000123FFF799FF01284D
:1074D00001D1207816BD01204042FBE770B5CBB248
:1074E000124A13485C018901891802195160916898
:1074F000104D08330D4080214903294340259160F8
:107500009168890B8903916001685A018A1816797C
:107510003543157195796D06FCD55B01C918CB799A
:10752000DB07FCD500198068C0B270BD280E0020B2
:10753000F4100020FF3F00F070B50D000021140092
:10754000FFF7CCFFA04200D9200000230349A3424B
:1075500003D0CA5CEA540133F9E770BD280E00205D
:10756000F0B51E003A4B85B01B680F000192002B4E
:1075700035D08023DB019E4231D80025354B8A016E
:10758000D3180293002E2CD0334B1B680393FF2398
:107590003B401C0000930834039B64011C19A37931
:1075A000DB0921D02D4B2E49186800F0C3FA2D4B72
:1075B0001721584300F0BEFA2B4BE279920713D4FF
:1075C000DA5D002A01D10138F7D20122DA55009B99
:1075D0005A01214B9B189A69920B92039A610125DB
:1075E0006D42280005B0F0BD00221F4B3400DA5573
:1075F0003F2E09D9009B40245A01174B9B1880222B
:10760000996912060A439A6122000199029803F0CF
:1076100075F9009BA1045A010F4B890C9B18029A23
:107620002D195A619A69361B920B92030A439A618B
:10763000009B039A08335B01D3180222DA7159794F
:10764000823A0A435A71019B1B1901939AE7C0467B
:10765000EC100020680C0020F410002040000020F6
:1076600040420F00701101005D0C002070B50D004C
:107670001C000D4BAE01F61811003000220003F083
:107680003DF9EDB209496D014D196E61AB69084ACA
:1076900020001340AB61AB69A2049B0B920C9B03CF
:1076A0001343AB6170BDC046680C0020F41000208D
:1076B000FF3F00F0F7B5104B01901B780F0015004D
:1076C000002B0CD10D4B16001C78002C09D00C4E51
:1076D0000C4834882018641903F010F9348028000D
:1076E000FEBD002EFBD03A19330000210198FFF7B0
:1076F000BDFF2418361AF4E7E80F0020E910002037
:10770000EA100020E90F0020F8B50F001600002451
:10771000012A26D9100003F0CBF80500380003F049
:10772000A9FE032302220130400028706B709642AC
:107730000DD9397800290AD0531CDBB20137A9547E
:107740009E4203D00232EC54D2B2F0E7320029005C
:107750000548FFF7AFFF441EA041C4B2280003F064
:10776000B1F82000F8BDC0463C0C0020F0B5002464
:10777000012685B0184B0F0069461E700500009465
:10778000FFF745FC154B01A90B806A3BFF3BCB7112
:107790005A330B72009B8C7109334B800E4B4E7128
:1077A00008711C703A00092F0FD00D4F09223E704E
:1077B0000C4E280000943480FFF77CFF69462800B7
:1077C000FFF725FC328808493C702800FFF772FF5C
:1077D000012005B0F0BDC046E80F002009020000FE
:1077E000E9100020EA100020E90F002070B5CE78E3
:1077F00092B005000C00022E0BD18B79C9792E486E
:1078000009021943FFF7B2FF411E8841C0B212B00E
:1078100070BDFFF785F92100FFF716F9002803D0A6
:10782000C117081AC00FF2E7012E0ED1E279A37931
:1078300012021A432149112A3CD8D2B2002A39D067
:107840002800FFF737FF0120E1E7032EDFD1A378FF
:10785000002B28D0022B08D1E279A3791202184913
:107860001A432800FFF750FFD1E7012B05D1E27939
:10787000A37912021A431349F3E7032BC7D101007E
:10788000412201A803F056F8FFF74AF901A9FFF7D2
:10789000EBF8002805D0E279A37912021A4301A976
:1078A000DFE70378FFDEE279A37912021A43064983
:1078B000032AC2D90A78C3E73C0C002054D4000044
:1078C00030D4000048D4000044D40000CBB20449B6
:1078D0005B01C9188B699B0B9B038B617047C0468A
:1078E000F410002037B5050048780C000B2810D89C
:1078F00000F00CF9061B0F2B0F404561494C5A5DF7
:10790000097801AA002906D1022311802800FFF777
:10791000ADFE01203EBD00231380284B1B78012BB8
:1079200000D1137002230021F0E78A780023012A96
:1079300003D101AA1380224BF0E7204A1370214A99
:1079400093699B0B9B039361E3E78C78012C06D131
:1079500000211B4B01AA1C7011702300D6E70120E7
:10796000002CD7D1154B174A187093699B0B9B03BA
:107970009361CFE789782800FFF722FCC9E7280048
:10798000FFF734FFC6E701230F4ACCE70B7800204E
:10799000DB06BFD12800FFF7D9FCA2780A4B0B48C1
:1079A0001A60FFF719F8CAE70123094ABBE78A788A
:1079B000074B1A60C3E70020ACE7C0465C0C002010
:1079C000640C0020F4100020EC100020D40B0020E8
:1079D000F01000203B4BF7B51E780500002E5FD15C
:1079E000394C23689A8B12070DD5082231009A83EF
:1079F0003000FFF7AFF810222368FF33997A0A436B
:107A00009A72324B1E6023689A8B520701D504226A
:107A10009A83FF331A7A920603D52022597A0A43B1
:107A20005A721A7AD20623D569460800284AC0CA73
:107A3000C0C0A268920B9203A26040225879024310
:107A40005A7160230A7828001A422AD1FFF74AFFA8
:107A50002368FF33002827D08022997952420A43B5
:107A60009A711A7A520603D54022597A0A435A72F9
:107A70007F2601252368FF331E722F0023680837F5
:107A80007F01DB19DB79002B07D0124BAA00D058FD
:107A900000280DD003681B6898470135082DECD1EC
:107AA000F7BDFFF7B1FBD3E720210B4A9171D8E76F
:107AB000FFF736F82900FEF7FAFF2368DF19FE7199
:107AC000EBE7C046E9100020F4100020EC10002085
:107AD000280E0020400C0020FF50004110B5024845
