:020000040000FA
:10000000FC7F002001060000F1050000F50500005E
:1000100000000000000000000000000000000000E0
:10002000000000000000000000000000F9050000D2
:100030000000000000000000FD0500004107000076
:1000400010B5064C2378002B07D1054B002B02D0AE
:10005000044800E000BF0123237010BD5C000020B5
:1000600000000000A018000008B5084B002B03D0CA
:100070000748084900E000BF07480368002B03D089
:10008000064B002B00D0984708BDC046000000007A
:10009000A0180000600000205800002000000000B0
:1000A000154A164B1178002909D115491878097895
:1000B0004118C9B21970802012498002C8611178B4
:1000C0000131C9B211701978F02902D819780929BB
:1000D00009D80B4908784042C0B2087018780978EE
:1000E0004118C9B2197012781B789A4203D1802244
:1000F000044B9202DA617047780000200100002072
:10010000000000200044004110B5C3699C07FCD4E6
:1001100003680224A3430360C46901231C42FBD18A
:100120000468234303600368DC07FCD4C46901232B
:100130001C42FBD1C469DC401C42F7D1084B1A4376
:100140000260C3695A07FCD4C0239B0243608181CB
:10015000C3699C07FCD4036802221343036010BDEB
:1001600004000040037EDA07FCD5018570470000DB
:10017000027E01235107FBD5428B1A4207D1428BE5
:10018000DA401A4203D1428B92081A4202D0034B42
:1001900001221A70008DC0B27047C046790000205D
:1001A00070B50368041C988B1A1C0821FF320842A2
:1001B00026D0802099839872112353704021144BCC
:1001C000917150715E68134DC0202E40800506432A
:1001D0005E605E693540284358610F4818600F48DB
:1001E00018615D680E4828408025AD02284358609C
:1001F0005868800B8003586000235171237105E01B
:10020000137ADA0602D5201C00F0D4FA207970BDEA
:1002100098010020FFFFFF8F9800002018010020A8
:10022000FF3F00F0002303714371044B01608360C2
:100230000B78022213430B707047C046A1010000E7
:1002400038B5364B2021DA6901200A43DA61344B94
:1002500006241A7802431A70324B0F221978914300
:1002600019701978214319702F490C7820430870B0
:1002700019780A401A701A7860210A431A702B4BB9
:100280002B4A5A805A7852B2002AFBDB294B0121B3
:100290001A780A431A709A78D107FCD42648026863
:1002A000510B1F221140914200D1052111408C01B8
:1002B0001D8D22492940214319850468A10C0A405B
:1002C0001F2A00D11D221C8D1F210A408C4322436E
:1002D0001A8502680721D20D0A408A4200D1032202
:1002E0000A40188D1103164A02400A431A851978EC
:1002F0007F220A401A701A78042112480A431A70A1
:1003000058621A890C218A431A811A8901218A4369
:100310001A810021802201F040F938BD000400401C
:10032000584400413C44004159440041000C004005
:100330000640000000500041246080003FF8FFFFAD
:10034000FF8FFFFF98010020F7B5141C1F4A5F01C3
:1003500001971D1CD319061C5869271C4000400F2B
:1003600003301033C74006D00F1C80225968120694
:100370000A435A6009E02F1C7B1E9F41144BBF01AA
:10038000FF18381C221C01F0FFF801990F480835AE
:1003900042181761131C5269A104920B890C920335
:1003A0000A435A6159690B4A0A405A616B01F318B2
:1003B0000222DA715979802252420A435A716B0142
:1003C000F318DB799A07FAD5201CFEBD98010020AE
:1003D00018010020FF3F00F0F8B51A4E051C3378D5
:1003E000141C002B12D1184B184A1A645A6C920B29
:1003F00092035A64586C164A02405A64A2235B0066
:10040000EA5C40200243EA54012333704827FF3757
:10041000EA5D0123134012D00B4B5A6C9204920CEC
:10042000A24202D25C6CA404A40C081C221C074942
:1004300001F0AAF80123EB550023337000E01C1CE7
:10044000201CF8BD7A00002098010020D800002070
:10045000FF3F00F0FF3083792022002900D11022D5
:100460001343837170470000084BFF305A69920BA9
:1004700092035A6102230372827980235B42134301
:100480008371037A9A07FCD57047C0469801002013
:1004900080235B421943C9B28172704770B5A023B3
:1004A00003225B00C254134B134A5C6CC0211440FE
:1004B00089050C4346255C64FF35402444550F4DA7
:1004C00030261D6490256D0046555D6B154029430F
:1004D000922559636D0080214155094D1D63B0255A
:1004E0006D0044555C6F22405A67B2235B00C154D3
:1004F00070BDC04698010020FFFFFF8FD80000208C
:1005000058010020024B5B785BB2002BFADB70478E
:10051000000C0040024BDB68DA06FBD57047C04692
:1005200000080040F8B5264B1E215A6802268A436F
:10053000244C32435A60A660FFF7E4FF224B234D60
:100540006360FFF7DFFFAE84FFF7E4FF204B1B681B
:100550009B0E3F2B00D11F231E4A9B0213431E4AB2
:100560000026EA62AB62AE84FFF7D4FF1B4B022782
:10057000AB84FFF7CFFFAB8C3B43AB84FFF7CAFFE5
:1005800063883F2293431F43678062888023DB0197
:1005900013436380A660FFF7B5FF114B6360FFF75D
:1005A000B1FF104B104AC0215A60104A0906106A68
:1005B0000002000A0143116207229E601A60F8BD22
:1005C00000400041000C004006000100000800400F
:1005D00024608000FF01000080BB0A1C240500008D
:1005E0000007030010E000E0E703000000ED00E07A
:1005F0000EBEFEE70DBEFEE705BEFEE702BEFEE74D
:100600000E4A0F4838B5824204D10E4A0E4B93422F
:100610000ED10AE00D4C9442F7D00023D118884245
:10062000F3D9E55804330D60F8E700F011F804E061
:100630009342FAD2002102C3FAE7FEE7000000204D
:100640005C000020A80300205C000020A41800002B
:1006500038B5304B1A681C1C013221D02E4A191DA6
:100660001160D9B200291BD12C4A10780122104008
:100670002B4A0AD115682B498D4201D110600FE039
:100680001160294901390029FCD11160226882F3E7
:100690000888FF229343254A93601E4B5B681847E6
:1006A000FFF740FF62B600F09DFD00F04FF8204BD1
:1006B000802292029A601F4B1F4A041C5A601B4AF8
:1006C000C021106A09060002000A014311620022DB
:1006D0009A6007221A60A368201C9847174B0028CD
:1006E00001D001221A701A78002A05D0002000F0EB
:1006F0008BFA00F003FBFCE71B78002BEBD100F03A
:10070000E5FD0028E7D0012000F07EFA00F0F6FABF
:10071000FCE7C0460020000018020020380400401A
:10072000FC7F00203581730748E8010000ED00E000
:100730000044004110E000E0E70300007B000020DF
:1007400008B5FFF7ADFC00F0C3FA08BD10B5054BC6
:10075000054C2360FFF774FD201C2168FFF762FD44
:10076000201C10BD005000411C02002070B5051C6B
:10077000C0B0081C161C0C1C00F017FF40006A4695
:10078000032302305370107076080123E218013AF7
:1007900011785A00002906D1281C69460023FFF76A
:1007A000D3FD40B070BDB342F6DA684681520133E2
:1007B000ECE70000F7B5BA4A04681378B949271C7A
:1007C000FF37051C102038720B705378B648B74EAF
:1007D000037093783380D178338809020B433380D8
:1007E0001179B34B19805179188809020843188090
:1007F0009079B0490880D2790888120202430A80B1
:1008000040227A71A84F3A78A64F120238780F1C0E
:100810000243A9488446181C624500D1C2E020DC8E
:10082000802149008A4200D16EE109DC812A00D191
:1008300092E0822A00D195E0802A00D064E18BE02A
:1008400081235B009A4200D1CFE000DA58E1C02357
:100850009B009A4200D157E1984B9A4200D14FE158
:1008600052E190231B019A4269D015DCD023DB00B2
:100870009A4222D088231B019A4269D0A023DB0030
:100880009A4200D040E1201CFFF7EEFD3188286835
:1008900089B2FFF7FDFD3BE1894B9A4200D12FE180
:1008A00000DC31E1874B9A4200D11DE1864B9A4230
:1008B00000D029E133886B7122E133881B0A012BB8
:1008C00008D10B8812222868934201D80A8892B274
:1008D0007E4911E133881B0A022B08D10B88432281
:1008E0002868934201D80A8892B2794904E1338892
:1008F0001B0A032B00D007E13388DBB2012B17D092
:10090000002B07D0022B00D0FEE00A882868D2B264
:10091000704911E0042201A86F4900F035FE3B88C0
:1009200004222868934201D83A8892B201A9E3E0F0
:100930000A8828686949D2B2FFF718FFE8E03388CF
:10094000201C2B71FFF790FD201CFFF7A7FDDFE0B7
:10095000291C01C90122CFE0614900230B802868CE
:100960000222CAE05E4900220A8018885022104004
:100970005C4A10701E880F203040188018880328A9
:1009800000D9C1E012781B8808335B01E418A37911
:10099000002A01D09B0600E0DB06DB0F0B802868F5
:1009A0000222A9E019887F2291434E4AC9B21170F0
:1009B00018880F21014019803188002900D0A3E058
:1009C0001988002900D19FE01988032900D99BE0EC
:1009D00012781B8808335B01E318002A02D020221A
:1009E0005A718DE0102159718AE002887F239A4361
:1009F0003C4BD2B21A7001880F220A400280328822
:100A0000002A00D080E00288002A00D17CE0028821
:100A1000032A00D978E01B78002B1FD00388083305
:100A20005B01E3189B799A066AD503882022083374
:100A30005B01E3181A71038808335B01E318DB7963
:100A40005F065DD50388402208335B01E318DA7145
:100A50000388022208335B01E3181EE00388083391
:100A60005B01E3189B79D9064AD503881022083325
:100A70005B01E3181A71038808335B01E318DB7923
:100A80009A063DD50388202208335B01E318DA710A
:100A90000388012208335B01E3181A7130E0C04675
:100AA000980000207D0000208200002084000020AB
:100AB00086000020800000200203000001030000E7
:100AC00021200000A121000021220000F4150000D7
:100AD00004000020E0150000D0150000D41500002F
:100AE0007E0000207C0000200B88082228689342AA
:100AF00001D80A8892B207490023FFF725FC07E0D6
:100B0000201CFFF7B1FC03E0201C0121FFF7A2FC31
:100B1000F7BDC0464800002007B5054B01220190F3
:100B200001A91868131CFFF70FFC01200EBDC04679
:100B30001C02002013B5054B6C4607341868211CB5
:100B40000122FFF749FC207816BDC0461C02002098
:100B500010B5074C201CFFF723FB031C0020834229
:100B600005D022684823FF33D05C0123184010BD14
:100B70001C02002010B5054A0C1C031C191C10682F
:100B80000123221CFFF7E0FB201C10BD1C020020EB
:100B900070B5084C061C201C0D1CFFF701FB002340
:100BA000984205D02068311C2A1CFFF715FC031C55
:100BB000181C70BD1C020020F8B50C4C051C201C34
:100BC0000E1CFFF7EDFA0023271C341C98420AD0B4
:100BD000002C07D0291C221C3868FFF7FDFB241AC3
:100BE0002D18F5E7331C181CF8BDC0461C02002068
:100BF00008B5031C081C111C9847024B64221A807C
:100C000008BDC0468C000020012805D1054B064ACE
:100C10001A60064B187004E0002802D1044A014B08
:100C20001A6070478C0200202816000094000020F3
:100C30007416000030B50A1C1C4985B00978031CE5
:100C400000292AD0042A01D1006804E0022A01D137
:100C5000008800E00078520004A98B180B3B9C1A16
:100C6000A3420BD00F210140092902D83025294386
:100C700000E0373119700009013BF1E701A9302389
:100C80000B7078234B700A208B1898700D20D87049
:100C9000074B04321B68D86803E005490968C86837
:100CA000191CFFF7A5FF05B030BDC0468800002025
:100CB0008C02002072B6EFF30883044A13600368C5
:100CC00083F30888436818477047C04690020020A5
:100CD000084B1A88002A03D01A88013A92B21A8067
:100CE000054B1A88002A03D01A88013A92B21A805A
:100CF0007047C0468C0000208A000020F0B591B0FB
:100D000008A9CC4A0B1C31CA31C351CA51C360CAAD
:100D100060C3C94BC9489A687A255203520F9200A2
:100D20005258C74902609C68A4B262430C60C5492E
:100D300000240A60C44A1460C44C2570C44CC54DDC
:100D40002368281C1B6940219847002802D0C24B09
:100D500064221A80C14B00221860C14B1D60C14B38
:100D6000C04DBE4F1A602A683B689A42E6D2BC4B1F
:100D70001B681A78FF2A00D114E2232A00D0EBE185
:100D8000B94E3378002B06D0B14BB8491B6802220C
:100D9000D868FFF72DFFAD4B1B78532B3CD13B6838
:100DA0002A6893421ED9AE4801322A609A1AB04B83
:100DB00001681B6801310160AE4E9A4201D2326077
:100DC00000E03360A04832680068049000F0DCFB6B
:100DD000336829685A182A60A14A1668F118116008
:100DE000A54A13702B68013B2B609D4B1A68013A92
:100DF0001A60A14B9E4A1B7811688B420AD2226866
:100E00009148C91A006892699047002802D0924B15
:100E100064221A80C0468DE1522B0AD18A48944A36
:100E20002368006811685B69039098476422934BBC
:100E30000DE04F2B05D1844B8D4A1B6812681A7048
:100E400078E1482B05D1804B894A1B6812681A80CB
:100E500070E1572B05D17C4B854A1B6812681A60DC
:100E600068E16F2B03D1784B0121186807E0682BEC
:100E700008D1754B7E481B6802211B880360FFF771
:100E8000D9FE57E1772B06D16F4B79481B680421B7
:100E90001B680360F3E7472B13D1754B1868FFF706
:100EA00009FF774B1B6883F3088862B6754B1B7884
:100EB000002B00D13EE1664B06201B681B6898475B
:100EC00038E1542B04D101233370614B1B6864E07B
:100ED0004E2B0CD13378002B06D15D4B63491B6838
:100EE0000222D868FFF784FE0023337022E1562BDC
:100EF00057D123686449D8680122FFF779FE236837
:100F00006249D8680322FFF773FE614D2368291CEC
:100F1000D8680122FFF76CFE23685E49D8680D226D
:100F2000FFF766FE2368291CD8680122FFF760FEE0
:100F30004B4F4C4D5849002339602B603A1C281CFC
:100F400013685E1C16601B780593002B03D00368A2
:100F500001330360F4E73E4E2A683368D868FFF730
:100F600047FE33684A49D8680122FFF741FE0599D8
:100F700029604A4939603A4A1368581C10601B7846
:100F8000002B04D0374B1A6801321A60F3E733683C
:100F90002A68D868FFF72CFE3368D86833490222E4
:100FA000C6E0334A582B17D1244E264D36681368B5
:100FB0002A68B10093420AD21F4D5808E8613848A8
:100FC00028801D4D287DC607FBD55B18F2E7204B16
:100FD00034491B68D868AAE0592B79D112681A4B9A
:100FE0003149002A02D11B680B606CE0124D086881
:100FF00019686B68104E8025AB4392087360002A15
:1010000061D02A4B0C4D2B800B4E337DDD07FBD579
:1010100000230A4D2D680195AD08AB4203D3244D42
:10102000054E358046E09342F9D09D004659013384
:101030004E51EEE708160000004000414402002037
:101040003C020020380200208802002034020020E8
:101050008C020020480200208A0000202C02002080
:1010600030020020400200208800002068160000A6
:101070009402002098020020280200208C0000200A
:101080009002002094000020441600006D1600001D
:101090004616000090160000481600005416000086
:1010A00002A5FFFF5D1600009000002044A5FFFF91
:1010B00004A5FFFF3F4E357DEE07FBD59D00491986
:1010C0004019D21A9BE73C4B3C491B68D8682EE07C
:1010D0005A2B2FD13A4B17681D680026EF19BD42D5
:1010E00006D02878311C00F013F90135061CF6E70C
:1010F000314B34491B680122D868FFF779FD07237B
:101100000F223240111C36093031092A00DD073127
:101110001820C0186A468154013BF1D2236806A901
:10112000D8680822FFF764FD23682749D86803229E
:10113000FFF75EFD254B7A221A70254B00221A60BC
:10114000244B1B7893422DD01B4B23491B68012253
:10115000D868FFF74DFD25E0111C3039C8B21C4B93
:10116000092804D81D682A01114319601AE0111CCE
:101170004139052903D81E68373A310106E0111CB0
:101180006139052904D81868573A01010A4308E073
:101190002C2A03D10A4A1968116001E00B490A7030
:1011A00000221A600D4B1A6801321A600C4B1A6843
:1011B0000132D5E5004000418C020020611600009C
:1011C0008802002065160000671600003402002027
:1011D00094020020880000206B16000040020020CE
:1011E0003002002010B51C4B01201A780324024362
:1011F0001A701A4B0F2219789143197019782143EC
:10120000197017490C782043087019780A401A7031
:101210001A7830210A431A70124B80211A6A0A4345
:101220001A62114B114A5A805A7852B2002AFBDBDB
:10123000C4220F480F499203FEF766FF0E4A0023AF
:1012400013700E4A13700E4A13700E4A13700E4A32
:1012500013700E4A137010BDD6440041BB440041C8
:10126000D744004100040040000C00401940000039
:10127000001C00422AF600009C02002023030020EC
:101280009D020020A0020020240300202103002052
:1012900008B5C1B20248FEF765FF012008BDC0468F
:1012A000001C0042024B187E4007C00F7047C0462A
:1012B000001C004208B5FFF7F5FF0028FBD00248EC
:1012C000FEF756FF08BDC046001C004208B5FFF7F8
:1012D000E9FF0023984205D0FFF7ECFF031C233BF6
:1012E0005A425341181C08BD70B5041C0D1C461809
:1012F000B44204D02078FFF7CBFF0134F8E7281C74
:1013000070BD10B5041CFFF7D5FF2070012010BD83
:101310000B0A5840034B4000C05A0902484080B2B3
:101320007047C0469E160000F7B50024051C0F1C30
:10133000261CBC4220D0FFF7BDFF114BC0B21B786A
:101340000190002B1AD1311CFFF7E2FF0D4B061C58
:101350001A88002A04D10C4A11782A1C002907D0C7
:1013600001996A1C2970802F02D1198801391980CE
:101370000134A4B2151CDCE7301C00E00120FEBDE6
:10138000210300209E02002022030020F0B53E4EE3
:1013900085B0002203900C1C32703C4B914201D16D
:1013A000012201E03A490C801A707F231C4201D0CF
:1013B00080349C43FFF77EFF3378C0B2002B07D008
:1013C00000253570FFF776FF3378C0B2AB4236D1D7
:1013D000432803D0712853D01528EBD10123009363
:1013E0000120FFF755FF0098FFF752FF0099802575
:1013F000C843C0B2FFF74CFF039B00270293244A67
:101400001388002B1DD1214901930978002918D197
:101410000198FFF73DFF391C0198FFF779FF013D67
:10142000071C002DEBD1000AC0B2FFF731FFF8B264
:10143000FFF72EFFFFF73EFF3378002B0AD0357001
:101440001FE00299013B09781380029B019101334F
:101450000293DDE7C0B2062807D1009B0399013350
:10146000DBB280310093803C0391002CB8D1042082
:10147000FFF70EFFFFF71EFF044B01251C7000E075
:101480000025281C05B0F0BD210300202203002008
:101490009E020020F0B5384C87B0002301902370E5
:1014A000994201D1012301E0344A1180344A642673
:1014B00013704320FFF7ECFE324FFFF7F3FE0028D6
:1014C00003D1002F03D0013FF7E7002F03D1013EE6
:1014D000002EEED14DE00125FFF7ECFE2378002B26
:1014E00038D1C0B20290012805D004283DD1062091
:1014F000FFF7CEFE39E005AE0221301CFFF714FFE6
:1015000001988021FFF710FF23780390002B18D15A
:10151000FFF7D0FE0702FFF7CDFEBFB223783F18DA
:10152000BFB2012B0DD0039B9F4207D13378AB4252
:1015300004D1EB437278DBB29A4204D01820FFF753
:10154000A7FE002303E00620FFF7A2FE029B2278FD
:10155000002A02D0002626700BE0012B05D1019A4B
:101560006B1C8032DDB20192B6E7054A002313708E
:101570000126301C07B0F0BD210300209E02002090
:101580002203002000350C0010B50023934203D045
:10159000CC5CC4540133F9E710BD031C821893429C
:1015A00002D019700133FAE770470023C25C01339F
:1015B000002AFBD1581E7047F8B5C046F8BC08BCDD
:1015C0009E467047F8B5C046F8BC08BC9E467047BA
:1015D0000403090441726475696E6F204C4C43002A
:1015E00041726475696E6F204E4F4E4120574C41D9
:1015F0004E0000001201000202000040412357008B
:1016000000020102000100000800000010000000BC
:1016100020000000400000008000000000010000E9
:10162000000200000004000091120000B51200004A
:10163000A5120000E9120000031300008D13000042
:10164000951400007600200041707220313920325C
:101650003031390031343A33383A343800580A0DD1
:1016600000590A0D005A00230A0D003E00322E30A8
:1016700000000000190B0000350B0000510B0000AA
:10168000750B0000910B0000750B0000B90B0000FA
:101690005B41726475696E6F3A58595A5D0000007B
:1016A0002110422063308440A550C660E770088155
:1016B00029914AA16BB18CC1ADD1CEE1EFF13112CC
:1016C000100273325222B5529442F772D6623993A5
:1016D00018837BB35AA3BDD39CC3FFF3DEE362241C
:1016E000433420040114E664C774A44485546AA5F5
:1016F0004BB528850995EEE5CFF5ACC58DD55336AC
:10170000722611163006D776F6669556B4465BB744
:101710007AA719973887DFF7FEE79DD7BCC7C4487B
:10172000E5588668A7784008611802282338CCC994
:10173000EDD98EE9AFF9488969990AA92BB9F55A0B
:10174000D44AB77A966A711A500A333A122AFDDBE4
:10175000DCCBBFFB9EEB799B588B3BBB1AABA66CDB
:10176000877CE44CC55C222C033C600C411CAEED34
:101770008FFDECCDCDDD2AAD0BBD688D499D977EEB
:10178000B66ED55EF44E133E322E511E700E9FFF84
:10179000BEEFDDDFFCCF1BBF3AAF599F788F88913A
:1017A000A981CAB1EBA10CD12DC14EF16FE180101E
:1017B000A100C230E3200450254046706760B98321
:1017C0009893FBA3DAB33DC31CD37FE35EF3B1026E
:1017D0009012F322D2323542145277625672EAB531
:1017E000CBA5A89589856EF54FE52CD50DC5E234BE
:1017F000C324A01481046674476424540544DBA701
:10180000FAB79987B8975FE77EF71DC73CD7D3260D
:10181000F2369106B01657667676154634564CD990
:101820006DC90EF92FE9C899E9898AB9ABA944585D
:10183000654806782768C018E1088238A3287DCB60
:101840005CDB3FEB1EFBF98BD89BBBAB9ABB754AAD
:10185000545A376A167AF10AD01AB32A923A2EFDF0
:101860000FED6CDD4DCDAABD8BADE89DC98D267CFD
:10187000076C645C454CA23C832CE01CC10C1FEF40
:101880003EFF5DCF7CDF9BAFBABFD98FF89F176E4D
:10189000367E554E745E932EB23ED10EF01E000081
:1018A0000000000001140000090243000201008052
:1018B00032090400000102020000052400100104A6
:1018C0002402000524060001052401000107058308
:1018D000030800FF09040100020A00000007058157
:1018E00002400000070502024000000000C20100A3
:1018F0000000080069000000410000000000000036
:1020000000800020E9510000D1510000D1510000B2
:1020100000000000000000000000000000000000C0
:10202000000000000000000000000000D15100008E
:102030000000000000000000D15100003D520000EF
:10204000D1510000D1510000D1510000D151000008
:10205000D1510000D1510000D1510000D5510000F4
:10206000D1510000D1510000D151000005510000B4
:10207000F5500000D1510000E5500000D1510000A2
:10208000D1510000D1510000D1510000D1510000C8
:1020900000000000D1510000D1510000D1510000DA
:1020A000D1510000D1510000D1510000D1510000A8
:1020B0000000000010B5064C2378002B07D1054B1B
:1020C000002B02D0044800E000BF0123237010BDA4
:1020D0006C0200200000000040D60000044B10B548
:1020E000002B03D00349044800E000BF10BDC046E8
:1020F000000000007002002040D6000010B504006F
:10210000074802F05DFD0023FA2023606360054B61
:102110008000196805F0A6FCA060200010BDC04634
:102120008C0200201000002010B502A800781B02CD
:10213000034312041A4389B2014802F0C5FE10BDE0
:102140008C020020F0B5050016001F00002485B0A9
:102150000391330021000097039A2800FFF7E4FF62
:10216000E8230134FF339C42F3D1024802F07AFDA8
:1021700005B0F0BD8C02002070B50500104C11496F
:10218000200003F0AFFB0A220D21200003F03BFCEE
:102190000121052003F032FA0B49200003F0A2FBD5
:1021A0000A220D21200003F02EFC01210D2003F056
:1021B00025FA2800FF2380220021FFF7C3FF70BD0E
:1021C000C00B0020EACA0000FACA0000F7B50E00F2
:1021D0001500134C13492000019303F083FB3100D9
:1021E0000A22200003F001FC0F4F2000390003F009
:1021F00079FB29000A22200003F0F7FB39002000B8
:1022000003F070FB0A220199200003F0EEFB6A46FE
:10221000064B12791E70064B1D70064B1A70F7BDE7
:10222000C00B00200DCB000030D600000C000020B9
:102230008902002088020020F7B50D001F00114C14
:1022400011492000019203F04DFB29000A222000D1
:1022500003F0CBFB0D4E2000310003F043FB0A22BC
:102260000199200003F0C1FB3100200003F03AFB8C
:1022700039000A22200003F0B8FB054B1D70054B06
:102280001F70F7BDC00B00201ECB000030D6000031
:102290008B0200200D000020002370B50C001A00F6
:1022A0001900FFF74FFF064D06492C60064C200031
:1022B00003F018FB29680A22200003F080FB70BDA0
:1022C000080000202FCB0000C00B002037B5050010
:1022D00000240A490A4B09780A4A1B781278280018
:1022E00000912100FFF720FFE8230134FF339C42D7
:1022F000EFD1054802F0B6FC37BDC0468802002089
:10230000890200200C0000208C020020F0B506009D
:10231000081CFC2185B0890506F0ACF90021041CDD
:1023200005F0DCFC002802D080231B06E418211CE9
:10233000201C05F0FBFC2A4B041C1D78294B187847
:10234000401B06F07BFB211C06F062F8071C2800EE
:1023500006F074FB011C381C05F0E8FC06F04EFB8F
:10236000214B03901D78214B1878401B06F066FB2B
:10237000211C06F04DF8071C280006F05FFB011C2D
:10238000381C05F0D3FC06F039FB194B07001D780B
:10239000184B1878401B06F051FB211C06F038F84A
:1023A000041C280006F04AFB011C201C05F0BEFCA2
:1023B00006F024FB002405006A46E9B2FBB2127B5A
:1023C000300000912100FFF7AFFEE8230134FF3316
:1023D0009C42F1D1084802F045FC05B0F0BDC04672
:1023E0000C0000208B020020890200200D0000203C
:1023F000880200208A0200208C02002010B5040010
:10240000081C0C4906F004F806F0F8FA0A2105F059
:102410000FFC042909DC084B084A09491B7812788B
:1024200009782000FFF78EFE10BD00231A00190066
:10243000F7E7C0460000C842880200208902002059
:102440000C00002073B50500E820FF300C1C05F0DF
:102450006BF920490600201C05F040FC00281DD027
:102460001D4B1E4A1E491B78127809782800FFF779
:1024700069FE1C49201C05F045FC00280DD01649BA
:10248000164B0978164A1B78127828000091310003
:10249000FFF74AFE144802F0E5FB73BD0D49201C0E
:1024A00005F03AFC0028E4D00E49201C05F020FC81
:1024B0000028DED00D490E4B09780E4A1B781278A1
:1024C000280000913100FFF72FFE074802F0CAFBF9
:1024D000CFE7C046CDCCCC3D8A0200200D000020C5
:1024E0008B020020CDCC4C3E8C02002088020020C4
:1024F000890200200C00002037B50500E820FF30DD
:1025000005F012F904000A490A4B09780A4A1B78B7
:102510001278009101002800FFF706FE074D280001
:1025200002F0A0FB2800A1B2002202F0CDFC37BDD2
:1025300088020020890200200C0000208C0200206C
:10254000F0B587B00390081C434905F061FF06F021
:1025500055FA002307001A0019000398FFF7F2FD4F
:10256000FC1E3E4EBC4228D0251E01DCE835FF355E
:102570000A222900300003F01EFA3949300003F026
:10258000B1F9384B0A21187805F0E2F9364BC6B29A
:102590000A21187805F0DCF9C3B20493334B0A2101
:1025A000187805F0D5F9C0B200903300049A2900DC
:1025B0000398FFF7B9FD0134D3E72D49300003F04C
:1025C00091F90A222100300003F0F5F9264B210091
:1025D0001A78039813000092FFF7A6FD25493000F2
:1025E00003F080F9231D651C0493049B9D422BD0AE
:1025F000F3232C005B009D4201DDE83CFF3C0A22F6
:102600002100300003F0D7F91549300003F06AF9D2
:10261000144B0A21187805F09BF9C3B20593124BAD
:102620000A21187805F094F9104BC7B20A211878DE
:1026300005F08EF9C0B20090059B3A002100039886
:10264000FFF772FD0135D0E7300003F055F90A4875
:1026500002F008FB07B0F0BD0080F343C00B002080
:10266000E4CA0000890200200C000020880200203B
:10267000E6CA0000E8CA00008C020020F8B5040099
:1026800002F0EAFD6368A2680600C31A93423BD9D0
:102690001E4B1F4D1F682B686060002B02D120006D
:1026A000FFF714FE3000390005F0D8F9080006F0F5
:1026B0000FFA061C380006F00BFA011C301C05F05E
:1026C000CFFC2B68061C012B03D1011C2000FFF757
:1026D0001DFE2B68022B03D1311C2000FFF78EFE5C
:1026E0002B68032B03D1311C2000FFF7ABFE2B68B6
:1026F000042B02D12000FFF7FFFE2B68052B03D12E
:10270000311C2000FFF71CFFF8BDC046040000206C
:1027100008000020E82110B5064C52230522FF31A5
:10272000200002F0BBFB044A0449200005F0F4F845
:1027300010BDC0468C02002000000020A54B000008
:1027400010B50400083000F005FA00232360FA23D6
:102750009B002000636010BD70B50D00084C094956
:10276000200003F0BFF82900200003F0CDF820007E
:1027700003F0C2F829000022034801F05EF870BDA2
:10278000C00B002020CC0000AC02002037B5002395
:1027900001220D00074C019300928A68200006492F
:1027A00000F077FD2900200003F095F8200001F0EB
:1027B00088F937BDAC020020CFCC00007FB5244C97
:1027C0000E002000234903F08DF8234D01A82900B5
:1027D00000F0EEFB01A9200003F07DF801A804F051
:1027E000AEFF1E49200003F07DF8280000F0F0FB4A
:1027F0001B49002800D11B49200003F073F81A4937
:10280000200003F06FF8280000F0EBFB0A22010023
:10281000200003F0D0F81549200003F063F82800E9
:1028200000F0E8FB0E49002800D10E49200003F01B
:1028300059F80F49200003F055F831000A22200012
:1028400003F0B9F80B49200003F068F87FBDC046DB
:10285000C00B002042CC0000AC02002062CC000083
:1028600037CC00003CCC000072CC00007BCC0000D8
:1028700089CC000094CC000070B5104C10492000A9
:1028800003F030F80F4D2000290003F047F80E4AFE
:1028900029000E4801F082F9032807D00C492000D6
:1028A00003F020F80B4802F00DFDF0E70A49200084
:1028B00003F034F8200003F01FF870BDC00B0020B7
:1028C000DACB00002400002014000020F4030020D4
:1028D000FECB00008813000000CC000037B50021BB
:1028E0000A480B000A00009102F0A2FF084D2800E0
:1028F00001F0F0FA074C2900200000F011FB064A15
:102900000649200005F008F837BDC046A4020020A3
:1029100070030020AC02002000000020AD2E00005B
:10292000F0B589B000AF0D000400FFF747FF0823A2
:102930001B4EF818310000F03BFB6B460735ED08E5
:10294000ED005B1B9D466D467B60300000F095FA04
:10295000002805D0300000F097FA28700135F4E720
:10296000104D08261049280002F0BCFF28000C2555
:10297000796802F0D3FFB919481904F059FFBB195F
:1029800059197A68A01900F0A9F9BB19581904F06F
:10299000D6FEB81904F0D3FEBD4609B0F0BDC0465E
:1029A000AC020020C00B0020C4CC0000F8B51E4CC7
:1029B0001E490500200002F095FF1D4F2000390040
:1029C00002F0ACFF1B4E300000F07FFB002804D06B
:1029D0001949200002F0A2FFF8BD184B39001A680F
:1029E000300092B201F03EF8002814D114492000C2
:1029F00002F078FF300000F006FB0A220100200000
:102A000002F0DDFF2800083000F0E4F8FA20800032
:102A100002F058FCFEE70B49200002F07FFF200087
:102A200002F06AFFD8E7C046C00B002050CB000080
:102A300043CB0000AC0200207BCB00002000002034
:102A40008FCB0000B5CB000084B030B5040085B05A
:102A50000B9323000A92099109A8083326C826C3BC
:102A600026C826C32000FFF707FF2000FFF79EFFC0
:102A7000184901A804F0ADFE01A92000FFF76CFE83
:102A800001A804F05CFE144901A804F0A2FE01A90B
:102A90002000FFF761FE01A804F051FE0F4901A8D4
:102AA00004F097FE01A92000FFF756FE01A804F0EC
:102AB00046FE0B4901A804F08CFE01A92000FFF797
:102AC0004BFE01A804F03BFE05B030BC08BC04B0CE
:102AD0001847C046A9CC0000B0CC0000B7CC00001D
:102AE000BDCC000070B5040088B002F0B5FB236ACD
:102AF0006268C31A934227D3144D2062280000F065
:102B0000E4FA00280AD123006A46143343CB43C2B7
:102B10002000A168E2682369FFF796FF280000F013
:102B200017FE011E02D02000FFF7FAFE084905A893
:102B300004F04FFE05A92000FFF728FE05A804F0C9
:102B4000FEFD23680133236008B070BDAC02002095
:102B50009CCC000010B50400FFF7D0FA200010BD97
:102B600084B010B5059303000391049203AC07CC25
:102B700007C307CC07C310BC08BC04B0184700004B
:102B800070B50600080007F065FD0400074D084910
:102B9000280002F0A7FE0A222100280002F00FFF01
:102BA00030002100FFF778FB70BDC046C00B00204D
:102BB0001DCD000010B5054C0549200002F092FE25
:102BC0000A220021200002F0FAFE10BDC00B0020F6
:102BD0001DCD000070470B00303BDBB2402901D90E
:102BE0003739CBB210001B013038D9B2C0B2402AFD
:102BF00001D9373AD0B24018C0B27047F7B50C00CF
:102C00000600184D1849280002F088FE210028000F
:102C100002F084FEA27861783000FFF7DCFF2279B1
:102C20000700E1783000FFF7D6FFA27961790190C3
:102C30003000FFF7D0FF0400390028000A2202F01C
:102C4000D8FE019928000A2202F0D3FE21002800B4
:102C50000A2202F0CEFE390030002300019AFFF76D
:102C6000B5FAF7BDC00B0020E9CC0000F7B50C00A9
:102C70000600184D1849280002F050FE21002800D7
:102C800002F04CFEA27861783000FFF7A4FF2279B1
:102C90000700E1783000FFF79EFFA279617901908B
:102CA0003000FFF798FF0400390028000A2202F0E4
:102CB000A0FE019928000A2202F09BFE21002800B4
:102CC0000A2202F096FE390030002300019AFFF735
:102CD000B3FAF7BDC00B002003CD0000F8B50C001F
:102CE00005001D492000160004F0DAFD1B4F0028E6
:102CF00007D031002800FFF781FF380002F0FCFD0B
:102D0000F8BD1749200004F0CBFD002804D03100A5
:102D10002800FFF7ABFFF0E71249200004F0C0FDE8
:102D2000002804D031002800FFF72AFFE5E70E490C
:102D3000200004F0B5FD002804D031002800FFF782
:102D400039FFDAE70949380002F0CCFD21003800EC
:102D500002F0DAFDD1E7C046A9CC0000C00B00208C
:102D6000B0CC0000BDCC0000B7CC0000D6CC000039
:102D700007B50021034800910B000A0002F058FD3E
:102D800007BDC046840300207FB5E1210022184C16
:102D9000184B200049021A6003F0E0F916492000A0
:102DA00002F0BCFD1549200002F09CFD0A220D2115
:102DB000200002F028FE124D2800FFF7DDF911492E
:102DC000200002F0ABFD2B006A460C3343CB43C21C
:102DD0000D4C0ECD2000FFF7C3FE23006A460C33D6
:102DE00023CB23C209480ECCFFF72EFE7FBDC04681
:102DF000C00B0020E80300202DCD000046CD0000D0
:102E0000940300205ACD0000D0030020AC03002022
:102E100010B50348FFF732FC0248FFF763FE10BD10
:102E200094030020AC03002007B50021074800915F
:102E30000B000A0002F0FCFC0548FFF75FF90548AB
:102E4000FFF788FE0448FFF77BFC07BD8C030020DA
:102E500094030020D0030020AC0300200020704722
:102E600070477047704713B56B460268D9710733D6
:102E7000546819000122A04716BD026D0023062ADE
:102E800000D1836D1800704713B56B46DC1D0368D5
:102E900001225B6A21009847012801D1207816BDE4
:102EA00001204042FBE770470120704770B50500E4
:102EB000154BB4350833036004002868002803D09C
:102EC00007F00EFC00232B602500A8352868002899
:102ED00003D007F005FC00232B602000883004F0AD
:102EE0002EFC2000643004F02AFC2000303004F076
:102EF00026FC2000243004F022FC2000183004F0CE
:102F00001EFC200070BDC04684CD000010B504003A
:102F1000FFF7CCFF200004F0FBFC200010BD0000F8
:102F2000FA2370B5002504009B0083601C4B1D4EE6
:102F3000083303604560456101613100183004F0D9
:102F400048FC20003100243004F043FC2000310014
:102F5000303004F03EFC144B2000E363134B6564F7
:102F60002364230048331D703100E5642565643017
:102F700004F02FFC20003100883004F02AFC2300EC
:102F8000A0339D60DD605D611D83DD611D600833E0
:102F90001D762900200002F00EFF200070BDC04603
:102FA00084CD00005AD1000060EA000030750000B6
:102FB00010B50B6D0400062B04D1643104F038FC0D
:102FC000200010BD014904F004FCF9E75AD10000CB
:102FD000036D062B02D17430007870470120404207
:102FE000FBE7036D062B02D1753000787047012096
:102FF0004042FBE7036D062B02D176300078704724
:1030000001204042FBE7406C70470300A03070B5E0
:10301000040015009C3318682368C01807F07CFB77
:10302000236828005B19236070BD07B56B46D97112
:10303000073301221900FFF7E8FF0EBDF8B50600BF
:103040001C00069B05009C363360002309011143D8
:10305000A0352B60C9B28027FFF7E7FF7F4223002E
:103060007F22E4091340002C01D03B43DBB22A68E5
:103070003168501C28608B54002CF0D12868F8BDB2
:1030800007B50B006A465BBA911D02220B80FFF761
:10309000BCFF0EBDF8B50F00110005001600FFF7CC
:1030A000EFFF3200040039002800FFF7AEFF2018C0
:1030B000F8BD10B5006903685B69984710BD10B58D
:1030C00000690368DB6A984710BD10B50400FFF77C
:1030D000F6FF0023984201D048342378180010BD31
:1030E00010B5006903681B69984710BD70B50400EE
:1030F00002F0B2F805002000FFF7F2FF002803D02D
:103100002000FFF7D6FF70BD2000FFF7D8FF002892
:1031100007D002F0FBF802F09FF8034B401B9842E7
:10312000E9D901204042EEE7E703000010B500694D
:1031300003689B69984710BD10B5036D062B02D13B
:10314000FFF7F4FF10BD01204042FBE710B5006916
:1031500003685B68984710BD0300F7B5BC331B6874
:103160000F001400002B04D0FFF74FFF04002000D5
:10317000FEBD0300A4331B78002B02D0FFF7E6FF4F
:10318000F4E70600AC3633680193D318FF2B03D95C
:103190008024019B6400E41AA83003680500002B1A
:1031A00004D18020400007F091FA2860019B286834
:1031B0002200C018390007F0AFFA33681B193360DA
:1031C000D5E710B5030004009C33A03419682268C9
:1031D000FFF7BCFF2368181A4342584100232360BD
:1031E00010BDF0B5060085B002AF79609536327833
:1031F00004000020022A44D8230090331D68AB1C31
:1032000082420BD098208446A444604600882B1D3F
:10321000013080B2002836D0614608801800694627
:103220000C30C008C000091A8D4694218C46A44475
:10323000614602A80978002A27D10A0096218C4607
:10324000A44461460978002901D008210A4379681D
:1032500000905B1820000321FFF7F0FE2300883365
:103260001968AAB22000FFF715FF3378002B05D0AC
:103270002300983319882000FFF702FF2000FFF792
:10328000A0FFBD46FEBD0120C6E752000A43D2B2F0
:10329000D4E7F7B504001F0008AB1E7809AB1B7814
:1032A00088301500019304F0CDFA6A4623001279A4
:1032B00094339A7000221F705E7018331A606B1C72
:1032C0005A1E93412200A43213706B1C02D10125B7
:1032D0002800FEBD29002000FFF783FF051EF6D160
:1032E000236820009B6A9847F2E730B504000D0080
:1032F00085B003AB0022009304210223FFF79EFE5A
:1033000029002000FFF7BCFE2000FFF75AFF05B0A0
:1033100030BD30B504000D0085B003AB0022009332
:1033200005210223FFF78AFE29002000FFF7A8FEEF
:103330002000FFF746FF05B030BD030010B5753320
:103340001B78012B05D1030078331988FFF7CDFFD7
:1033500010BD022BFCD1030078331988FFF7D9FF89
:10336000F6E7F8B5036D05000F001400062B02D038
:1033700000242000F8BD03681B6998470600A0429E
:1033800000D926000024A64207D02800FFF7AEFE91
:10339000431C02D038550134F5E7002CE8D0AB6D62
:1033A0001E1BAE65E5D12800FFF7C7FF2E65E0E7DD
:1033B00030B585B003AB0093022304000D001A0062
:1033C0000621FFF73BFE29002000FFF759FE2000F1
:1033D000FFF7F7FE05B030BD30B504000D0085B035
:1033E00003AB0022009307210223FFF727FE2900E9
:1033F0002000FFF745FE2000FFF7E3FE05B030BDDB
:103400001FB503AB0093002304001A000C21FFF743
:1034100015FE2000FFF7D5FE1FBD0000F8B5040023
:10342000FFF75EFE002808D12000FFF748FE0028C5
:1034300003D1230048332065187020002700FFF7D0
:103440004FFE0837002879D02000FFF732FE050034
:10345000C6B201F001FFF867206D07286AD804F0B2
:103460006DFA080018009800EC001801390161019C
:1034700061010F232D111D401E40220023005432F4
:10348000553315701E700023A3650133E365236572
:1034900050E07F23E26D2B405343A16DD2015B18B6
:1034A0008021A365E26589038A4204D9236820004C
:1034B0009B6A984755E02A06BFD4220054321278FE
:1034C0000B2A05D8A049D140C9070CD4032A14D02F
:1034D000062A47D1220055321278022AE6D1022B61
:1034E000E4D1022353E02100553109780029DDD1D0
:1034F000022BDBD1032A07D0F3E723000622553342
:103500001B7813409342D1D02300220055331B78FF
:103510007432D9091170200003215A100A40753005
:1035200002700122134022007632137021650022BE
:10353000231DDA67236D062B00D07EE72300483376
:103540001B78002B0DD001F087FE2100B0310A68F6
:10355000E36B821A9A4200D2EEE008602000FFF787
:103560004FFFF8BD092A07D1220055321278002AF0
:103570009CD1032BB5D099E70D2A97D12200553263
:103580001278002A00D091E7002B00D08EE7236547
:10359000CDE7211DCB6F5A1CE3187A33CA671E7022
:1035A000A36D9A4200D048E70023236523005433DB
:1035B0001B78022B03D123007B331B7814E01A1FE6
:1035C000012A03D9FB21DA1F0A420FD1230021006F
:1035D0007A331A78983101331B7809881202134321
:1035E000994200D029E700232366A3E7062B11D1D7
:1035F0002300A4331B78002B00D01EE723002200F9
:103600007A337B321B7811781B0219432000FFF7B5
:10361000E3FE8FE7092B00D00FE7230021007A3368
:103620001A78983101331B780988120213439942A2
:1036300000D002E723007C33BFE7251DEB6F5A1C47
:10364000E3187A33EA671E70022A00D0F5E62300F9
:1036500026007A331B8864365BBA9BB22367A36D5E
:103660003A49023BA365300004F0ECF8216F3000CA
:1036700004F086F8230075331978A26D236F0029B2
:1036800000D002339A4200D210E70023EB670433E4
:10369000FDE620003100643004F0F8F8206FE36E9E
:1036A000984200D046E7A36D181A2300A065753331
:1036B0001B78002B01D00523E9E606232365636907
:1036C000002B00D13AE79847A36D002B00D031E7DB
:1036D0000023DCE6211DCB6F5A1CE3187A33CA673E
:1036E0001E70022A00D0A8E6A36D981E2300A065D4
:1036F0007A331A7801331B7812021343220078328E
:103700001380062323656369002B00D09847A36DBF
:10371000002B00D00EE72000FFF70FFE6369002B9F
:10372000D6D107E7A36D002B01D0013BA365A36DA4
:10373000002BCDD00723AAE6FA6F5B00801A9842CF
:1037400000D20EE7B2E6C046B40800005AD100002D
:1037500010B5036D0400062B01D101330365200071
:10376000FFF75CFE236D0020062B00D1A06D10BD7D
:10377000F0B585B002AF0400080079603A6007F048
:1037800087FD3B6806000025022B2CD825009835C4
:103790002B8801339BB2002B28D02B8033006A4644
:1037A0001133DB08DB00D31A9D4602AA731D009279
:1037B000082102222000FFF741FC29882000FFF7A2
:1037C0005FFCB2B279682000FFF764FC3968200022
:1037D000FFF72BFC2000FFF7F4FC051E08D123683F
:1037E00020009B6A9847BD462800FEBD0123D4E710
:1037F00001235B4223668133E36401F02DFD050064
:1038000001F02AFD236C401B984210D22000FFF7E4
:1038100056FC00280BD02000FFF700FE236E5A1C38
:10382000EED000250222E3649A426D41DBE7236873
:1038300020009B6A98470025D5E710B50968FFF777
:1038400097FF10BDF0B58FB002AF04000E00150059
:10385000FB60FFF734FC002803D0206903689B6AF3
:10386000984722000023483223651370503213809A
:1038700020690368002D0DD029001B6AFA6898475B
:10388000002813D1022300255B4263642800BD4653
:103890000DB0F0BD10250C21674ADB69FA61726832
:1038A0007D19BA603A626918FA68E8E701F0D4FC59
:1038B00023000833D867210010231831F81803F0CB
:1038C000B7FFE36ABE69FB60A36BBB60002E0FD13C
:1038D00001F0C2FC0C2510360300B8191121574A1B
:1038E000401907F091FCBB195919180003F0AAFF01
:1038F0002300B8331D880023FA680C35AD199A42AD
:1039000003D013000233ED188023BA68002A04D0D4
:1039100040221343BA680232AD182200C032117837
:1039200002220A4313437B6080231020DB00BB8309
:103930000E23381804224249C01806F0EDFE222258
:103940000423BA1813702322FA213B79BA18137092
:10395000E06B890003F0FCFF0302000A18432B0010
:103960006A460C33DB08DB00D31A9D4602ABB884F1
:103970000022009301212B002000FFF75FFB1021A4
:103980000C237918C9180A222000FFF73EFBB2B2B7
:1039900039692000FFF77EFB2300B8331A88002A1C
:1039A00004D0043B19682000FFF72FFBFB68002BB5
:1039B00004D0BA89616A2000FFF76CFBBB68002B5A
:1039C00004D03A89216B2000FFF764FB2000FFF749
:1039D000F8FB051E0AD1206903689B6A98470323F8
:1039E00063641023F81803F0AAFE4FE701235B423B
:1039F000236601F031FC050001F02EFC236C401B16
:103A000098420AD22000FFF75AFB002805D0200078
:103A1000FFF704FD236E0133EED0236E6364002BA9
:103A200003D1012548342570DBE7206900250368B0
:103A30009B6A9847D5E7C04654D100006FCD00007F
:103A40007DCD00001FB51300054A02924A6802A905
:103A5000019203920022FFF7F5FE05B000BDC046BB
:103A600054D1000073B516000D0004000021684613
:103A700001F0ECFE33002A0069462000FFF7E2FE69
:103A800076BD1FB503AB0093002304001A000E217E
:103A9000FFF7D4FA2000FFF794FB1FBD10B50368B1
:103AA0000400DB6A9847002802D02000FFF7E9FFF6
:103AB0002300002248331A70206903689B6A9847E4
:103AC00010BD70B50600A43633780400002B16D163
:103AD0000500AC352968FFF784FB002805D1236871
:103AE00020009B6A9847002070BD2300A833196806
:103AF0002A682000FFF72AFB2B689842EFD10023A9
:103B00003370230095331B780120002BECD0022B5F
:103B100010D1033B236601F09FFB050001F09CFBE5
:103B2000236C401B98421FD3230098331988200030
:103B3000FFF73EFC01235B42236601F08DFB05008D
:103B400001F08AFB236C401B9842CCD22000FFF787
:103B5000B6FA0028C7D02000FFF760FC206E431C97
:103B6000EED043425841BFE72000FFF7A8FA0028F3
:103B7000DAD02000FFF752FC236E5A1CCED0002B67
:103B8000D2D0B0E707B50021034800910B000A002E
:103B900001F04EFE07BDC046EC030020F8B506005C
:103BA00008000D00170007F073FB0400380007F051
:103BB0006FFBE1B2C3B23A00280000F0F5FE042426
:103BC000431C11D001F048FB0024050001F044FB28
:103BD0003368401B984207D2642001F073FB00F069
:103BE00025FF04000228F1D92000F8BD10B5080017
:103BF000110000F0BFFF10BD07B5002104480B0005
:103C00000A00009101F014FE024B034A1A6007BD3E
:103C1000F8030020F403002050C3000013B56B46E6
:103C20000268D9710733546819000122A04716BDF4
:103C30007047007CFF38431E9841C0B270470000B7
:103C400070B50E0086B0040002A8150001F0E8FD72
:103C500002AA31000848FFF7C9FF00280AD0074A26
:103C600023680492039ADB690192059204A92A0051
:103C70002000984706B070BDF403002054D1000026
:103C800070B5037C04000D001600FF2B02D0036802
:103C90009B6A984700F0F2FB02002074FF281ED0B8
:103CA00068680023310000F035FA01F0D5FA05000C
:103CB00023682000DB6A9847002809D101F0CCFA7C
:103CC0000A4B401B984203D8012001F0FBFAEFE7B2
:103CD00023682000DB6A9847431E984170BD044961
:103CE000044801F01BFE0020F8E7C0460F27000043
:103CF000D4CD0000C00B002070B5037C04000D0083
:103D00001600FF2B02D003689B6A984700F0B6FBB1
:103D100002002074FF281ED068680223310000F0E2
:103D2000F9F901F099FA050023682000DB6A984749
:103D3000002809D101F090FA0A4B401B984203D8A1
:103D4000012001F0BFFAEFE723682000DB6A984703
:103D5000431E984170BD0449044801F0DFFD002076
:103D6000F8E7C0460F270000D4CD0000C00B0020AC
:103D7000F7B5037C04000E001700FF2B02D0036888
:103D80009B6A984700F07AFB05002074FF2825D035
:103D9000300007F07DFA0223C1B2019300953B0089
:103DA0000022300000F0F6F901F056FA0500236811
:103DB0002000DB6A9847002809D101F04DFA0A4B30
:103DC000401B984203D8012001F07CFAEFE72368FA
:103DD0002000DB6A9847431E9841FEBD0349044812
:103DE00001F09CFD0020F8E70F270000D4CD000073
:103DF000C00B002070B50500007CFF2804D1012312
:103E000000246B60200070BD002AF8D092B200F050
:103E1000ABFA041EF3D0287C00F0E6FA0028EED0BE
:103E2000F0E7000010B5017C0020FF2902D0024815
:103E300000F006F910BDC04628040020036837B51D
:103E40001B6904009847002809D06B46DD1D217CC2
:103E500001232A00034800F02FF928783EBD0120F5
:103E60004042FBE72804002010B50C001300017C41
:103E70002200024800F020F910BDC04628040020AE
:103E800010B5017C014800F007F910BD280400209E
:103E900007B500236A4601931380007C01A900F056
:103EA00041FD6B466A461B7850781B02C01880B2F1
:103EB0000EBD13B500236A46040001931380087CED
:103EC00001A900F02FFD01A9200001F0C7FC20008E
:103ED00016BD000000234360FA239B008360034B60
:103EE00008330360FF2303747047C046E8CD000029
:103EF00010B5037C0020FF2B02D0180000F0C6F99B
:103F000010BD000070B50400007CFF2814D000F044
:103F10008BF932252000FFF7EBFF002806D0013D8A
:103F2000002D03D0642001F0CDF9F3E7217C034894
:103F300000F06CF8FF23237470BDC04628040020F5
:103F400070B5037C04000025FF2B05D003681B69B6
:103F50009847A84202D00125280070BD2000FFF735
:103F6000C7FF0A28F7D8054BC340DB07F3D5217CF0
:103F7000034800F04BF8FF232374EDE7EF04000043
:103F80002804002007B50021034800910B000A0017
:103F900001F04EFC07BDC0460004002007B500211B
:103FA000034800910B000A0001F042FC07BDC04627
:103FB0000804002007B50021034800910B000A0007
:103FC00001F036FC07BDC0461004002007B50021F3
:103FD000034800910B000A0001F02AFC07BDC0460F
:103FE0001804002007B50021034800910B000A00C7
:103FF00001F01EFC07BDC0462004002010B50400DF
:104000007822002106F0A4FB200010BD10B50C247E
:104010004C4304192068002805D006F061FB0023FA
:1040200063602360A36010BD70B50500002421000B
:1040300028000134FFF7EAFF0A2CF8D1280070BDF0
:10404000F7B50C244C430419A36805000E00002B9F
:104050001AD12768002F05D10E4806F037FBA7605C
:10406000606020606B469F1D0A4BF0B23A002168E9
:104070003B8000F03FF9002806D023683A8863604F
:104080000C237343EB189A600C235E43AD19A868A8
:10409000FEBDC046DC05000070B504000D00FFF752
:1040A000CFFF002805D00C21694364186368187895
:1040B00070BD01204042FBE7F8B506000C00170078
:1040C0001D00FFF7BDFF002811D0854200DD05006F
:1040D0000C235C4334192A006168380006F01CFB8D
:1040E000280063685B196360A3685B1BA360F8BD6D
:1040F00010B5054C2000FFF781FF044A0449200059
:1041000003F00AFC10BDC046280400200000002077
:10411000294000007FB50E0069468C1C23701C4BA3
:10412000CD1C1B7801902A70002B01D100F0CEF934
:1041300000F064FA00F022FA04212D2000F0D8FBF0
:10414000002201A8042100F0DFFA3000002100F075
:10415000BDFB28000022012100F0D6FA0122200038
:10416000110000F0D1FA00F02FFA00F047FA00F049
:1041700005FA0E220F2300216A446B441170197056
:104180002D20013100F0E8FA00F01EFA7FBDC04694
:10419000A10400207FB51D00224B06001B780C00F7
:1041A0000192002B01D100F091F900F027FA00F004
:1041B000E5F905212D2000F09BFB300000222100B5
:1041C00000F0A2FA0022042101A800F09DFA0021CB
:1041D000280000F07BFB0022012108A800F094FADF
:1041E000012209A8110000F08FFA032625001135DD
:1041F00035400134002D02D000F01CFAF6E700F043
:10420000E3F900F0FBF900F0B9F90E220F236A443C
:104210006B4401212D2015701D7000F09DFA00F0F7
:10422000D3F97FBDA10400201FB56B46DC1D164BE2
:1042300020701B78002B01D100F048F900F0DEF966
:1042400000F09CF901212E2000F052FB01222000F9
:10425000110000F059FA00F0EDF900F0EBF900F070
:10426000B3F900F0CBF900F089F90E220F230021F9
:104270006A446B44117019702E20013100F06CFA01
:1042800000F0A2F91FBDC046A10400201FB56B4677
:10429000DC1D174B20701B78002B01D100F016F9A4
:1042A00000F0ACF900F06AF901212F2000F020FBAA
:1042B00001222000110000F027FA0E2400F0BAF9C4
:1042C00000F0B8F900F080F900F098F900F056F924
:1042D0000F2300226C446B441A70227001212200CB
:1042E0002F2000F039FA00F06FF9207804B010BDEB
:1042F000A104002073B56B46DD1D0E00140028706C
:1043000000F009FB002801D1208076BD154B1B78F9
:10431000002B01D100F0DAF800F070F900F02EF96E
:104320000221452000F0E4FA00220121280000F0DB
:10433000B8FA01220221200000F0B3FA00F07AF965
:1043400000F042F900F05AF900F018F922003100AB
:10435000452000F074FA00F037F92088431E984198
:10436000C0B2D2E7A10400207FB56B46DD1D1D4B16
:104370000E001B7814002870002B01D100F0A6F865
:1043800000F03CF900F0FAF80221442000F0B0FA05
:1043900000220121280000F084FA300001222100CF
:1043A00000F07FFA03262500093535400134002D41
:1043B00002D000F03FF9F6E70E2400F005F900F016
:1043C0001DF900F0DBF80D226C446A442100442002
:1043D0001570258000F0F4F900F0F6F8208804B09C
:1043E00070BDC046A1040020F0B50E2585B06B4617
:1043F000002401262A276D44D8712C70DC731E4BD3
:104400001B78002B01D100F061F800F0F7F800F004
:10441000B5F83100380000F06BFA6B46320031001D
:10442000D81D00F071F900F005F900F003F900F073
:10443000CBF800F0E3F800F0A1F80F232A006B445A
:104440003100380000F088F900F0BEF82B78002B1E
:104450000FD101346420A4B200F034FF2B78002B7C
:1044600001D1182CCBD9193C601E8441E0B205B0B3
:10447000F0BD0024F2E7C046A1040020124B13B5A2
:104480001B78002B01D100F021F800F0B7F800F004
:1044900075F800213F2000F02BFA00F095F800F0AD
:1044A000ADF800F06BF86B469C1DFF2323706B4644
:1044B000002207331A70012122003F2000F04CF93E
:1044C00000F082F8207816BDA1040020F8B518236A
:1044D000234E244F3370244C04333B70013B237034
:1044E00000F0ECFD214D1A2804D801232B7023780D
:1044F000DB4323701E4800F04FFD3078012101F0AE
:104500007DF83878002101F079F82078012101F058
:1045100075F801211A2001F071F801211A2001F02B
:10452000B9F83078012101F0B5F82978207801F048
:10453000B1F80A2000F0C6FE2978012520786940EC
:1045400001F0A8F80B4800F0BDFE00211A2001F090
:10455000A1F800211A2001F051F8074B1D70F8BD99
:10456000340000203200002033000020A00400208E
:10457000C8040020EE020000A104002013B50024AE
:104580006B465C711C71019A0B490C4800F02CFDC4
:104590000B4B2100187801F07DF800F05DFE04005F
:1045A000084B187801F0A2F8012804D000F054FE5E
:1045B000001B0428F4D913BD00127A00C80400209F
:1045C000340000203200002010B5044B012118787F
:1045D00001F060F8024800F023FD10BD3400002017
:1045E000C804002007B56B46D871D9790248C9B212
:1045F00000F02AFD0EBDC046C804002010B5034BD4
:10460000187801F073F80028F9D110BD32000020AD
:1046100010B50400FF20FFF7E5FF207010BD70B556
:104620000C0005000800FFF7F3FF2078401B434211
:10463000584170BD13B56B46DC1D0023200023706C
:10464000FFF7E6FF207816BD70B50500084CFFF7B0
:10465000F1FFEF2808D0013C002C01D0A842F6D190
:10466000401B4342584170BD01204042FBE7C04619
:10467000E9030000F0B587B004ABDE1D00230500A0
:10468000E020039114003370FFF7DEFF002802D111
:10469000002007B0F0BD3000FFF7BAFF802233786A
:1046A0001543AB42F4D1FFF7C5FF01900028EFD0CE
:1046B00005234343E3180293029B9C421AD0FF2038
:1046C000FFF790FF002720702378BB4210DDA3780E
:1046D00065781B022B43E578FF202D042B432579B9
:1046E0002D061D43FFF77EFFED1928700137EBE71C
:1046F0000534E1E7019B039A9342C9D13100EE20D2
:10470000FFF78DFF0120C4E7F8B5050008000E0093
:1047100017002C00FFF766FF631B9E4204DD207824
:10472000FFF760FF0134F7E7012F02D1EE20FFF71A
:1047300059FFF8BD10B50400000AFFF753FFE0B2BF
:10474000FFF750FF10BD10B50400FF20FFF74AFF30
:10475000002C00D0207010BDF0B585B01F0002AB5A
:10476000DC1D00230500E020019116002370FFF7F7
:104770006BFF002802D1002005B0F0BD2000FFF73C
:1047800047FF802223781543AB42F4D12000FFF786
:104790003FFF2378019A9342EDD13800FFF7D3FF12
:1047A00035003A78AB1B9A4204DD2800FFF730FF52
:1047B0000135F6E72100EE20FFF731FF0120DBE7AE
:1047C000F7B56B46DC1D00230500E0200E00170046
:1047D0002370FFF739FF002801D10020FEBD200023
:1047E000FFF716FF802223781543AB42F5D1FFF780
:1047F00021FF00280DD03800FFF7A5FF35003A78DB
:10480000AB1B9A4205DDFF20FFF7ECFE2870013557
:10481000F5E72100EE20FFF702FF0120DEE770B58B
:104820000500FF20FFF7DEFE0400FF20FFF7DAFEA1
:104830002402204380B2002D00D0288070BDF0B546
:10484000002485B002AB0700DD1DE02001911600B9
:104850002C70FFF7F9FEA04202D1002005B0F0BD98
:104860002800FFF7D5FE80222B781743BB42F4D1F6
:10487000FFF7E0FE00280ED03000FFF7D0FF3388AE
:10488000A34208D9019BFF201F19FFF7ABFE01349B
:104890003870A4B2F3E72900EE20FFF7C0FE012034
:1048A000DCE770B504000D0008001600FFF742FFBA
:1048B0006519AC4204D02078FFF794FE0134F8E784
:1048C000012E02D1EE20FFF78DFE70BD70B5040001
:1048D00002200D00FFF786FE200AFFF783FEE0B2FC
:1048E000FFF780FE012D02D1EE20FFF77BFE70BDA9
:1048F00070B50400E0200D00FFF774FE7F2020401B
:10490000FFF770FE2800FFF76DFE002D02D1EE20AC
:10491000FFF768FE70BD10B51A2000F0E7FE431ED9
:10492000984110BD70B586B06B46DE1D0C001500B9
:1049300030700622002103A805F00AFF0D23220A89
:104940006B441C705A70220C240E9A70DC70122377
:104950006B441D802D0C5D80124B1B78002B01D108
:10496000FFF7B4FDFFF74AFEFFF708FE01213A20EA
:10497000FFF7BEFF012230001100FFF7C5FEFFF771
:1049800059FEFFF757FEFFF71FFEFFF737FEFFF751
:10499000F5FD03AA02213A20FFF76CFEFFF714FE93
:1049A00006B070BDA1040020F7B51D001E4B070026
:1049B0001B780C001600002B01D1FFF787FDFFF7D5
:1049C0001DFEFFF7DBFD02211120FFF791FF210003
:1049D00000223800FFF798FE300001222900FFF77F
:1049E00093FE0326063464192500354003D0FFF7F3
:1049F00021FE0134F8E7FFF7E7FDFFF7FFFDFFF7C2
:104A0000BDFD6B469C1D220007330121112025703E
:104A10001D70FFF7A1FE002801D1FF232370FFF7CF
:104A2000D3FD00202056FEBDA1040020124B13B57B
:104A30001B78002B01D1FFF749FDFFF7DFFDFFF7E2
:104A40009DFD00212020FFF753FFFFF7BDFDFFF77D
:104A5000D5FDFFF793FD6B469C1DFF2323706B462E
:104A6000002207331A70012122002020FFF774FE74
:104A7000FFF7AAFD207816BDA10400201F4B73B5D7
:104A80001B780400002B01D1FFF720FDFFF7B6FDD6
:104A9000FFF774FD01213420FFF72AFF200006F004
:104AA000F7FB0122C1B22000FFF72EFE200006F026
:104AB000EFFB0325441D26002E4003D0FFF7BAFD6F
:104AC0000134F8E7FFF780FDFFF798FDFFF756FD8B
:104AD0006B469D1D9E712A000733012134201E70F4
:104AE000FFF73AFEC4B2FFF76FFD002C04D02C781C
:104AF000013C60424441E4B2200076BDA1040020A4
:104B0000FF2130B587B00B00050000910A0004A812
:104B100000F08EFE164B1B78002B01D1FFF7D6FC60
:104B2000FFF76CFDFFF72AFD00213520FFF7E0FEBF
:104B3000FFF74AFDFFF762FDFFF720FD0B23002280
:104B40006B441A70012103AA3520FFF705FE041EED
:104B500008D003A9280000F08DFE059B6C68E41ABC
:104B6000631E9C41FFF730FD200007B030BDC046FA
:104B7000A104002010B50C00FFF780FF0300002007
:104B8000834202D02000FFF7BBFF10BD07B5002114
:104B9000034800910B000A0000F04AFE07BDC04622
:104BA000A404002010B50400C06805F099FD062398
:104BB000E05E002802DB002100F020FD200010BD97
:104BC00010B504000623C05E002807DB012100F0B9
:104BD00015FD0623E05E002100F05CFD01236370FB
:104BE00010BD70B50500C0680E0005F079FD2B7C86
:104BF000EC7CE41A631E9C4103347443A4B2AC8081
:104C0000200005F063FDE860002805D022000021A7
:104C100005F09EFD6E8070BDA8806880FBE70322D2
:104C2000F8B58B110D118E101640134015400A4037
:104C3000467482740026FF228A427641C268C47C90
:104C4000077CC37405740670002A0AD0E21B5B1B44
:104C500051424A4159424B419A4202D04188FFF7A2
:104C6000C0FFF8BDF8B5C3680400002B00D1F3E025
:104C7000656900F0F7FA854202D900F0F3FA606145
:104C800000F0F0FA6369C01A2C23FF339842EFD981
:104C900072B60622A35E1822012053436F4FA688E6
:104CA000FA185268DB5D9040E268DB019619511CEE
:104CB00015786B4A9F186B4A9B182278002A00D0FF
:104CC00058E0803294463860C046C046C046C04670
:104CD000C046C046C046C046C046C046C0462A423E
:104CE00000D192E0C046C046C046C046C046C0465D
:104CF000C046C046C046C046C046C046C046C04684
:104D0000C046C046C046C046C046C046C046C04673
:104D1000C046C046C046C046C0461860C046C046F1
:104D2000C046C046C046C046C046C046C046C04653
:104D3000C046C046C046C046C046C046C046C04643
:104D4000C046C046C046C046C046C046C046C04633
:104D5000C046C046C046C046C046C046521000D1FC
:104D600070E0D2B2C046C046C046C046C046C0464B
:104D7000C046A8E7802294463860C046C046C04678
:104D8000C046C046C046C046C0462A4221D0C046A2
:104D9000C046C046C046C046C046C046C046C046E3
:104DA000C046C046C046C046C046C046C046C046D3
:104DB000C046C046C0461860521020D0D2B2C0468D
:104DC000C046C046C046C046C046C046C046C046B3
:104DD000D2E71860C046C046C046C046C046C0467E
:104DE000C046C046C046C046C046C046C046C04693
:104DF000C046C046C046C046C046C046DCE7B142D9
:104E000026D20D7862460131B6E71860C046C0462A
:104E1000C046C046C046C046C046C046C046C04662
:104E2000C046C046C046C046C046C046C046C04652
:104E3000C046C046C046C046C046C046C046C04642
:104E4000C0466BE7B14203D20D78624601313AE7C2
:104E500062B600F007FA6061F8BDC04634CE0000CB
:104E6000184400411444004170B5437804000D001B
:104E7000002B06D00623C05E002802DB002100F0D4
:104E8000BDFB6378E580002B07D00121280000F0EE
:104E9000B5FB0021280000F0FDFB70BD70B51500CA
:104EA000002204000E0042700272C26042611900CA
:104EB000FFF7B5FE31002000FFF793FE2900200028
:104EC000FFF7D2FF200070BD4388F7B58B421AD997
:104ED000037A150C140A002B16D1E4B2EDB201943A
:104EE000D6B2B446047CC67CC768B44218D103234A
:104EF00059437F186A46037C1279FD54437CFA5467
:104F00006246837CFA54F7BDFF26344035405C434B
:104F100016405D435E43240A2D0A0194360AE0E7F9
:104F200089007F18120E002B02D1D3B2BB55E1E7E6
:104F300053431B0AFAE7037D002B04D143758375A5
:104F400083610133037570477FB5C36802AD040008
:104F50000E0002916A608B4203D1028AAB889A42AA
:104F600018D02000062229000C3005F0D5FB20685F
:104F700000F05BFE6B79227AE179009320680023D0
:104F800000F0F4FE20682979320000F01FFE20684E
:104F900000F041FE7FBD000070B518260400FFF749
:104FA000CAFF3300082120790D4D4343EB185956B1
:104FB00000F0B4FB33000821A0794343EB185956A5
:104FC00000F0ACFB082160794643AD19695600F04A
:104FD000A5FB044B200006CBFFF7B6FF70BDC04613
:104FE00034CE0000E404002007B5437D0091019217
:104FF000002B07D09A070AD5EFF310835A4253418A
:10500000837572B60099019AFFF79EFF07BDDB0713
:10501000F8D58369014A9BB29360F3E7001800401A
:10502000437D002B05D09A0704D5837D002B00D04B
:1050300062B67047DB07FCD58369024A9BB2D36036
:10504000F7E7C0460018004010B5006800F0F6FD14
:1050500010BD0000114A124B124913600023537116
:105060001371114A11601149D36091800D21917122
:105070000A39537413741375D37111720C4AD360C7
:105080005374137413750B4BD17113600A4B9380D7
:1050900019239371183B13727047C046E404002033
:1050A00000093D00A40B0020AC0400200C0B000004
:1050B000C8040020A80B002017160000212070470C
:1050C00010B501211A2000F099FA01211A2000F0F0
:1050D000E1FA01211B2000F091FA00211B2000F0D1
:1050E000D9FA10BD10B5024802F037FA10BDC0461B
:1050F000EC04002010B5024802F02FFA10BDC046A3
:105100002807002010B5024802F027FA10BDC0465B
:1051100064090020F0B51F4985B01F4800F0CCFCA1
:105120001E491F4800F0C8FC1E4D1F49280000F012
:10513000C3FC1E4E1E49300000F0BEFC1D491E4837
:1051400000F0BAFC1D4F1E49380000F0B5FC0124E8
:10515000032339000093019423000022194802F030
:1051600091F900233100019300941D331E2216484B
:1051700002F088F919230393013B0293163B019334
:105180000094143317222900104802F037F905B0B3
:10519000F0BDC04600080042A00B0020000C0042F9
:1051A000A40B0020A80B002000100042AC0B002034
:1051B0000014004200180042B00B0020B40B002085
:1051C000001C0042EC040020280700206409002095
:1051D000FEE70000034B10B51B68002B00D098477A
:1051E00010BDC046B80B002070B50F490F4CA1424E
:1051F00004D100F08FF802F067FBFEE70C4D0023AE
:105200008D42F6D0CA18E818A24205D3094B824253
:10521000EFD00949002204E0006804331060F1E790
:1052200004C38B42FCD3E4E7000000206C020020A2
:1052300044D600006C020020F411002010B500F0EC
:1052400066F8002801D100F057F810BD014B186036
:105250007047C046B80B0020014B18687047C04625
:10526000BC0B0020F7B51348012284461249134CA9
:105270008E68636805689B0E1340019288686268B7
:10528000019F920E3A4067463F6893420ED1BD425D
:105290000CD186420AD35B19FA254868AD00861BFB
:1052A00007486B437043000DC018FEBD3D0013005E
:1052B0000600E3E7BC0B002010E000E000ED00E09A
:1052C0005555000070B5041E10D0FFF7CBFF050048
:1052D00000F01CF8FFF7C6FF054B401B9842F7D9BA
:1052E000FA23013C9B00ED18002CF3D170BDC046A1
:1052F000E70300007047000010B5034A136801334C
:10530000136000F09DFB10BDBC0B00207047002017
:10531000704700001E22F0B5504851494368514D76
:1053200093431A0002231343436008238A691343FB
:10533000FE228B612B68D2039B0213404A4A13431F
:105340004A4A936113000422DC681442FCD0012411
:10535000474A14701678264203D0567876B2002E4B
:10536000F8DB01249460547864B2002CFBDB414CE0
:105370005460547864B2002CFBDB8224E401548036
:10538000547864B2002CFBDB02249C840E34DE686B
:105390002642FCD0384CDC621024DE682642FCD069
:1053A0002C68A40E3F2C00D1203C9E6A334FA402EF
:1053B0003E4034439C629C6A314EA40AA4023443AA
:1053C0009C62304CDC6200249C841034DE682642EF
:1053D000FCD02D4C9C841024DE682642FCD0022494
:1053E0009E8C34439C841024DE682642FCD000242A
:1053F0009460547864B2002CFBDB244C54605478E5
:1054000064B2002CFBDB1C6A214E344080261C62F7
:105410001C6AB4431C62032393601E4B5360537891
:105420005BB2002BFBDB0023FF240B721A4A4B728A
:105430008B72CB72194B1A60194A2B6811689A0645
:105440005B01C90E2340520F12020B431343154A4E
:1054500013858023426813434360F0BD0040004140
:1054600000040040246080000606000000080040A0
:10547000000C004001040100B905FF7DFF03FFFFA0
:10548000FF01000080BB0A1C240500000007030088
:10549000FFFCFFFF03060100006CDC023800002067
:1054A0002060800000400042FA21314B10B518689E
:1054B000890002F04DFA2F4B0138984256D82E49F8
:1054C0002E4A4860C020136A00061B021B0A0343D1
:1054D0001362002407238C600B608021136A090685
:1054E0001B021B0A0B431362FC22254B196A0A4359
:1054F0001A62FC22196A92010A431A62A022196AEE
:10550000D2020A431A6220000021013400F076F82A
:105510001F2CF8D11B4B1C005A7852B2002AFBDB1F
:10552000194A5A80194B1A00597EC9090129FBD022
:10553000E421C90099803F21D970537EDB09012BFA
:10554000FBD0C02300205B011361907000F024F8B1
:1055500063785BB2002BFBDB0D4B0E4A6380D37983
:10556000DB09012BFBD04123537010BDFEE7C04681
:1055700038000020FFFFFF0010E000E000ED00E039
:1055800000040040000C00401E40000000400042AB
:105590002140000000480042164A00B51300517E29
:1055A000C9090129FBD00138042816D81969124A03
:1055B0000A400F211A615A788A4302F0B5F90308AC
:1055C000060B0300110001220A435A7000BD1100AE
:1055D0000322F9E711000222F6E7F02311691B0507
:1055E0000B430F21136153788B43190002230B43A4
:1055F0005370EBE700400042FFFFFFF0182330B587
:105600001D00040045430820204A55192856013042
:1056100014D0032912D808006343D156D31802F0DE
:1056200083F902280E1B5868CB010221184A9B18E7
:105630001A1840321170012282405A6030BD5868F9
:10564000CB010621124A9B181A1840321170012210
:1056500082405A609A61F1E75868CB0106210C4AF2
:105660009B181A1840321170012282405A605A6108
:10567000E4E75868CB010221054A9B181A1840320A
:105680001170012282409A60D8E7C04634CE0000F3
:10569000004400411823F0B508245843114A131858
:1056A0001C5701341BD0012635005F688356BD406E
:1056B0000D4ADB019A18906805420BD10C00601E60
:1056C0008441D2194032107834400336A400B043EC
:1056D00020431070044A9B18002901D15D61F0BD80
:1056E0009D61FCE734CE000000440041182310B552
:1056F0000824434307490020CA181457013408D02E
:105700005B560549DB015B18186A5368D8400123D2
:10571000184010BD34CE000000440041182242431E
:10572000F8B52C4E0300B218127A52B214000132AE
:105730000ED0481C00240C280AD802F0F5F8071FE8
:105740001F1F1F1F1F1F1F0B0B0B0B000124644289
:105750002000F8BD092905D100211800FFF74EFFF0
:105760000024F5E70A2901D10839F6E700240B29BE
:10577000EED10A391800FFF741FFE9E71822534339
:10578000F218556801202C00F356134ADB016E080D
:105790009B18C9B204409E19002C0DD00F2430363E
:1057A0003278090122401143C9B25B19317040338C
:1057B0001A7810431870D3E732000F27303216786A
:1057C0005B19BE433143117040331A78104318708F
:1057D000BEE7C04634CE000000440041F7B5C31D0B
:1057E0000193002306000D00041D009321780A2276
:1057F000280000F0FAF82E210700280000F076F8C3
:10580000009B3F18DB190093019B01349C42EDD1B2
:10581000F17928000A2200F0E8F8009B1818FEBD74
:10582000024B083303600023436070474CD10000F3
:1058300030B503AC2578044CC5710834046001719F
:105840004271837130BDC0464CD10000024B4160B3
:10585000083303607047C0464CD1000010B5040007
:10586000034B0422083308C004F056FF200010BD8B
:105870004CD1000010B504000422043004F04CFFA9
:10588000200010BDF7B506000D000C008B18019329
:10589000019B671B9C4207D0336821781B6830004E
:1058A000984701340028F3D13800FEBD70B50400DC
:1058B00008000D0005F0ECFC2368020029005B687D
:1058C0002000984770BD10B50B1E02D0FFF7EEFF09
:1058D0000300180010BD10B503688A685B6809688A
:1058E000984710BD10B5FFF7EEFF10BD10B5036867
:1058F0001B68984710BD000010B50249FFF7D6FF9E
:1059000010BDC04658D1000070B50500FFF7E3FF99
:1059100004002800FFF7F0FF201870BD70B50400E8
:10592000FFF7D1FF05002000FFF7E6FF401970BD2B
:10593000F0B58BB06B461500002205330600DA7710
:105940000800012D00D80A2509AC290002F086F8CC
:10595000CAB2130037330700DBB2092902D813009B
:105960003033DBB2013C2370002FEED12100300038
:10597000FFF7A9FF0BB0F0BDF8B506000C00151E2F
:1059800004D10368C9B21B689847F8BD0A2A0CD134
:1059900000290BDA2D21FFF7A9FF614207002A0039
:1059A0003000FFF7C5FF3818EFE7D2B22100300012
:1059B000FFF7BEFFE9E710B5FFF7DEFF10BD70B5DA
:1059C0000400FFF7D9FF05002000FFF795FF4019FD
:1059D00070BD10B5002A04D10368C9B21B6898478E
:1059E00010BDD2B2FFF7A4FFFAE710B5FFF7F1FF41
:1059F00010BD70B50400FFF7ECFF05002000FFF7B5
:105A00007BFF401970BD70B50400FFF7E2FF050091
:105A10002000FFF771FF401970BD000010B50400B1
:105A2000FFF768FC014B1C6010BDC0463C00002025
:105A30000122024B52421A607047C0463C000020CF
:105A4000164A10B51368591C26D0013B1360002B71
:105A500022D172B6124B134A0433934213D9124A1D
:105A600001211000147D0C42FCD02021148BFF3149
:105A70009B085B0021431183D3610C4B13800123EE
:105A8000027D1A42FCD0BFF34F8F094B094ADA60FE
:105A9000BFF34F8FC046FDE710BDC0463C0000205D
:105AA00000200000030200000040004102A5FFFFAB
:105AB00000ED00E00400FA05016070479446F0B57F
:105AC0009E1E721E96416246056892072F68360632
:105AD0003A4332432A60072505AC24780068A401C4
:105AE0002940214342680024022B00D05C0311436B
:105AF00021434160F0BD30B5C0250368AD031C688B
:105B000012052A402243C0240904A4022140114363
:105B1000196003685A6814435C6030BD0123026851
:105B200011680B43136003681A68D207FCD4DA6962
:105B3000D207F9D470470223026811680B4313603F
:105B40000268D3699B07FCD4704703681A7ED207AA
:105B500002D41A7E9207FCD57047002203685A834C
:105B600070470368187E4007C00F70470368187EAF
:105B7000C0097047802302685B42117E0B43137695
:105B800070470368588B8007C00F70470223026874
:105B9000518B0B43538370470368187EC007C00FB7
:105BA00070470368188DC0B2704703681A7ED20729
:105BB000FCD589B2012019857047012203689A75C6
:105BC0007047012203681A757047000070B50126FE
:105BD00004684B0833403140256809075B070B43D5
:105BE0002B43236004685100034801F0B1FE0138E3
:105BF000C0B2207370BDC046006CDC020123026895
:105C000011680B43136003681A68D207FCD4DA6981
:105C1000D207F9D470470223026811680B4313605E
:105C20000268D3699B07FCD470470368DA6992075E
:105C3000FCD402211A688A431A6070470268936A8A
:105C40005B0A5B021943916203681A7E5207FCD516
:105C5000986AC0B2704700000368214A30B5934289
:105C60002FD0204A93422FD01F4A93422FD01F4A51
:105C700093422FD01E4A93422FD01E4A93421FD1E7
:105C80000E2319220121032599401B48C0240160DD
:105C900099082B40AB40FC359D4089000918A400B1
:105CA0000859A843C0259D402B0003430B51802376
:105CB000DB011A43114B5A805A7852B2002AFBDB9F
:105CC00030BD09231422DDE70A231522DAE70B236E
:105CD0001622D7E70C231722D4E70D231822D1E789
:105CE00000080042000C0042001000420014004274
:105CF00000180042001C004200E100E0000C0040DF
:105D0000F8B504000F0016001D00FFF7A5FF2000E6
:105D1000FFF704FF1C21BB000B4071072268090C30
:105D20000B431360842322689375012F1AD110212D
:105D3000012E00D008390C4B69431868C00001F0EF
:105D400007FE0722216802408B895203DB04DB0C2B
:105D500013438B81226803049089DB0C400B4003C2
:105D600018439081F8BDC04638000020F7B5060002
:105D7000019308AB1F780D001400FFF73FFF3000C0
:105D8000FFF76AFFC022240592031440BA070C27CC
:105D900017433C43C0270722BF022D0433683D4010
:105DA00025431D60019B316813401A0080239B022C
:105DB00013434B60F7BD816070470020704770B59A
:105DC0000F26CB1D013902003240D5B22C0000094C
:105DD0003034092A00DD07341C70013B8B42F2D1BC
:105DE00070BD000010B50C000B4B1868FFF7E7FF03
:105DF00021000A4B08311868FFF7E1FF2100084B2A
:105E000010311868FFF7DBFF2100064B18311868C6
:105E1000FFF7D5FF202010BD0CA0800040A080001F
:105E200044A0800048A0800008B4024B9C46103873
:105E300008BC6047E55D000070473F20704713B520
:105E40006B460268D9710733546819000122A047D4
:105E500016BD000070B50A260B7892B06E4402336E
:105E600005000B703C220021300004F071FC394821
:105E700001AC069038482421079006202077684618
:105E8000364AA1742281364A364BA281FD3AFF3A46
:105E90008018C177684623390630C17768460730D5
:105EA000C17702A8C1770720F27703260831694439
:105EB000C87703A9CE7710212B366E44317009269E
:105EC00021851F3169440E700CA9053E0E703321E7
:105ED0002380022369440B7006360DA90E702249F7
:105EE0003536A1863B216E44307010A86274E2778B
:105EF00002703D3269446A440B70137040210022E5
:105F0000E37023716371A37341336B44218719706C
:105F10005A702B7DC039A370A37263770133DBB253
:105F2000A3776A7D0B200D0068441543C5773120A7
:105F3000684403703A23501C6B44187041230232AA
:105F40000A436B441A7021004222084800F05CFFAB
:105F500012B070BD100104240206052409040000DB
:105F600001020000080B000007050000280C0020BB
:105F700008B4024B9C46103808BC6047555E0000D0
:105F800070B5027D0B790C0000259A420BD10B787D
:105F90004E78A12B09D1212E05D107221F49204877
:105FA00000F032FF0135280070BD212BFBD1202EDF
:105FB0002BD1072219491A4800F068FE174B1A78AE
:105FC0005978090211439A7812041143DA781206BB
:105FD0000A439621C9008A421DD1DB79DB071AD416
:105FE000FA20FFF71BFD00210D4801F019F80125EB
:105FF000232ED8D1E378A2781B021343094A00214B
:106000000748136001F00CF8CDE7222EEFD18A7813
:10601000024BDA71D2E7FFF70BFDE4E74400002002
:10602000280C00204000002008B4024B9C46103889
:1060300008BC6047815F000010B5417D006A0131F6
:1060400000F05CFD034B1B6801335A1E9341181886
:1060500010BDC0464C00002010B5417D006A0231E1
:1060600000F062FD10BD10B5417D006A023100F004
:1060700029FD10BD70B50D00417D040013000231F3
:106080002A00006A00F016FE002801D10123636097
:1060900070BD000010B5054C23685A1C04D103687C
:1060A0005B69984703002060180010BD4C00002079
:1060B000074A0300106810B5411C03D001235B425E
:1060C000136010BD597D186A013100F0A3FDF8E797
:1060D0004C0000207047002070470000FA239B000E
:1060E00010B583600F4B0022C38203002833836105
:1060F0000D4B04004260C261180044332361083034
:10610000631D21622060DA778323A362813BE3620F
:106110008033236300F0AEF82100103100F07EF8E8
:10612000200010BD030200005CD10000022110B568
:10613000094B1A68437D5B01D318FF339C7A2143D6
:106140009972437D0133DBB25B01D3180122FF3327
:10615000997A0A439A7210BDE0100020704700003F
:1061600010B502490248FFF7B9FF10BD280C002006
:10617000C00B002070B50E0000254468002C0BD029
:10618000236831005B6820009847002802DB2D1847
:10619000E468F3E701256D42280070BD70B50D007D
:1061A0004468002C08D0236829009B682000984789
:1061B000002802D1E468F4E7200070BD70B50D003E
:1061C00000264468002C09D02368290020001B69A0
:1061D000984736182D18F6B2E468F3E730002C70B3
