:1020000000800020455D00002D5D00002D5D00007A
:1020100000000000000000000000000000000000C0
:102020000000000000000000000000002D5D000026
:1020300000000000000000002D5D0000995D000020
:102040002D5D00002D5D00002D5D00002D5D000068
:102050002D5D00002D5D00002D5D0000315D000054
:102060002D5D00002D5D00002D5D0000615C000015
:10207000515C00002D5D0000415C00002D5D000002
:102080002D5D00002D5D00002D5D00002D5D000028
:10209000000000002D5D00002D5D00002D5D0000A2
:1020A0002D5D00002D5D00002D5D00002D5D000008
:1020B0000000000010B5064C2378002B07D1054B1B
:1020C000002B02D0044800E000BF0123237010BDA4
:1020D000780200200000000040EA0000044B10B528
:1020E000002B03D00349044800E000BF10BDC046E8
:1020F000000000007C02002040EA000070B52A4C7D
:102100002A49200001F064FBE1212000490201F08E
:1021100051FB0121200001F037FB254D00280AD09A
:102120002449280004F0B4F920000A2101F027FB1B
:10213000200001F03EFB00212000012201F0B0FB55
:102140000121200001F020FB002806D01A492800B8
:1021500004F09EF9200001F02CFBE1210022174B36
:10216000280049021A6005F0DBF92800144904F040
:10217000ABF92800134904F08BF90A220D2128003D
:1021800004F017FA104800F089F828000F4904F00D
:102190009BF90F4C0021200000F074FF21780D48BE
:1021A00000F0E0FE70BDC046F8070020B80B00004C
:1021B0001410002098DD0000A9DD00009C02002022
:1021C000B0DD0000C9DD0000A0020020DDDD000060
:1021D000BC020020A402002010B5034800F0B4FCAB
:1021E000024800F003FF10BDA0020020A40200205E
:1021F00007B50021074800910B000A0004F0C6F85B
:10220000054800F01BF8054800F036FF044800F0D0
:1022100023FD07BD94020020A0020020BC02002084
:10222000A402002010B512021A4309040A4381B225
:10223000014802F09EFB10BDD402002010B504003E
:10224000074802F0EFF90022FA20064B80001A60DE
:10225000054B196806F04EFC044B1860200010BDB9
:10226000D4020020EC0200200C000020CC02002050
:10227000F8B50D0016001F0000243B0020003200BE
:102280002900FFF7CFFFE8230134FF339C42F4D14C
:10229000014802F019FAF8BDD402002070B52A4CAA
:1022A0002A490500200004F0F3F80A220D2120003D
:1022B00004F07FF90121052003F04EFF244920009E
:1022C00004F0E6F80A220D21200004F072F9012141
:1022D0000D2003F041FF1F49200004F0D9F8E82148
:1022E0000A22FF31200004F040F91B49200004F0CD
:1022F000EBF81A49200004F0CBF80A221849200014
:1023000004F02FF91749200004F0C2F80A221649F8
:10231000200004F026F91549200004F0D5F81449EE
:10232000200004F0B5F820000A22442104F01DF931
:1023300000246210E3B2D2B2002128000134FFF77A
:1023400097FFFF2CF5D170BD1410002028DE00008F
:1023500038DE00004BDE00005DDE0000ADDE000078
:1023600044390000BDDE000000D9CD69CEDE00009A
:10237000D7DE0000F7B50E001500134C13492000FE
:10238000019304F085F831000A22200004F003F9DB
:102390000F4F2000390004F07BF829000A222000AA
:1023A00004F0F9F83900200004F072F80A220199CB
:1023B000200004F0F0F86A46064B12791E70064BB6
:1023C0001D70064B1A70F7BD1410002006DE0000C9
:1023D00030EA000008000020C5020020C4020020EE
:1023E000F7B50E001500134C13492000019304F0BB
:1023F0004FF831000A22200004F0CDF80F4F2000E2
:10240000390004F045F829000A22200004F0C3F83E
:102410003900200004F03CF80A220199200004F061
:10242000BAF86A46064B12791E70064B1D70064BB1
:102430001A70F7BD1410002017DE000030EA00000B
:10244000C702002009000020C6020020002370B54A
:102450000C001A001900FFF70BFF064D06492C600F
:10246000064C200004F014F829680A22200004F029
:102470007CF870BDC8020020F2DD000014100020BE
:10248000014B19607047C04610000020014B1960D5
:102490007047C0461400002010B50024084B094ABC
:1024A00009491B78200012780978FFF7BBFEE82362
:1024B0000134FF339C42F1D1044802F005F910BD0C
:1024C000C4020020C502002008000020D402002021
:1024D0000F4B70B50D1C04000E49186807F016F874
:1024E000291C07F013F807F007FB0A2106F0E8FBA8
:1024F000042909DC084B094A09491B781278097834
:102500002000FFF7B5FE70BD00231A001900F7E7A1
:10251000100000200000C842C4020020C5020020B4
:1025200008000020F8B51C4B6A461C680A235C436F
:10253000A3000833D31A00AF9D4600256E46A5427E
:1025400007DAE820FF3004F03FFDAB00F050013522
:10255000F5E70025A5420BDA104B114A1149A800F6
:102560001B78127809783058FFF75CFE0135F1E7E7
:102570000D4802F0A9F80025A5420BDA0B4B0C4AD6
:102580000C49A8001B78127809783058FFF74AFEEA
:102590000135F1E7BD46F8BD14000020C40200205B
:1025A000C502002008000020D4020020C60200203E
:1025B00009000020C7020020E82070B50524FF3084
:1025C00004F002FD134B64421B680A255C43241887
:1025D00026005D432D19AE420ADA0F4B0F4A10490F
:1025E00030001B7812780978FFF71CFE0136F2E7FD
:1025F0000C4802F069F8AC420ADA0B4B0B4A0C4962
:1026000020001B7812780978FFF70CFE0134F2E7FE
:1026100070BDC04614000020C4020020C502002086
:1026200008000020D4020020C6020020090000207B
:10263000C7020020F0B58CB285B021001648150005
:1026400002F0CEF9070CFBB29C466646C2B2010A04
:102650000392CBB200220A2E04D9FFB26F433F127D
:10266000F21BD2B200270A2B04D9C9B2694309125E
:102670005B1ADFB2C1B200230A2905D9C0B24543B3
:10268000039B2D125D1BEBB2009321003B0002481F
:1026900002F04CF905B0F0BDD402002070B5060080
:1026A000E8200625FF3004F08FFC154B1B685D43C6
:1026B0009C001C1B24182D19AC420ADA114B124A3B
:1026C000124920001B7812780978FFF7ABFD01341E
:1026D000F2E70F4801F0F8FF00240E4B0E4918688E
:1026E00006F014FF06F06AFB2100C2B23000FFF7CB
:1026F000A1FFE8230134FF339C42EED170BDC046F8
:1027000014000020C4020020C502002008000020A0
:10271000D4020020100000200000C84270B5151C33
:102720000400081A07F008FA291C06F0EFFE051C41
:10273000200007F001FA011C281C06F075FB07F0C9
:10274000DBF970BD294BF7B5081C196806F0DEFEF1
:1027500009F01AF80022264B05F064FF09F066F82C
:10276000041C09F011F80B0002210200009121481D
:1027700003F0DEFFFC21201C890506F0F9FF002193
:10278000041C06F0F3FA002802D080231B06E4188C
:10279000211C201C06F048FB174B041C1978174B12
:1027A000221C1878FFF7BAFF154B221C1978154B1D
:1027B00005001878FFF7B2FF134B221C1978134B52
:1027C00006001878FFF7AAFF00240700FBB22000DC
:1027D000F2B2E9B2FFF726FDE8230134FF339C4251
:1027E000F4D10B4801F070FFF7BDC0461000002087
:1027F0000000F03F14100020C70200200800002055
:1028000009000020C5020020C6020020C4020020EA
:10281000D4020020002903DAE831FF3108007047B4
:10282000E823FF339942F9DDE839FF39F6E7000084
:10283000F0B5474C85B00390206808F0A5FF002252
:10284000002300F079FD08F0F1FF424B051C1860F1
:10285000206808F099FF404A404B07F0F7F908F06C
:10286000E5FF2060E8243E49281C06F04FFEFF34B7
:1028700007F042F90094002322003A4904F0AFFB2C
:1028800000270290324B1D68374B2A1C1978374BB2
:102890001878FFF743FF364B2A1C1978354B060092
:1028A0001878FFF73BFF344B2A1C1978334B040090
:1028B0001878FFF733FF029B0500F9180398FFF71C
:1028C000A9FF2F4BF6B2E4B2EDB2186022002B0044
:1028D0003100FFF7A7FC029B0398D91BFFF79AFF73
:1028E000274B2200186031002B000137FFF79AFCBC
:1028F0000B2FC7D1204B1E4A1B491B781278097831
:102900000298FFF78FFC1F4801F0DEFE0024029BB7
:1029100003981919FFF77EFF184E164D1349184FEB
:102920002A78337809783860FFF77CFC029B03989B
:10293000191BFFF76FFF0D4933782A7809780134A6
:102940003860FFF76FFC0B2CE1D105B0F0BDC0463D
:10295000F0020020D00200207B14AE47E17A843FD1
:102960000080F34319FEFFFF08000020C70200208B
:10297000C502002009000020C4020020C602002079
:10298000C0020020D4020020F0B5624B8BB006904C
:1029900018680C1C800008F08BFE5F4B04900591BA
:1029A00018685E4906F0B2FD5D4906F0E1FE07F0E9
:1029B000A3F807F0C1F8211C06F0A8FD08F0E4FE1A
:1029C0000022584B05F02EFE08F030FF564906F065
:1029D0009DFD07F091F80022524B070004980599DD
:1029E00007F034F902000B0000204E4907F04AFCC2
:1029F000089009910B0002004A49002008F0BEFA35
:102A00000023029003910193484B01981C78484B96
:102A10001D78484B1B78079308F04AFE049A059BE3
:102A200006F074F9061E3BD00298039908F0FEFEEA
:102A3000414B061C321C18782100FFF76FFE3F4BFC
:102A4000321C290004001878FFF768FE3C4B321C4A
:102A5000079905001878FFF761FE0600019B0698AC
:102A6000D919E4B2EDB2F6B2FFF7D4FE2A00330072
:102A70002100FFF7D7FB019B0698F91AFFF7CAFE62
:102A800033002A002100FFF7CDFB089A099B02982A
:102A9000039908F073FA019B029003910133B2E7A6
:102AA0002100079B2A003800FFF7BCFB254801F0F6
:102AB0000BFE3400204B20001D78204B1E78204B4D
:102AC0001B78019308F0F4FD049A059B06F01EF9AB
:102AD000002816D0E1190698FFF79CFE019B3200F2
:102AE0002900FFF79FFB391B0698FFF793FE144B55
:102AF000124A11491B7812780978FFF793FB0134C9
:102B0000D8E7019B320029003800FFF78BFB0BB0A0
:102B1000F0BDC0461400002010000020000020423C
:102B20000000A0410000F03F0080F34308000020B7
:102B3000C5020020C4020020C702002009000020B6
:102B4000C6020020D4020020F8B5334E04003378CA
:102B5000002B0BD0FF256A10EBB2D2B2002120006F
:102B6000013DFFF785FB002DF5D1357003F022F90B
:102B70002A4A2B49136809680600C31A8B4249D9AF
:102B8000284B294D1F682B681060002B02D12000B4
:102B9000FFF782FC3000390005F0A8FF080007F0BD
:102BA00015F8061C380007F011F8011C301C06F05F
:102BB000D5FA2B68061C012B03D1011C2000FFF75E
:102BC000C1FD2B68022B03D1311C2000FFF780FCD4
:102BD0002B68032B03D1311C2000FFF7A3FC2B68CB
:102BE000042B02D12000FFF7E7FC2B68052B03D153
:102BF000311C2000FFF7C8FE2B68062B03D1311CC7
:102C00002000FFF74BFD2B68072B03D1311C200060
:102C1000FFF70EFEF8BDC0460A000020EC020020BF
:102C2000CC02002004000020C8020020E82110B5DA
:102C3000064C52230522FF31200001F061FE044AB8
:102C40000449200005F0E6FC10BDC046D402002077
:102C5000000000200946000010B50400143000F008
:102C60000BFA00232360FA23DB002000636010BD11
:102C700070B50500084C0949200003F009FC290043
:102C8000200003F017FC200003F00CFC29000022B8
:102C9000034801F008FB70BD14100020E7DF0000BE
:102CA000FC02002037B5002301220500074C0193E8
:102CB000009282680649200001F021F829002000D6
:102CC00003F0DFFB200001F032FC37BDFC020020E6
:102CD00010DF00007FB5244C24490600200003F0DB
:102CE000D7FB234D01A8290000F098FE01A9200080
:102CF00003F0C7FB01A804F07DF91E49200003F092
:102D0000C7FB280000F09AFE1B49002800D11B4990
:102D1000200003F0BDFB1A49200003F0B9FB280096
:102D200000F095FE0A220100200003F01AFC15496C
:102D3000200003F0ADFB280000F092FE0E490028B1
:102D400000D10E49200003F0A3FB0F49200003F03F
:102D50009FFB31000A22200003F003FC0B492000F6
:102D600003F0B2FB7FBDC0461410002009E0000054
:102D7000FC02002029E00000FEDF000003E000006C
:102D800039E0000042E0000050E000005BE000009D
:102D900070B5104C1049200003F07AFB0F4D200055
:102DA000290003F091FB0E4A29000E4801F06AFE4B
:102DB000032807D00C49200003F06AFB0B4803F0FE
:102DC0002FF8F0E70A49200003F07EFB200003F013
:102DD00069FB70BD14100020A1DF00002800002056
:102DE0001800002048080020C5DF000088130000FC
:102DF000C7DF000037B500210A480B000A00009128
:102E000003F0C4FA084D280001F0DCFF074C29004C
:102E1000200000F0BBFD064A0649200005F0FAFB41
:102E200037BDC046F4020020C0030020FC02002091
:102E30000000002019390000F0B589B000AF04008F
:102E400008000D00FFF746FF08231C4EF81831005C
:102E500000F0E4FD6B460735ED08ED005B1B9D4679
:102E60006D467B60300000F03EFD002805D030004C
:102E700000F040FD28700135F4E7114D0826114996
:102E8000280003F005FB28000C25796803F01CFBE3
:102E9000B919481904F027F92000BB1959197A68A3
:102EA000143000F0E1F9BB19581904F0A3F8B8196F
:102EB00004F0A0F8BD4609B0F0BDC046FC020020F9
:102EC0001410002005DF0000F8B51E4C1E49050057
:102ED000200003F0DDFA1D4F2000390003F0F4FA62
:102EE0001B4E300000F027FE002804D019492000B6
:102EF00003F0EAFAF8BD184B39001A68300092B2B4
:102F000001F0E6FA002814D11449200003F0C0FAB9
:102F1000300000F0AEFD0A220100200003F025FB86
:102F20002800143000F01CF9FA20800002F078FF2D
:102F3000FEE70B49200003F0C7FA200003F0B2FAC5
:102F4000D8E7C0461410002017DF0000F8DE0000AC
:102F5000FC02002042DF00002400002056DF0000B9
:102F60007CDF00001FB50400FFF712FF2000FFF711
:102F7000ABFF194901A804F087F801A8FFF778FE14
:102F800001A804F037F8154901A804F07DF801A85C
:102F9000FFF76EFE01A804F02DF8114901A804F016
:102FA00073F801A8FFF764FE01A804F023F80D49A7
:102FB00001A804F069F801A8FFF75AFE01A804F07F
:102FC00019F8094901A804F05FF801A8FFF750FEBD
:102FD00001A804F00FF81FBDAAE00000B1E0000056
:102FE000B8E00000BEE00000C5E000007FB50400CE
:102FF00002F0E0FEA3686268C31A93422ED3184D14
:10300000A060280000F097FD002812D1154E164947
:10301000300003F059FA154801F05CFD032805D093
:103020001349300003F050FAFFF7B2FE2000FFF71B
:103030004BFF280001F0C2F8011E02D02000FFF76C
:10304000FBFE0C4901A804F01FF801A8FFF72AFEB7
:1030500001A803F0CFFF2368013323607FBDC04682
:10306000FC0200201410002063E00000480800204B
:1030700080E000009DE0000010B50400FFF7DEF8DE
:10308000200010BD7047000070B50600080008F071
:103090006FFC0400074D0849280003F0F9F90A22E3
:1030A0002100280003F061FA30002100FFF7CEF97B
:1030B00070BDC04614100020CEE0000073B50600BD
:1030C000080008F055FC06F037FD0021041C05F04F
:1030D0004DFE00281ED11249201C05F05BFE002881
:1030E0001AD1201C0E4906F039F8041C0D4D0E496A
:1030F000280003F0CDF9201C08F046FB0B0002214C
:1031000002000091280003F013FB3000211CFFF7A0
:10311000B7F973BD0024E9E7FE24A405E6E7C0463D
:103120000000C8421410002036E1000070B506000F
:10313000080008F01DFC0400074D0849280003F0B2
:10314000A7F90A222100280003F00FFA300021001D
:10315000FFF79CF970BDC0461410002012E100007A
:1031600070470B00303BDBB2402901D93739CBB275
:1031700010001B013038D9B2C0B2402A01D9373A09
:10318000D0B24018C0B27047F7B50C000600184D19
:103190001849280003F098F92100280003F094F959
:1031A000A27861783000FFF7DCFF22790700E17830
:1031B0003000FFF7D6FFA279617901903000FFF768
:1031C000D0FF0400390028000A2203F0E8F9019931
:1031D00028000A2203F0E3F9210028000A2203F064
:1031E000DEF9390030002300019AFFF7C3F8F7BD7C
:1031F00014100020DEE00000F7B50C000600184DAA
:103200001849280003F060F92100280003F05CF958
:10321000A27861783000FFF7A4FF22790700E178F7
:103220003000FFF79EFFA279617901903000FFF72F
:1032300098FF0400390028000A2203F0B0F9019930
:1032400028000A2203F0ABF9210028000A2203F02B
:10325000A6F9390030002300019AFFF7C1F8F7BD45
:1032600014100020F8E00000F8B50C000500224919
:103270002000160003F06FFF204F002807D0310018
:103280002800FFF781FF380003F00CF9F8BD1C4956
:10329000200003F060FF002804D031002800FFF771
:1032A000ABFFF0E71749200003F055FF002804D0DA
:1032B00031002800FFF7E8FEE5E71349200003F09E
:1032C0004AFF002804D031002800FFF7F7FEDAE7B4
:1032D0000E49200003F03FFF002804D031002800F1
:1032E000FFF724FFCFE70A49380003F0D1F82100A7
:1032F000380003F0DFF8C6E7AAE000001410002051
:10330000B1E00000BEE00000B8E00000C5E0000051
:1033100023E10000D0B50F00060008F093F9040087
:1033200008F0C6F93B00320005F0FAFC431E984154
:10333000241A2000D0BD0000F0B593B006000F00A5
:103340000092019306F082FCE14AE24B07F0A4FBF5
:1033500002000B0004000D003000390006F076FC7E
:10336000FFF7D8FF22002B0006900098019906F085
:103370006DFCFFF7CFFF069B0790181808F098F92F
:10338000D54AD64B07F088FB04000D00069808F0DC
:103390008FF922002B0007F0F1FD02000B00300036
:1033A000390007F0EBFD060007980F0008F080F9E0
:1033B00022002B0007F0E2FD02000B0000980199AB
:1033C00007F0DCFD0090019102000B003000390095
:1033D00005F0A6FC002800D16DE100230493013321
:1033E0000293029808F064F902000B0030003900E3
:1033F00007F0C4FDB84AB94B06F028FC08900991C3
:10340000049808F055F902000B000098019907F0A4
:10341000B5FDB14AB14B06F019FC00220A900B91A0
:10342000AF4B3000390007F0A9FDAB4AAD4B06F0B9
:103430000DFC00220C900D9100980199A84B07F00B
:103440009DFDA54AA74B06F001FCFF23069A0E90AE
:103450000F911A400692079A30001A4007923B00DB
:103460003200390007F018FB02000B0000209E49D3
:1034700007F084FD009A019B04000D001000190064
:1034800007F00AFB02000B002000290007F076FD80
:103490000022002304000D0005F04CFC002800D1A0
:1034A0000DE122002B002000290007F0F5FA03258A
:1034B0008E4B079A109011919A5C06998C4B8D4C0B
:1034C0005B189B5C5D43285708F0F2F832003B0024
:1034D00007F0E2FA06000120641920560F0008F0F8
:1034E000E7F8009A019B07F0D7FA02000B003000C2
:1034F000390006F0ABFB109A119B04000D00100080
:10350000190007F0C9FA02000B002000290007F09B
:10351000C3FA00900191089A099B1000190007F066
:10352000BBFA02000B0000206F4907F027FD0A9A42
:103530000B9B04000D001000190007F0ADFA02000B
:103540000B002000290007F019FD002200230400D1
:103550000D0005F0EFFB002800D1B5E022002B00A4
:103560002000290007F098FA0325049A5F4B0F000A
:103570009B18079A02999A5C5D4B5E4C5B18069902
:1035800006005B189B5C5D43285708F091F8089A89
:10359000099B07F081FA02900391012064192056DB
:1035A00008F086F80A9A0B9B07F076FA02000B00E7
:1035B0000298039906F04AFB32003B0004000D001C
:1035C0003000390007F068FA02000B0020002900E3
:1035D00007F062FA06000F000C9A0D9B100019000C
:1035E00007F05AFA02000B0000203F4907F0C6FC22
:1035F0000E9A0F9B04000D001000190007F04CFA02
:1036000002000B002000290007F0B8FC0022002374
:1036100004000D0005F08EFB002800D16EE02200B2
:103620002B002000290007F037FA0325079A2F4BBB
:10363000029003919B185A7806992D4B2D4C5B18DC
:103640009B185B785D43285708F032F80C9A0D9B65
:1036500007F022FA0490059101206419205608F021
:1036600027F80E9A0F9B07F017FA02000B00049838
:10367000059906F0EBFA029A039B04000D00100076
:10368000190007F009FA02000B002000290007F0DA
:1036900003FA04000D000098019932003B0006F087
:1036A000D5FA22002B0006F0D1FA0022124B07F0C7
:1036B000F3F913B0F0BD01230493002390E6002337
:1036C00000240093019426E70026002784E7C046E3
:1036D0005499B0D0F56CD73FC899DF74B10CCB3F8B
:1036E0000000F03FB10CDB3F0000E03FD4030020BE
:1036F000F8050020D405002000805140002400255A
:10370000C9E7C04601200021FF22154B18715971ED
:1037100098711972D972187359739873197458740F
:103720009874D9749975197658769876D9765877A9
:103730009977DA715A729A72DA731A755A75DA755C
:103740001A77187058709970DA70D8771818C2778D
:10375000981CC177D91C0433CA77DA777047C04602
:10376000D405002070B50C0002F024FB05002418DD
:1037700002F020FB854201D88442F9D270BD10B519
:103780000122FFF7EFFF10BD10B5040000290BD197
:1037900002F010FB6368C01A202805D821210122FD
:1037A000091A2000FFF7DEFF02F004FB6060012031
:1037B00010BD7047FA2010B50C00800002F030FBFD
:1037C0002100024803F0ACFE10BDC04614100020DA
:1037D000002310B543644360994201D0FFF7CFFF47
:1037E00010BD000070B505000E0002F0E3FA0A4CAF
:1037F00068600A49200002F04BFE0A2231002000D6
:1038000002F0C9FE0649200002F05EFE28003221C7
:10381000FFF7B5FF70BDC0461410002045E1000061
:103820004CE100000022034B9A60DA601A615A6191
:103830007047C046F8070020F7B50191037E0500E8
:103840006320002B08D0154EFF27300003F0D6FD73
:10385000C0B2002801D16520FEBD300003F0CEFDCE
:10386000C0B20028F7D0300003F004FE04003C4052
:10387000682C08D009DC582C0DD0632CEDD10199AF
:103880002800FFF7AFFF6320E6E7712CFBD0762C12
:10389000E3D1C0B2E0E700232B76F4E71410002058
:1038A00070B50400150000290CD001230376002117
:1038B0002000FFF7C1FF632804D001212000FFF79B
:1038C0005EFFF4E7257670BD0020704770477047B3
:1038D000704713B56B460268D971073354681900F5
:1038E0000122A04716BD026D0023062A00D1836D78
:1038F0001800704713B56B46DC1D036801225B6A34
:1039000021009847012801D1207816BD01204042AE
:10391000FBE770470120704770B50500154BB435C3
:103920000833036004002868002803D008F06CF80E
:1039300000232B602500A8352868002803D008F054
:1039400063F800232B602000883003F053FB200035
:10395000643003F04FFB2000303003F04BFB2000BD
:10396000243003F047FB2000183003F043FB200015
:1039700070BDC04668E1000010B50400FFF7CCFF41
:10398000200002F051FD200010BD0000FA2370B5A8
:10399000002504009B0083601C4B1D4E0833036010
:1039A0004560456101613100183003F06DFB200076
:1039B0003100243003F068FB20003100303003F088
:1039C00063FB144B2000E363134B65642364230003
:1039D00048331D703100E5642565643003F054FB05
:1039E00020003100883003F04FFB2300A0339D609E
:1039F000DD605D611D83DD611D6008331D7629007A
:103A0000200003F072F8200070BDC04668E100009D
:103A10004AE5000060EA00003075000010B50B6D4B
:103A20000400062B04D1643103F05DFB200010BDBF
:103A3000014903F029FBF9E74AE50000036D062B75
:103A400002D174300078704701204042FBE7036DDB
:103A5000062B02D175300078704701204042FBE709
:103A6000036D062B02D1763000787047012040426A
:103A7000FBE7406C70470300A03070B504001500F0
:103A80009C3318682368C01807F0DAFF2368280001
:103A90005B19236070BD07B56B46D97107330122EE
:103AA0001900FFF7E8FF0EBDF8B506001C00069BE5
:103AB00005009C363360002309011143A0352B60BB
:103AC000C9B28027FFF7E7FF7F4223007F22E40986
:103AD0001340002C01D03B43DBB22A683168501CF4
:103AE00028608B54002CF0D12868F8BD07B50B0076
:103AF0006A465BBA911D02220B80FFF7BCFF0EBD28
:103B0000F8B50F00110005001600FFF7EFFF3200B7
:103B1000040039002800FFF7AEFF2018F8BD10B5EB
:103B2000006903685B69984710BD10B500690368B8
:103B3000DB6A984710BD10B50400FFF7F6FF0023BD
:103B4000984201D048342378180010BD10B50069A0
:103B500003681B69984710BD70B5040002F02AF98C
:103B600005002000FFF7F2FF002803D02000FFF738
:103B7000D6FF70BD2000FFF7D8FF002807D002F065
:103B800073F902F017F9034B401B9842E9D9012061
:103B90004042EEE7E703000010B5006903689B6947
:103BA000984710BD10B5036D062B02D1FFF7F4FF47
:103BB00010BD01204042FBE710B5006903685B6857
:103BC000984710BD0300F7B5BC331B680F00140005
:103BD000002B04D0FFF74FFF04002000FEBD0300C0
:103BE000A4331B78002B02D0FFF7E6FFF4E70600B2
:103BF000AC3633680193D318FF2B03D98024019B83
:103C00006400E41AA83003680500002B04D180206A
:103C1000400007F0EFFE2860019B28682200C018D2
:103C2000390007F00DFF33681B193360D5E710B575
:103C3000030004009C33A03419682268FFF7BCFF1E
:103C40002368181A434258410023236010BDF0B581
:103C5000060085B002AF7960953632780400002006
:103C6000022A44D8230090331D68AB1C82420BD03B
:103C700098208446A444604600882B1D013080B201
:103C8000002836D061460880180069460C30C0080C
:103C9000C000091A8D4694218C46A444614602A8AE
:103CA0000978002A27D10A0096218C46A44461464F
:103CB0000978002901D008210A43796800905B182F
:103CC00020000321FFF7F0FE230088331968AAB211
:103CD0002000FFF715FF3378002B05D02300983321
:103CE00019882000FFF702FF2000FFF7A0FFBD4664
:103CF000FEBD0120C6E752000A43D2B2D4E7F7B5B1
:103D000004001F0008AB1E7809AB1B788830150033
:103D1000019303F0F2F96A462300127994339A7002
:103D200000221F705E7018331A606B1C5A1E93417C
:103D30002200A43213706B1C02D101252800FEBDA5
:103D400029002000FFF783FF051EF6D1236820001D
:103D50009B6A9847F2E730B504000D0085B003ABCD
:103D60000022009304210223FFF79EFE2900200079
:103D7000FFF7BCFE2000FFF75AFF05B030BD30B59D
:103D800004000D0085B003AB00220093052102233F
:103D9000FFF78AFE29002000FFF7A8FE2000FFF7AA
:103DA00046FF05B030BD030010B575331B78012BFD
:103DB00005D1030078331988FFF7CDFF10BD022B22
:103DC000FCD1030078331988FFF7D9FFF6E7F8B57F
:103DD000036D05000F001400062B02D00024200004
:103DE000F8BD03681B6998470600A04200D9260069
:103DF0000024A64207D02800FFF7AEFE431C02D0E5
:103E000038550134F5E7002CE8D0AB6D1E1BAE65CC
:103E1000E5D12800FFF7C7FF2E65E0E730B585B094
:103E200003AB0093022304000D001A000621FFF7E4
:103E30003BFE29002000FFF759FE2000FFF7F7FEA8
:103E400005B030BD30B504000D0085B003AB0022D5
:103E5000009307210223FFF727FE29002000FFF728
:103E600045FE2000FFF7E3FE05B030BD1FB503ABF4
:103E70000093002304001A000C21FFF715FE200018
:103E8000FFF7D5FE1FBD0000F8B50400FFF75EFE8A
:103E9000002808D12000FFF748FE002803D12300A6
:103EA00048332065187020002700FFF74FFE0837C1
:103EB000002879D02000FFF732FE0500C6B201F0DD
:103EC00079FFF867206D07286AD804F07FFD0800A5
:103ED00018009800EC0018013901610161010F23FD
:103EE0002D111D401E402200230054325533157001
:103EF0001E700023A3650133E365236550E07F2333
:103F0000E26D2B405343A16DD2015B188021A36564
:103F1000E26589038A4204D9236820009B6A984796
:103F200055E02A06BFD42200543212780B2A05D855
:103F3000A049D140C9070CD4032A14D0062A47D17E
:103F4000220055321278022AE6D1022BE4D1022354
:103F500053E02100553109780029DDD1022BDBD156
:103F6000032A07D0F3E72300062255331B781340BA
:103F70009342D1D02300220055331B787432D909E3
:103F80001170200003215A100A407530027001227E
:103F9000134022007632137021650022231DDA6758
:103FA000236D062B00D07EE7230048331B78002BBF
:103FB0000DD001F0FFFE2100B0310A68E36B821AD8
:103FC0009A4200D2EEE008602000FFF74FFFF8BDF4
:103FD000092A07D1220055321278002A9CD1032BDE
:103FE000B5D099E70D2A97D1220055321278002AD0
:103FF00000D091E7002B00D08EE72365CDE7211D8F
:10400000CB6F5A1CE3187A33CA671E70A36D9A42AD
:1040100000D048E700232365230054331B78022B8C
:1040200003D123007B331B7814E01A1F012A03D924
:10403000FB21DA1F0A420FD1230021007A331A78BC
:10404000983101331B78098812021343994200D03A
:1040500029E700232366A3E7062B11D12300A4330D
:104060001B78002B00D01EE7230022007A337B321E
:104070001B7811781B0219432000FFF7E3FE8FE73E
:10408000092B00D00FE7230021007A331A789831EA
:1040900001331B78098812021343994200D002E7CA
:1040A00023007C33BFE7251DEB6F5A1CE3187A33DE
:1040B000EA671E70022A00D0F5E6230026007A3354
:1040C0001B8864365BBA9BB22367A36D3A49023BF7
:1040D000A365300003F011F8216F300002F0ABFF50
:1040E000230075331978A26D236F002900D00233A5
:1040F0009A4200D210E70023EB670433FDE620006C
:104100003100643003F01DF8206FE36E984200D058
:1041100046E7A36D181A2300A06575331B78002BA2
:1041200001D00523E9E6062323656369002B00D14E
:104130003AE79847A36D002B00D031E70023DCE677
:10414000211DCB6F5A1CE3187A33CA671E70022AEE
:1041500000D0A8E6A36D981E2300A0657A331A78D4
:1041600001331B7812021343220078321380062396
:1041700023656369002B00D09847A36D002B00D006
:104180000EE72000FFF70FFE6369002BD6D107E78B
:10419000A36D002B01D0013BA365A36D002BCDD0F7
:1041A0000723AAE6FA6F5B00801A984200D20EE756
:1041B000B2E6C046B40800004AE5000010B5036D41
:1041C0000400062B01D1013303652000FFF75CFEDC
:1041D000236D0020062B00D1A06D10BDF0B585B079
:1041E00002AF0400080079603A6008F0E5F93B6826
:1041F00006000025022B2CD8250098352B8801338A
:104200009BB2002B28D02B8033006A461133DB0889
:10421000DB00D31A9D4602AA731D009208210222D8
:104220002000FFF741FC29882000FFF75FFCB2B2B5
:1042300079682000FFF764FC39682000FFF72BFC49
:104240002000FFF7F4FC051E08D1236820009B6ABC
:104250009847BD462800FEBD0123D4E701235B42F9
:1042600023668133E36401F0A5FD050001F0A2FDA2
:10427000236C401B984210D22000FFF756FC002808
:104280000BD02000FFF700FE236E5A1CEED0002555
:104290000222E3649A426D41DBE7236820009B6AB7
:1042A00098470025D5E710B50968FFF797FF10BDBF
:1042B000F0B58FB002AF04000E001500FB60FFF7F1
:1042C00034FC002803D0206903689B6A98472200C9
:1042D000002348322365137050321380206903682D
:1042E000002D0DD029001B6AFA689847002813D1C9
:1042F000022300255B4263642800BD460DB0F0BD7B
:1043000010250C21674ADB69FA6172687D19BA6071
:104310003A626918FA68E8E701F04CFD23000833B7
:10432000D867210010231831F81802F0DCFEE36A88
:10433000BE69FB60A36BBB60002E0FD101F03AFD9C
:104340000C2510360300B8191121574A401908F0FE
:10435000EFF8BB195919180002F0CFFE2300B8334B
:104360001D880023FA680C35AD199A4203D013005A
:104370000233ED188023BA68002A04D04022134388
:10438000BA680232AD182200C032117802220A4304
:1043900013437B6080231020DB00BB830E2338187F
:1043A00004224249C01807F04BFB22220423BA180A
:1043B00013702322FA213B79BA181370E06B89003D
:1043C00004F00EFB0302000A18432B006A460C336C
:1043D000DB08DB00D31A9D4602ABB88400220093B1
:1043E00001212B002000FFF75FFB10210C2379181F
:1043F000C9180A222000FFF73EFBB2B2396920003B
:10440000FFF77EFB2300B8331A88002A04D0043B50
:1044100019682000FFF72FFBFB68002B04D0BA8936
:10442000616A2000FFF76CFBBB68002B04D03A895F
:10443000216B2000FFF764FB2000FFF7F8FB051E4F
:104440000AD1206903689B6A984703236364102399
:10445000F81802F0CFFD4FE701235B42236601F01D
:10446000A9FC050001F0A6FC236C401B98420AD26F
:104470002000FFF75AFB002805D02000FFF704FDBD
:10448000236E0133EED0236E6364002B03D101252C
:1044900048342570DBE72069002503689B6A98474C
:1044A000D5E7C04638E5000053E1000061E10000B7
:1044B0001FB51300054A02924A6802A901920392AD
:1044C0000022FFF7F5FE05B000BDC04638E500004C
:1044D00073B516000D0004000021684601F064FF6A
:1044E00033002A0069462000FFF7E2FE76BD1FB5C3
:1044F00003AB0093002304001A000E21FFF7D4FA47
:104500002000FFF794FB1FBD10B503680400DB6AB1
:104510009847002802D02000FFF7E9FF230000227F
:1045200048331A70206903689B6A984710BD70B5BC
:104530000600A43633780400002B16D10500AC35F4
:104540002968FFF784FB002805D1236820009B6AB7
:104550009847002070BD2300A83319682A682000FE
:10456000FFF72AFB2B689842EFD10023337023001A
:1045700095331B780120002BECD0022B10D1033B8C
:10458000236601F017FC050001F014FC236C401BAE
:1045900098421FD32300983319882000FFF73EFC70
:1045A00001235B42236601F005FC050001F002FCDB
:1045B000236C401B9842CCD22000FFF7B6FA0028AB
:1045C000C7D02000FFF760FC206E431CEED04342B2
:1045D0005841BFE72000FFF7A8FA0028DAD02000F2
:1045E000FFF752FC236E5A1CCED0002BD2D0B0E77E
:1045F00007B50021034800910B000A0001F0C6FE38
:1046000007BDC0464008002010B50400C06807F090
:10461000FBF90623E05E002802DB002101F09CFD8F
:10462000200010BD10B504000623C05E002807DB83
:10463000012101F091FD0623E05E002101F0D8FD8B
:104640000123637010BD70B50500C0680E0007F04F
:10465000DBF92B7CEC7CE41A631E9C41033474432D
:10466000A4B2AC80200007F0C5F9E860002805D0AE
:104670002200002107F000FA6E8070BDA8806880DB
:10468000FBE70322F8B58B110D118E101640134075
:1046900015400A40467482740026FF228A42764101
:1046A000C268C47C077CC37405740670002A0AD0F3
:1046B000E21B5B1B51424A4159424B419A4202D094
:1046C0004188FFF7C0FFF8BDF8B5C3680400002BB0
:1046D00000D1F3E0656901F073FB854202D901F076
:1046E0006FFB606101F06CFB6369C01A2C23FF3320
:1046F0009842EFD972B60622A35E182201205343D6
:104700006F4FA688FA185268DB5D9040E268DB01C3
:104710009619511C15786B4A9F186B4A9B18227882
:10472000002A00D058E0803294463860C046C04627
:10473000C046C046C046C046C046C046C046C04649
:10474000C0462A4200D192E0C046C046C046C0469C
:10475000C046C046C046C046C046C046C046C04629
:10476000C046C046C046C046C046C046C046C04619
:10477000C046C046C046C046C046C046C046186097
:10478000C046C046C046C046C046C046C046C046F9
:10479000C046C046C046C046C046C046C046C046E9
:1047A000C046C046C046C046C046C046C046C046D9
:1047B000C046C046C046C046C046C046C046C046C9
:1047C000521000D170E0D2B2C046C046C046C046CA
:1047D000C046C046C046A8E7802294463860C0461E
:1047E000C046C046C046C046C046C046C0462A4233
:1047F00021D0C046C046C046C046C046C046C0469E
:10480000C046C046C046C046C046C046C046C04678
:10481000C046C046C046C046C0461860521020D0B0
:10482000D2B2C046C046C046C046C046C046C046DA
:10483000C046C046D2E71860C046C046C046C04623
:10484000C046C046C046C046C046C046C046C04638
:10485000C046C046C046C046C046C046C046C04628
:10486000DCE7B14226D20D7862460131B6E7186026
:10487000C046C046C046C046C046C046C046C04608
:10488000C046C046C046C046C046C046C046C046F8
:10489000C046C046C046C046C046C046C046C046E8
:1048A000C046C046C0466BE7B14203D20D786246AF
:1048B00001313AE762B601F083FA6061F8BDC046A3
:1048C00018E20000184400411444004170B54378D8
:1048D00004000D00002B06D00623C05E002802DB7A
:1048E000002101F039FC6378E580002B07D001211D
:1048F000280001F031FC0021280001F079FC70BD96
:1049000070B51500002204000E0042700272C260F1
:1049100042611900FFF7B5FE31002000FFF793FE5A
:1049200029002000FFF7D2FF200070BDF0B505ACD4
:10493000257844888C4216D9047A002C05D062432D
:1049400063436543120A1B0A2D0AC47C077CC668B0
:10495000A74209D1032461437118047C0A55427CA3
:104960008B54837CCD54F0BD8900711800260E5500
:10497000F3E74388F7B58B421AD9037A150C140A6A
:10498000002B16D1E4B2EDB20194D6B2B446047C49
:10499000C67CC768B44218D1032359437F186A46BE
:1049A000037C1279FD54437CFA546246837CFA54AA
:1049B000F7BDFF26344035405C4316405D435E43FF
:1049C000240A2D0A0194360AE0E789007F18120EA6
:1049D000002B02D1D3B2BB55E1E753431B0AFAE7E0
:1049E000F7B54388020000208B4224D9D57C177C80
:1049F000D368147A567C927CBD421DD1033041436A
:104A000059188F5D485D3F028D5C002C10D021004D
:104A1000000203F0E5FF21000604380003F0E0FF88
:104A2000000206432100280203F0DAFF304302E0CF
:104A3000000438432843FEBD890059188E5D485D47
:104A40003602CD5D8F5C002C17D02100000203F0F0
:104A5000C7FF210003062802019303F0C1FF019D57
:104A6000000405432100380203F0BAFF210005438A
:104A7000300003F0B5FF0002DCE700062D042843F8
:104A80003843D3E7F8B5060008000D00170007F01B
:104A900093FD0400380007F08FFDE1B2C3B23A0085
:104AA000280000F0F9FE0424431C11D001F082F923
:104AB0000024050001F07EF93368401B984207D2BC
:104AC000642001F0ADF900F029FF04000228F1D9BB
:104AD0002000F8BD10B500F021FF10BD10B5080092
:104AE000110000F0BFFF10BD07B5002104480B0006
:104AF0000A00009101F04AFC024B034A1A6007BD0C
:104B00004C0800204808002050C3000013B56B4635
:104B10000268D9710733546819000122A04716BDF5
:104B20007047007CFF38431E9841C0B270470000B8
:104B300070B50E0086B0040002A8150001F01EFC3E
:104B400002AA31000848FFF7C9FF00280AD0074A27
:104B500023680492039ADB690192059204A92A0052
:104B60002000984706B070BD4808002038E50000D6
:104B700070B5037C04000D001600FF2B02D0036803
:104B80009B6A984700F066FB02002074FF281ED045
:104B900068680023310000F0A9F901F00BF9050065
:104BA00023682000DB6A9847002809D101F002F948
:104BB0000A4B401B984203D8012001F031F9EFE77E
:104BC00023682000DB6A9847431E984170BD044962
:104BD000044801F079FC0020F8E7C0460F270000E8
:104BE000B8E100001410002070B5037C04000D0033
:104BF0001600FF2B02D003689B6A984700F02AFB3F
:104C000002002074FF281ED068680223310000F0E3
:104C10006DF901F0CFF8050023682000DB6A9847A2
:104C2000002809D101F0C6F80A4B401B984203D86E
:104C3000012001F0F5F8EFE723682000DB6A9847D0
:104C4000431E984170BD0449044801F03DFC00201A
:104C5000F8E7C0460F270000B8E10000141000205C
:104C6000F7B5037C04000E001700FF2B02D0036889
:104C70009B6A984700F0EEFA05002074FF2825D0C3
:104C8000300007F099FC0223C1B2019300953B006C
:104C90000022300000F06AF901F08CF8050023686A
:104CA0002000DB6A9847002809D101F083F80A4BFD
:104CB000401B984203D8012001F0B2F8EFE72368C7
:104CC0002000DB6A9847431E9841FEBD0349044813
:104CD00001F0FAFB0020F8E70F270000B8E1000020
:104CE0001410002070B50500007CFF2804D10123BA
:104CF00000246B60200070BD002AF8D092B200F052
:104D00001FFA041EF3D0287C00F05AFA0028EED0D7
:104D1000F0E7000010B5017C0020FF2902D0024816
:104D200000F00EFD10BDC04680080020036837B5B6
:104D30001B6904009847002809D06B46DD1D217CC3
:104D400001232A00034800F037FD28783EBD0120EA
:104D50004042FBE78008002010B50C001300017CE6
:104D60002200024800F028FD10BDC0468008002047
:104D700010B5017C014800F00FFD10BD8008002037
:104D800007B500236A4601931380007C01A900F057
:104D900041FD6B466A461B7850781B02C01880B2F2
:104DA0000EBD13B500236A46040001931380087CEE
:104DB00001A900F02FFD01A9200001F0FDFA20005B
:104DC00016BD000000234360FA239B008360034B61
:104DD00008330360FF2303747047C046CCE1000032
:104DE00010B5037C0020FF2B02D0180000F03AF928
:104DF00010BD000070B50400007CFF2814D000F046
:104E0000FFF832252000FFF7EBFF002806D0013D18
:104E1000002D03D0642001F003F8F3E7217C034860
:104E200000F074FCFF23237470BDC046800800208E
:104E300070B5037C04000025FF2B05D003681B69B7
:104E40009847A84202D00125280070BD2000FFF736
:104E5000C7FF0A28F7D8054BC340DB07F3D5217CF1
:104E6000034800F053FCFF232374EDE7EF04000038
:104E70008008002007B50021034800910B000A00BC
:104E800001F084FA07BDC0465408002007B5002190
:104E9000034800910B000A0001F078FA07BDC046F4
:104EA0005C08002007B50021034800910B000A00B0
:104EB00001F06CFA07BDC0466408002007B5002168
:104EC000034800910B000A0001F060FA07BDC046DC
:104ED0006C08002007B50021034800910B000A0070
:104EE00001F054FA07BDC046740800207FB50E00DB
:104EF00069468C1C23701C4BCD1C1B7801902A70BA
:104F0000002B01D100F0CEF900F064FA00F022FA93
:104F100004212D2000F0D8FB002201A8042100F07C
:104F2000DFFA3000002100F0BDFB28000022012143
:104F300000F0D6FA01222000110000F0D1FA00F0B2
:104F40002FFA00F047FA00F005FA0E220F23002195
:104F50006A446B44117019702D20013100F0E8FA99
:104F600000F01EFA7FBDC0467D0800207FB51D0001
:104F7000224B06001B780C000192002B01D100F09F
:104F800091F900F027FA00F0E5F905212D2000F055
:104F90009BFB30000022210000F0A2FA0022042135
:104FA00001A800F09DFA0021280000F07BFB002200
:104FB000012108A800F094FA012209A8110000F0CC
:104FC0008FFA03262500113535400134002D02D01B
:104FD00000F01CFAF6E700F0E3F900F0FBF900F04E
:104FE000B9F90E220F236A446B4401212D2015705C
:104FF0001D7000F09DFA00F0D3F97FBD7D08002000
:105000001FB56B46DC1D164B20701B78002B01D1A1
:1050100000F048F900F0DEF900F09CF901212E20A3
:1050200000F052FB01222000110000F059FA00F0BC
:10503000EDF900F0EBF900F0B3F900F0CBF900F076
:1050400089F90E220F2300216A446B4411701970F4
:105050002E20013100F06CFA00F0A2F91FBDC0460D
:105060007D0800201FB56B46DC1D174B20701B7898
:10507000002B01D100F016F900F0ACF900F06AF94C
:1050800001212F2000F020FB01222000110000F060
:1050900027FA0E2400F0BAF900F0B8F900F080F910
:1050A00000F098F900F056F90F2300226C446B448D
:1050B0001A702270012122002F2000F039FA00F02E
:1050C0006FF9207804B010BD7D08002073B56B46E1
:1050D000DD1D0E001400287000F009FB002801D12E
:1050E000208076BD154B1B78002B01D100F0DAF83B
:1050F00000F070F900F02EF90221452000F0E4FAEA
:1051000000220121280000F0B8FA0122022120002B
:1051100000F0B3FA00F07AF900F042F900F05AF921
:1051200000F018F922003100452000F074FA00F078
:1051300037F92088431E9841C0B2D2E77D0800208D
:105140007FB56B46DD1D1D4B0E001B7814002870CB
:10515000002B01D100F0A6F800F03CF900F0FAF8BD
:105160000221442000F0B0FA00220121280000F0C2
:1051700084FA30000122210000F07FFA0326250086
:10518000093535400134002D02D000F03FF9F6E733
:105190000E2400F005F900F01DF900F0DBF80D22F7
:1051A0006C446A44210044201570258000F0F4F915
:1051B00000F0F6F8208804B070BDC0467D080020DD
:1051C000F0B50E2585B06B46002401262A276D44D4
:1051D000D8712C70DC731E4B1B78002B01D100F0B2
:1051E00061F800F0F7F800F0B5F83100380000F091
:1051F0006BFA6B4632003100D81D00F071F900F0F7
:1052000005F900F003F900F0CBF800F0E3F800F046
:10521000A1F80F232A006B443100380000F088F910
:1052200000F0BEF82B78002B0FD101346420A4B21B
:1052300000F0F6FD2B78002B01D1182CCBD9193CAE
:10524000601E8441E0B205B0F0BD0024F2E7C04624
:105250007D080020124B13B51B78002B01D100F004
:1052600021F800F0B7F800F075F800213F2000F0B9
:105270002BFA00F095F800F0ADF800F06BF86B46F3
:105280009C1DFF2323706B46002207331A700121F7
:1052900022003F2000F04CF900F082F8207816BD83
:1052A0007D080020F8B51823234E244F3370244C7A
:1052B00004333B70013B237000F0AEFC214D1A28F3
:1052C00004D801232B702378DB4323701E4800F0A1
:1052D00011FC3078012100F03FFF3878002100F008
:1052E0003BFF2078012100F037FF01211A2000F058
:1052F00033FF01211A2000F07BFF3078012100F0FC
:1053000077FF2978207800F073FF0A2000F088FDED
:10531000297801252078694000F06AFF0B4800F0E9
:105320007FFD00211A2000F063FF00211A2000F009
:1053300013FF074B1D70F8BD380000203600002019
:10534000370000207C0800201C090020EE0200002D
:105350007D08002013B500246B465C711C71019A16
:105360000B490C4800F0EEFB0B4B2100187800F0C5
:105370003FFF00F01FFD0400084B187800F064FFA9
:10538000012804D000F016FD001B0428F4D913BD39
:1053900000127A001C09002038000020360000208E
:1053A00010B5044B0121187800F022FF024800F0EC
:1053B000E5FB10BD380000201C09002007B56B4636
:1053C000D871D9790248C9B200F0ECFB0EBDC046D5
:1053D0001C09002010B5034B187800F035FF002899
:1053E000F9D110BD3600002010B50400FF20FFF7F2
:1053F000E5FF207010BD70B50C0005000800FFF738
:10540000F3FF2078401B4342584170BD13B56B46F3
:10541000DC1D002320002370FFF7E6FF207816BD77
:1054200070B50500084CFFF7F1FFEF2808D0013CEC
:10543000002C01D0A842F6D1401B4342584170BD18
:1054400001204042FBE7C046E9030000F0B587B009
:1054500004ABDE1D00230500E0200391140033702F
:10546000FFF7DEFF002802D1002007B0F0BD3000BA
:10547000FFF7BAFF802233781543AB42F4D1FFF730
:10548000C5FF01900028EFD005234343E3180293A2
:10549000029B9C421AD0FF20FFF790FF002720704C
:1054A0002378BB4210DDA37865781B022B43E57897
:1054B000FF202D042B4325792D061D43FFF77EFF8A
:1054C000ED1928700137EBE70534E1E7019B039AFA
:1054D0009342C9D13100EE20FFF78DFF0120C4E7D0
:1054E000F8B5050008000E0017002C00FFF766FF56
:1054F000631B9E4204DD2078FFF760FF0134F7E76D
:10550000012F02D1EE20FFF759FFF8BD10B50400BE
:10551000000AFFF753FFE0B2FFF750FF10BD10B5D0
:105520000400FF20FFF74AFF002C00D0207010BDC0
:10553000F0B585B01F0002ABDC1D00230500E020A4
:10554000019116002370FFF76BFF002802D10020A5
:1055500005B0F0BD2000FFF747FF802223781543F8
:10556000AB42F4D12000FFF73FFF2378019A93422A
:10557000EDD13800FFF7D3FF35003A78AB1B9A42E4
:1055800004DD2800FFF730FF0135F6E72100EE20AB
:10559000FFF731FF0120DBE7F7B56B46DC1D002389
:1055A0000500E0200E0017002370FFF739FF0028E8
:1055B00001D10020FEBD2000FFF716FF80222378D6
:1055C0001543AB42F5D1FFF721FF00280DD038007D
:1055D000FFF7A5FF35003A78AB1B9A4205DDFF20A7
:1055E000FFF7ECFE28700135F5E72100EE20FFF70C
:1055F00002FF0120DEE770B50500FF20FFF7DEFEA9
:105600000400FF20FFF7DAFE2402204380B2002DC1
:1056100000D0288070BDF0B5002485B002AB070033
:10562000DD1DE020019116002C70FFF7F9FEA0426D
:1056300002D1002005B0F0BD2800FFF7D5FE802282
:105640002B781743BB42F4D1FFF7E0FE00280ED0C1
:105650003000FFF7D0FF3388A34208D9019BFF2019
:105660001F19FFF7ABFE01343870A4B2F3E729002D
:10567000EE20FFF7C0FE0120DCE770B504000D004E
:1056800008001600FFF742FF6519AC4204D02078ED
:10569000FFF794FE0134F8E7012E02D1EE20FFF768
:1056A0008DFE70BD70B5040002200D00FFF786FE70
:1056B000200AFFF783FEE0B2FFF780FE012D02D142
:1056C000EE20FFF77BFE70BD70B50400E0200D00FA
:1056D000FFF774FE7F202040FFF770FE2800FFF7E1
:1056E0006DFE002D02D1EE20FFF768FE70BD10B5F3
:1056F0001A2000F0A9FD431E984110BD10B504000A
:105700007822002106F0B8F9200010BD10B50C2455
:105710004C4304192068002805D006F075F90023D1
:1057200063602360A36010BD70B5050000242100F4
:1057300028000134FFF7EAFF0A2CF8D1280070BDD9
:10574000F7B50C244C430419A36805000E00002B88
:105750001AD12768002F05D10E4806F04BF9A76033
:10576000606020606B469F1D0A4BF0B23A002168D2
:105770003B80FFF7ABFC002806D023683A886360C3
:105780000C237343EB189A600C235E43AD19A86891
:10579000FEBDC046DC05000070B504000D00FFF73B
:1057A000CFFF002805D00C2169436418636818787E
:1057B00070BD01204042FBE7F8B506000C00170061
:1057C0001D00FFF7BDFF002811D0854200DD050058
:1057D0000C235C4334192A006168380006F030F964
:1057E000280063685B196360A3685B1BA360F8BD56
:1057F00010B5054C2000FFF781FF044A0449200042
:1058000002F008FF10BDC046800800200000002004
:105810002957000070B586B06B46DE1D0C001500E0
:1058200030700622002103A806F026F90D23220A73
:105830006B441C705A70220C240E9A70DC70122378
:105840006B441D802D0C5D80124B1B78002B01D109
:10585000FFF728FDFFF7BEFDFFF77CFD01213A2091
:10586000FFF732FF012230001100FFF739FEFFF78A
:10587000CDFDFFF7CBFDFFF793FDFFF7ABFDFFF786
:1058800069FD03AA02213A20FFF7E0FDFFF788FD3A
:1058900006B070BD7D080020F7B51D001E4B070047
:1058A0001B780C001600002B01D1FFF7FBFCFFF763
:1058B00091FDFFF74FFD02211120FFF705FF2100A9
:1058C00000223800FFF70CFE300001222900FFF70C
:1058D00007FE0326063464192500354003D0FFF780
:1058E00095FD0134F8E7FFF75BFDFFF773FDFFF768
:1058F00031FD6B469C1D22000733012111202570CC
:105900001D70FFF715FE002801D1FF232370FFF75C
:1059100047FD00202056FEBD7D080020124B13B528
:105920001B78002B01D1FFF7BDFCFFF753FDFFF7FC
:1059300011FD00212020FFF7C7FEFFF731FDFFF723
:1059400049FDFFF707FD6B469C1DFF2323706B4647
:10595000002207331A70012122002020FFF7E8FD02
:10596000FFF71EFD207816BD7D0800201F4B73B584
:105970001B780400002B01D1FFF794FCFFF72AFDF0
:10598000FFF7E8FC01213420FFF79EFE200006F01F
:1059900013FE0122C1B22000FFF7A2FD200006F095
:1059A0000BFE0325441D26002E4003D0FFF72EFDDD
:1059B0000134F8E7FFF7F4FCFFF70CFDFFF7CAFC32
:1059C0006B469D1D9E712A000733012134201E70F5
:1059D000FFF7AEFDC4B2FFF7E3FC002C04D02C7837
:1059E000013C60424441E4B2200076BD7D080020C5
:1059F000FF2130B587B00B00050000910A0004A814
:105A000000F0C4FC164B1B78002B01D1FFF74AFCB9
:105A1000FFF7E0FCFFF79EFC00213520FFF754FE66
:105A2000FFF7BEFCFFF7D6FCFFF794FC0B23002228
:105A30006B441A70012103AA3520FFF779FD041E7B
:105A400008D003A9280000F0C3FC059B6C68E41A89
:105A5000631E9C41FFF7A4FC200007B030BDC04688
:105A60007D08002010B50C00FFF780FF0300002028
:105A7000834202D02000FFF7BBFF10BD07B5002115
:105A8000034800910B000A0000F080FC07BDC046EF
:105A9000F8080020037D002B04D1437583758361D2
:105AA0000133037570477FB5C36802AD04000E0073
:105AB00002916A608B4203D1028AAB889A4218D065
:105AC0002000062229000C3005F0BAFF206800F003
:105AD00046FF6B79227AE17900932068002300F079
:105AE000DFFF20682979320000F00AFF206800F00B
:105AF0002CFF7FBD70B518260400FFF7CBFF3300E5
:105B0000082120790D4D4343EB18595600F0B4FBA2
:105B100033000821A0794343EB18595600F0ACFB41
:105B2000082160794643AD19695600F0A5FB044B86
:105B3000200006CBFFF7B7FF70BDC04618E200009B
:105B40003809002007B5437D00910192002B07D052
:105B50009A070AD5EFF310835A425341837572B600
:105B60000099019AFFF79FFF07BDDB07F8D583690E
:105B7000014A9BB29360F3E700180040437D002B7D
:105B800005D09A0704D5837D002B00D062B67047FC
:105B9000DB07FCD58369024A9BB2D360F7E7C046B6
:105BA0000018004010B5006800F0E2FE10BD0000D3
:105BB000114A124B12491360002353711371114A99
:105BC00011601149D36091800D2191710A3953748C
:105BD00013741375D37111720C4AD3605374137418
:105BE00013750B4BD17113600A4B9380192393717A
:105BF000183B13727047C0463809002000093D0069
:105C0000F80F0020000900200C0B00001C090020E8
:105C1000FC0F0020171600002120704710B501214D
:105C20001A2000F099FA01211A2000F0E1FA01216E
:105C30001B2000F091FA00211B2000F0D9FA10BDC2
:105C400010B5024801F0D9F810BDC0464009002047
:105C500010B5024801F0D1F810BDC0467C0B002001
:105C600010B5024801F0C9F810BDC046B80D0020BB
:105C7000F0B51F4985B01F4800F0B8FD1E491F4808
:105C800000F0B4FD1E4D1F49280000F0AFFD1E4E70
:105C90001E49300000F0AAFD1D491E4800F0A6FD77
:105CA0001D4F1E49380000F0A1FD012403233900D7
:105CB0000093019423000022194801F033F80023D7
:105CC0003100019300941D331E22164801F02AF87A
:105CD00019230393013B0293163B01930094143361
:105CE00017222900104800F0D9FF05B0F0BDC046CA
:105CF00000080042F40F0020000C0042F80F0020C2
:105D0000FC0F002000100042001000200014004290
:105D1000001800420410002008100020001C00425F
:105D2000400900207C0B0020B80D0020FEE7000099
:105D3000034B10B51B68002B00D0984710BDC04620
:105D40000C10002070B50F490F4CA14204D100F097
:105D50008FF800F045FBFEE70C4D00238D42F6D096
:105D6000CA18E818A24205D3094B8242EFD009496C
:105D7000002204E0006804331060F1E704C38B42A2
:105D8000FCD3E4E7000000207802002044EA000091
:105D9000780200204816002010B500F066F80028B0
:105DA00001D100F057F810BD014B18607047C04694
:105DB0000C100020014B18687047C04610100020DE
:105DC000F7B51348012284461249134C8E68636864
:105DD00005689B0E1340019288686268019F920ECD
:105DE0003A4067463F6893420ED1BD420CD186428D
:105DF0000AD35B19FA254868AD00861B07486B4338
:105E00007043000DC018FEBD3D0013000600E3E71F
:105E10001010002010E000E000ED00E055550000FB
:105E200070B5041E10D0FFF7CBFF050000F01CF882
:105E3000FFF7C6FF054B401B9842F7D9FA23013CF8
:105E40009B00ED18002CF3D170BDC046E7030000A5
:105E50007047000010B5034A13680133136000F067
:105E600089FC10BD10100020704700207047000012
:105E70001E22F0B5504851494368514D93431A00D2
:105E800002231343436008238A691343FE228B6174
:105E90002B68D2039B0213404A4A13434A4A936138
:105EA00013000422DC681442FCD00124474A147019
:105EB0001678264203D0567876B2002EF8DB0124FD
:105EC0009460547864B2002CFBDB414C54605478ED
:105ED00064B2002CFBDB8224E4015480547864B269
:105EE000002CFBDB02249C840E34DE682642FCD0AE
:105EF000384CDC621024DE682642FCD02C68A40EEC
:105F00003F2C00D1203C9E6A334FA4023E403443D4
:105F10009C629C6A314EA40AA40234439C62304CB9
:105F2000DC6200249C841034DE682642FCD02D4CB8
:105F30009C841024DE682642FCD002249E8C3443CC
:105F40009C841024DE682642FCD00024946054789F
:105F500064B2002CFBDB244C5460547864B2002CF7
:105F6000FBDB1C6A214E344080261C621C6AB44351
:105F70001C62032393601E4B536053785BB2002B6B
:105F8000FBDB0023FF240B721A4A4B728B72CB721D
:105F9000194B1A60194A2B6811689A065B01C90EE1
:105FA0002340520F12020B431343154A13858023DB
:105FB000426813434360F0BD0040004100040040CC
:105FC000246080000606000000080040000C00402D
:105FD00001040100B905FF7DFF03FFFFFF01000081
:105FE00080BB0A1C2405000000070300FFFCFFFF24
:105FF00003060100006CDC023C00002020608000F1
:1060000000400042FA21314B10B51868890002F0B7
:10601000E7FC2F4B0138984256D82E492E4A48604B
:10602000C020136A00061B021B0A034313620024EC
:1060300007238C600B608021136A09061B021B0A70
:106040000B431362FC22254B196A0A431A62FC2295
:10605000196A92010A431A62A022196AD2020A43FB
:106060001A6220000021013400F076F81F2CF8D1CC
:106070001B4B1C005A7852B2002AFBDB194A5A808B
:10608000194B1A00597EC9090129FBD0E421C90026
:1060900099803F21D970537EDB09012BFBD0C023AF
:1060A00000205B011361907000F024F863785BB20C
:1060B000002BFBDB0D4B0E4A6380D379DB09012BF0
:1060C000FBD04123537010BDFEE7C0463C000020CA
:1060D000FFFFFF0010E000E000ED00E000040040E2
:1060E000000C00401E400000004000422140000023
:1060F00000480042164A00B51300517EC909012923
:10610000FBD00138042816D81969124A0A400F2119
:106110001A615A788A4302F04FFC0308060B030009
:10612000110001220A435A7000BD11000322F9E751
:1061300011000222F6E7F02311691B050B430F2122
:10614000136153788B43190002230B435370EBE721
:1061500000400042FFFFFFF0182330B51D0004008F
:1061600045430820204A55192856013014D00329E8
:1061700012D808006343D156D31802F01DFC022840
:106180000E1B5868CB010221184A9B181A1840327E
:106190001170012282405A6030BD5868CB0106213F
:1061A000124A9B181A1840321170012282405A601C
:1061B0009A61F1E75868CB0106210C4A9B181A181E
:1061C00040321170012282405A605A61E4E75868F7
:1061D000CB010221054A9B181A1840321170012286
:1061E00082409A60D8E7C04618E2000000440041AF
:1061F0001823F0B508245843114A13181C570134CA
:106200001BD0012635005F688356BD400D4ADB0177
:106210009A18906805420BD10C00601E8441D21977
:106220004032107834400336A400B043204310704D
:10623000044A9B18002901D15D61F0BD9D61FCE716
:1062400018E2000000440041182310B5082443431D
:1062500007490020CA181457013408D05B56054975
:10626000DB015B18186A5368D8400123184010BD41
:1062700018E200000044004118224243F8B52C4EB9
:106280000300B218127A52B2140001320ED0481C28
:1062900000240C280AD802F08FFB071F1F1F1F1FA6
:1062A0001F1F1F0B0B0B0B00012464422000F8BDC5
:1062B000092905D100211800FFF74EFF0024F5E75A
:1062C0000A2901D10839F6E700240B29EED10A3951
:1062D0001800FFF741FFE9E718225343F218556809
:1062E00001202C00F356134ADB016E089B18C9B23B
:1062F00004409E19002C0DD00F243036327809014D
:1063000022401143C9B25B19317040331A781043EF
:106310001870D3E732000F27303216785B19BE436E
:106320003143117040331A7810431870BEE7C046ED
:1063300018E2000000440041F7B5C31D019300239B
:1063400006000D00041D009321780A22280000F0A9
:1063500022F92E210700280000F09EF8009B3F182C
:10636000DB190093019B01349C42EDD1F1792800A7
:106370000A2200F010F9009B1818FEBD024B0833EA
:10638000036000234360704730E5000030B503AC84
:106390002578044CC5710834046001714271837121
:1063A00030BDC04630E50000024B41600833036059
:1063B0007047C04630E5000010B50400034B0422CE
:1063C000083308C005F03CFB200010BD30E500009C
:1063D00010B504000422043005F032FB200010BD8B
:1063E00010B5FFF70FFE05F0DDFAFFF717FC0120EF
:1063F000FFF716FD084C200001F0A6FB200001F07D
:1064000051FCFBF77BFEFBF7E7FE044B002BFAD0B9
:1064100000E000BFF7E7C0467C100020000000004D
:1064200010B505F0E7FA10BD10B505F0EDFA10BD96
:10643000F7B506000D000C008B180193019B671B3C
:106440009C4207D0336821781B683000984701349C
:106450000028F3D13800FEBD70B5040008000D001F
:1064600006F0AAF82368020029005B68200098471C
:1064700070BD10B50B1E02D0FFF7EEFF0300180031
:1064800010BD10B503688A685B680968984710BD3D
:1064900010B5FFF7EEFF10BD10B503681B689847F5
:1064A00010BD000010B50249FFF7D6FF10BDC04671
:1064B00048E5000070B50500FFF7E3FF0400280081
:1064C000FFF7F0FF201870BD70B50400FFF7D1FF93
:1064D00005002000FFF7E6FF401970BDF0B58BB056
:1064E0006B461500002205330600DA770800012DFF
:1064F00000D80A2509AC290002F0F8FACAB2130044
:1065000037330700DBB2092902D813003033DBB27E
:10651000013C2370002FEED121003000FFF7A9FFCE
:106520000BB0F0BDF8B506000C00151E04D10368D1
:10653000C9B21B689847F8BD0A2A0CD100290BDAAA
:106540002D21FFF7A9FF614207002A003000FFF765
:10655000C5FF3818EFE7D2B221003000FFF7BEFFC9
:10656000E9E710B5FFF7DEFF10BD70B50400FFF7D7
:10657000D9FF05002000FFF795FF401970BD10B549
:10658000002A04D10368C9B21B68984710BDD2B273
:10659000FFF7A4FFFAE710B5FFF7F1FF10BD70B5E4
:1065A0000400FFF7ECFF05002000FFF77BFF401918
:1065B00070BD70B50400FFF7E2FF05002000FFF793
:1065C00071FF401970BD0000F7B51E0008AB1B78C5
:1065D00031000193050033001000170005F016F894
:1065E0004B49002814D10122740064085242494BDF
:1065F0003800210005F00AF800280FD10122454B90
:1066000052423800210002F081FB002806D14249A5
:106610002800FFF721FF04002000FEBDE0223F4BD1
:1066200012063800310002F07BFB002801D03C4903
:10663000EEE7E0223B4B12063800310002F05CFB33
:106640000028F4D1002200233800310002F054FB6E
:10665000041E07D02D212800FFF71EFF8023040011
:106660001B06F618002300202F490093019B009A77
:10667000934208D02D4B002203F004FE009B01330F
:10668000DBB20093F2E733003A0003F0DFFA0F00C9
:10669000060002F0ABFB0A22019001002800FFF780
:1066A0001DFF009B0419002BB6D0019805F03AF8A5
:1066B00002000B003000390004F060FC06000F00FF
:1066C00028002E21FFF7E8FE2418009B013BDBB2D7
:1066D0000093FF2BA0D0154B00223000390004F0AE
:1066E000DBF90F00060002F081FB0A220100019095
:1066F0002800FFF7F3FE2418019805F013F80200B4
:106700000B003000390004F039FC06000F00DCE714
:106710003CE50000FFFFEF7F40E50000FFFFEF4199
:1067200044E50000FFFFEFC10000E03F000024400F
:1067300037B519000400069B2000DBB200930B0064
:10674000FFF742FF05002000FFF7ACFE40193EBDF9
:1067500010B50400FFF77CFB014B1C6010BDC04668
:10676000400000200122024B52421A607047C0468E
:1067700040000020164A10B51368591C26D0013B72
:106780001360002B22D172B6124B134A043393428A
:1067900013D9124A01211000147D0C42FCD0202193
:1067A000148BFF319B085B0021431183D3610C4B99
:1067B00013800123027D1A42FCD0BFF34F8F094B97
:1067C000094ADA60BFF34F8FC046FDE710BDC046EF
:1067D00040000020002000000302000000400041B3
:1067E00002A5FFFF00ED00E00400FA05016070471C
:1067F0009446F0B59E1E721E964162460568920749
:106800002F6836063A4332432A60072505AC2478C0
:106810000068A4012940214342680024022B00D0D3
:106820005C03114321434160F0BD30B5C0250368CE
:10683000AD031C6812052A402243C0240904A402A7
:1068400021401143196003685A6814435C6030BDED
:106850000123026811680B43136003681A68D207AA
:10686000FCD4DA69D207F9D47047022302681168B0
:106870000B4313600268D3699B07FCD4704703681D
:106880001A7ED20702D41A7E9207FCD570470022E6
:1068900003685A8370470368187E4007C00F70472B
:1068A0000368187EC0097047802302685B42117E2E
:1068B0000B43137670470368588B8007C00F7047EF
:1068C00002230268518B0B43538370470368187E81
:1068D000C007C00F70470368188DC0B270470368C7
:1068E0001A7ED207FCD589B2012019857047012292
:1068F00003689A757047012203681A757047000093
:1069000070B5012604684B083340314025680907FB
:106910005B070B432B43236004685100034802F0DC
:106920005FF80138C0B2207370BDC046006CDC0255
:106930000123026811680B43136003681A68D207C9
:10694000FCD4DA69D207F9D47047022302681168CF
:106950000B4313600268D3699B07FCD4704703683C
:10696000DA699207FCD402211A688A431A607047D8
:106970000268936A5B0A5B021943916203681A7E9C
:106980005207FCD5986AC0B2704700000368214ADC
:1069900030B593422FD0204A93422FD01F4A9342C2
:1069A0002FD01F4A93422FD01E4A93422FD01E4A07
:1069B00093421FD10E2319220121032599401B4820
:1069C000C024016099082B40AB40FC359D408900F4
:1069D0000918A4000859A843C0259D402B00034373
:1069E0000B518023DB011A43114B5A805A7852B263
:1069F000002AFBDB30BD09231422DDE70A23152220
:106A0000DAE70B231622D7E70C231722D4E70D234E
:106A10001822D1E700080042000C0042001000429A
:106A20000014004200180042001C004200E100E097
:106A3000000C0040F8B504000F0016001D00FFF721
:106A4000A5FF2000FFF704FF1C21BB000B407107CE
:106A50002268090C0B431360842322689375012F6D
:106A60001AD11021012E00D008390C4B6943186847
:106A7000C00001F0B5FF0722216802408B89520354
:106A8000DB04DB0C13438B81226803049089DB0C4D
:106A9000400B400318439081F8BDC0463C000020E5
:106AA000F7B50600019308AB1F780D001400FFF73F
:106AB0003FFF3000FFF76AFFC02224059203144015
:106AC000BA070C2717433C43C0270722BF022D04F7
:106AD00033683D4025431D60019B316813401A0017
:106AE00080239B0213434B60F7BD816070470120F8
:106AF0007047000010B50368014A1B6A984710BD33
:106B0000130400000300FC33D9699A69914203D051
:106B1000DB69C018007D704701204042FBE710B5DB
:106B200004000069FFF794FE22000023FC32936109
:106B3000D36186229200A4186360A36010BDF02088
:106B400001403039484248417047F0231B01194049
:106B5000802306209B0099420AD00133FF33013085
:106B6000994205D0802302385B00994200D0002072
:106B700070470F2001400020012903D00239481E30
:106B80008141481C704700008923F0B5182685B064
:106B900002919B000400C05C330008214343324D46
:106BA0001700EB185956FFF767FB304B0821E05CE4
:106BB00033004343EB185956FFF75EFB2C4BE25C66
:106BC0000393022A09D11133E05CFF2805D0082184
:106BD0004643AE197156FFF74FFB8A26B600A05DFB
:106BE000FF2819D00121FFF7B7FA1822A35D214928
:106BF0005A43AB56AD18DB0158188B218900605001
:106C00001D4901225B188C218900635069688A4004
:106C10008D21890062501A600122029B11002069B7
:106C2000FFF708FF39002000FFF78FFF390005004C
:106C30002000FFF79EFF390006002000FFF77FFFCE
:106C400033000090290020690122FFF7D1FD0B4B92
:106C50002069E25C039BE15CFFF7E7FD2069FFF739
:106C600004FE05B0F0BDC04618E200002502000099
:106C7000270200001844004114440041260200008D
:106C8000802210B504005200002104F0F5FE23001C
:106C90000022FC335A6020009A6010BDF0B585B028
:106CA0001D000AAB1B78040000930BAB1B78160089
:106CB00001930CAB1B780F0002930DAB1B78039371
:106CC00000234360FA239B008360124B0833036068
:106CD0001430FFF7D5FF20001D30FF30FFF7D0FF45
:106CE00089236A469B002761E6540B4B1278E554D2
:106CF0000A4B2000E2546A46094B1279E2546A4674
:106D0000127A0133E2546A46127B1033E25405B022
:106D1000F0BDC0464CE50000250200002602000040
:106D200027020000F7B51D0008AB1B780400009394
:106D300009AB1B781600019300234360FA239B00E4
:106D40008360114B0F00083303601430FFF798FF86
:106D500020001D30FF30FFF793FF89236A469B0018
:106D60002761E654094B1278E554094B2000E254A0
:106D70006A46084B1279E2548A22293BFF3B920073
:106D8000A3541032A354FEBD4CE5000025020000C0
:106D900026020000270200000300FC3358689B68AD
:106DA000C01A01D50130FF30704710B50400200033
:106DB0001D30FF30FFF7F0FF0028F8D12069FFF702
:106DC0005EFD10BD10B51430FFF7E6FF10BD0300E7
:106DD000FC3359689A68914204DB5A689868801AB3
:106DE000FF30704798685B68C01A0138F9E710B542
:106DF0001D30FF30FFF7EBFF10BD10B50400006938
:106E0000FFF759FD002805D02069FFF764FD2069D0
:106E1000FFF756FD2069FFF73EFD002820D02069CE
:106E2000FFF759FD2200FC329369D1690133DBB2CF
:106E30008B4203D091696118087593618A239B0086
:106E4000E35CFF2B0CD020001430FFF7C0FF0928B3
:106E500006DC8B238D229B009200E358A2581A6017
:106E60002069FFF733FD00281AD020001D30FF30C5
:106E7000FFF792FF002822D086239B00E318996831
:106E80005A68914218D08E219A684900A218515C24
:106E90009A680132D2B29A60C9B22069FFF71FFD29
:106EA0002069FFF7FDFC002805D02069FFF7FCFCF6
:106EB0002069FFF7ECFC10BD01214942ECE7206995
:106EC000FFF719FDECE7000070B5040000690D0044
:106ED000FFF7FCFC00283ED1FF2686239B00E31829
:106EE0005A689968013232408A4223D1EFF3108305
:106EF000DB0710D41E4B5B68DB05DB0DEDD0103BD0
:106F00005BB2002B10DA0F221340083B9B08194A92
:106F10009B009B181B682069FFF7D8FC0028DCD079
:106F20002000FFF76AFFD8E79B08C033124A9B0096
:106F30009B58F0E75A68013216409A68964205D08D
:106F40008E215A684900A21855545E602069FFF7E7
:106F5000CEFC012070BD20001D30FF30FFF71CFF6C
:106F60000028B9D129002069FFF7B9FCF1E7C04634
:106F700000ED00E01CED00E000E100E0030070B572
:106F8000FC33D9699A69040091421AD0DA698218EF
:106F9000157DDA690132D2B2DA618A239B00E35CA3
:106FA000FF2B0CD020001430FFF711FF0A2806DD5C
:106FB0008C238D229B009200E358A2581A6028006F
:106FC00070BD01256D42E8E710B5041E05D005F03F
:106FD00061FA210001F074FE0C00200010BD10B514
:106FE0001C00431A0298511A001B584301F082FDFD
:106FF000001910BD10B504000068002801D004F08D
:1070000003FD200010BD10B504000068002801D069
:1070100004F0FAFC00232360A360636010BD70B528
:1070200004000D000068013105F066FA031E01D06E
:10703000012028C470BD036810B50400002B04D0E3
:1070400043688B4201D3012010BD2000FFF7E7FF0A
:107050000028F9D0A368002BF5D122681370F2E75D
:1070600070B50E00110004001500FFF7E4FF0028C2
:1070700004D12000FFF7C7FF200070BDA5603100DC
:10708000206805F091FAF7E7002370B504000D00C1
:10709000036043608360994207D0080005F08CFAD2
:1070A000290002002000FFF7DBFF200070BD70B553
:1070B000050008000C0005F07FFA210002002800FE
:1070C000FFF7CEFF70BD10B50B000400884205D05D
:1070D0000968002904D09A68FFF7C2FF200010BD9C
:1070E000FFF791FFFAE7002310B504000360436047
:1070F0008360FFF7E8FF200010BD10B504000029F1
:1071000003D0FFF7D4FF200010BDFFF77CFFFAE7A4
:10711000F8B504000F1E02D100263000F8BD01268C
:10712000002AFAD08368D5182900FFF784FF0028C9
:10713000F2D02368A2683900981805F035FAA560E6
:10714000EBE707B5002201AB19705A701900013244
:10715000FFF7DEFF0EBD836810B5002B07D10120BD
:10716000002903D0087843425841C0B210BD0068DE
:10717000002901D10078F6E705F00CFAF3E70020CA
:10718000704770B50F26CB1D013902003240D5B2D1
:107190002C0000093034092A00DD07341C70013B43
:1071A0008B42F2D170BD000010B50C000B4B18687B
:1071B000FFF7E7FF21000A4B08311868FFF7E1FFEE
:1071C0002100084B10311868FFF7DBFF2100064B48
:1071D00018311868FFF7D5FF202010BD0CA08000E3
:1071E00040A0800044A0800048A0800008B4024B6A
:1071F0009C46103808BC6047A971000070473F20CA
:10720000704713B56B460268D9710733546819008B
:107210000122A04716BD000070B50A260B7892B077
:107220006E44023305000B703C220021300004F054
:1072300023FC394801AC06903848242107900620E9
:1072400020776846364AA1742281364A364BA2819D
:10725000FD3AFF3A8018C177684623390630C17776
:1072600068460730C17702A8C1770720F277032666
:1072700008316944C87703A9CE7710212B366E44B4
:107280003170092621851F3169440E700CA9053E15
:107290000E7033212380022369440B7006360DA93A
:1072A0000E7022493536A1863B216E44307010A8FD
:1072B0006274E27702703D3269446A440B70137065
:1072C00040210022E37023716371A37341336B4447
:1072D000218719705A702B7DC039A370A372637710
:1072E0000133DBB2A3776A7D0B200D0068441543A0
:1072F000C5773120684403703A23501C6B441870E2
:10730000412302320A436B441A702100422208488A
:1073100000F05CFF12B070BD1001042402060524C9
:107320000904000001020000080B0000070500002E
:107330007C10002008B4024B9C46103808BC604703
:107340001972000070B5027D0B790C0000259A427D
:107350000BD10B784E78A12B09D1212E05D1072214
:107360001F49204800F032FF0135280070BD212B55
:10737000FBD1202E2BD1072219491A4800F068FEB4
:10738000174B1A785978090211439A78120411435D
:10739000DA7812060A439621C9008A421DD1DB79A8
:1073A000DB071AD4FA20FFF7D3F900210D4801F0CA
:1073B00019F80125232ED8D1E378A2781B021343B4
:1073C000094A00210748136001F00CF8CDE7222E8E
:1073D000EFD18A78024BDA71D2E7FFF7C3F9E4E71D
:1073E000480000207C1000204400002008B4024B1C
:1073F0009C46103808BC60474573000010B5417DBD
:10740000006A013100F05CFD034B1B6801335A1E1A
:107410009341181810BDC0465000002010B5417DA2
:10742000006A023100F062FD10BD10B5417D006AB6
:10743000023100F029FD10BD70B50D00417D040042
:10744000130002312A00006A00F016FE002801D164
:107450000123636070BD000010B5054C23685A1C01
:1074600004D103685B69984703002060180010BDD1
:1074700050000020074A0300106810B5411C03D0DB
:1074800001235B42136010BD597D186A013100F081
:10749000A3FDF8E75000002070470020704700006F
:1074A000FA239B0010B583600F4B0022C3820300B8
:1074B000283383610D4B04004260C26118004433DD
:1074C00023610830631D21622060DA778323A36281
:1074D000813BE3628033236300F0AEF8210010317A
:1074E00000F07EF8200010BD0302000080E50000DF
:1074F000022110B5094B1A68437D5B01D318FF3395
:107500009C7A21439972437D0133DBB25B01D3182E
:107510000122FF33997A0A439A7210BD3415002074
:107520007047000010B502490248FFF7B9FF10BDCF
:107530007C1000201410002070B50E000025446857
:10754000002C0BD0236831005B682000984700288E
:1075500002DB2D18E468F3E701256D42280070BDB9
:1075600070B50D004468002C08D0236829009B6882
:1075700020009847002802D1E468F4E7200070BD9D
:1075800070B50D0000264468002C09D0236829003E
:1075900020001B69984736182D18F6B2E468F3E707
:1075A00030002C7070BD70B50D004468002C08D000
:1075B000236829001B6820009847002802D1E4684E
:1075C000F4E7200070BD70B50D004468002C06D0B3
:1075D00023682000DB6829009847E468F6E770BD5F
:1075E000F0B58C79457803002A190020072A1FDCA2
:1075F0005A68824216D159601A78C8790A711218ED
:107600004D711A7000220B4DD0B284420FD98F6891
:1076100058789600F759860001307751013258703A
:10762000F2E70200D0680028FBD1D160E4E7012036
:10763000F0BDC046541000200121064A10B5136861
:1076400005480B4004D1802464000480436011602D
:1076500010BDC046481000204C100020704710B5E7
:107660000400FEF7E1FE200010BD0000F0B5822905
:1076700019D1C3B2294D5A01AA189169284C800129
:107680000C40C021890521439161264908334018E7
:107690007021506128685B011A5C8A431100302216
:1076A0000A431A54F0BD0029FCD1C026C1B21B4CBC
:1076B0004B01E3189A681A4DB6052A4032439A6086
:1076C000194A800182185A600A0007272468083284
:1076D0005201115DB9430F000121394311559F69D2
:1076E00010493D4040182E439E6158617020115D45
:1076F0008143080010210143115599680B48A218D5
:10770000084080214903014399609968890B8903E6
:107710009960402311790B431371C3E7341500209E
:10772000FFFFFF8FA810002068120020FF3F00F02D
:10773000EFF3108303600123436072B67047036860
:10774000002B02D162B6BFF36F8F7047F7B506000A
:10775000FC36B3690400002B18D1B2277F00C55D49
:107760006846FFF7E5FF019BEDB2013B02D3E55D03
:10777000EDB2FAE768460193FFF7E1FF002D01D172
:107780000020FEBD706E336EC01AFAE76846FFF740
:10779000CFFFD8220025019B5200013B02D3A55CFC
:1077A000EDB2FAE768460193FFF7C9FF002DE7D075
:1077B000D6235B00E058043BE358E5E710B5446886
:1077C000FC3043690B48DBB25A01A21891680833B8
:1077D0000840802149030143916091685B01890B56
:1077E000890391602268D318402219790A431A71DB
:1077F00010BDC046FF3F00F0F7B50500FC356B69D2
:107800004268DBB2190004000831106849014118D0
:10781000C979C90711D55B01D21893689B049B0CE9
:107820000CD12000FFF7CAFF63681A686B69DBB2EE
:1078300008335B01D3187F22DA71F7BDE9690029AB
:1078400023D16B66230001266933FF33EE6168465E
:107850005360B227FFF76CFF7F00B221019BFF311D
:10786000013B5A1C38D0D822E6555200A25C581E63
:10787000D2B26254625C8446002A04D12000019393
:10788000FFF79CFFE9E76346EBE7D6214900635029
:107890000023EB6123001D33FF3353606846D82675
:1078A000FFF746FF01277600B221019BFF31013B24
:1078B0005A1C11D0B222A7555200A25C581ED2B257
:1078C0006254625C8446002A04D120000193FFF7D1
:1078D00075FFE9E76346EBE768460193FFF72FFF83
:1078E000A2E7F7B5060068463400FFF721FF00273E
:1078F000FF22019BFC34013B0DD3E06821698842E3
:1079000004DBE7682069D71B3F18F4E72769E168C3
:107910007F1A013FEFE768460193FFF710FFA36965
:107920006846002B52D1FFF703FFB221019B4900AB
:10793000013B5A1C0CD0755C5A1EEDB2002D05D1CE
:1079400068460193FFF7FBFE2800FEBD1300F0E739
:10795000684601930025FFF7F2FEFF22236EBD4229
:1079600014D0616E994211D9591CF3182166FF3366
:10797000587FE36821690133C0B213408B4203D0C2
:10798000E16871180872E3600135E7E7626E9A42B8
:10799000DAD1002323660133A3616846B224FFF7DE
:1079A000C7FE6400B2220021019BFF32013B581C3C
:1079B000C6D03155B05C5F1E002805D0B1543000F0
:1079C0000193FFF7FBFEEDE73B00F0E7FFF7B0FEAA
:1079D000D821019B4900013B5A1C06D0755C5A1EF8
:1079E000EDB2002DACD01300F6E768460193FFF727
:1079F000A6FED623D4225B0000259C465200B35835
:107A0000BD4203D061467158994220D86246B258AF
:107A10009A4299D1D42200235200B3506846A36100
:107A2000D824FFF785FE6400B2220021019BFF32BB
:107A3000013B581C00D183E73155B05C5F1E002824
:107A400019D0B15430000193FFF7B8FEECE7591C90
:107A5000B150FF21F3186933FF331878E368C0B2DF
:107A600001330B4021698B4203D0E1687118087221
:107A7000E3600135C3E73B00DBE710B50400FFF727
:107A800030FF2300FC331969DA68914203D01B6987
:107A9000E418207A10BD01204042FBE710B5040035
:107AA000FC34FFF71EFFE0682369C01A01D50130DE
:107AB000FF3010BDF0B585B0019200910500FFF7D1
:107AC00010FF02A8FFF734FE01200024FF26039BCD
:107AD00040425A1E531C1FD02B00FC3301998C428C
